{
  "abi": [
    {
      "inputs": [
        {
          "internalType": "contract PoolManager",
          "name": "manager",
          "type": "address"
        },
        {
          "internalType": "contract IHooks",
          "name": "hooks",
          "type": "address"
        },
        {
          "internalType": "uint24",
          "name": "fee",
          "type": "uint24"
        },
        {
          "internalType": "uint160",
          "name": "sqrtPriceX96",
          "type": "uint160"
        }
      ],
      "name": "createPool",
      "outputs": [
        {
          "components": [
            {
              "internalType": "Currency",
              "name": "currency0",
              "type": "address"
            },
            {
              "internalType": "Currency",
              "name": "currency1",
              "type": "address"
            },
            {
              "internalType": "uint24",
              "name": "fee",
              "type": "uint24"
            },
            {
              "internalType": "int24",
              "name": "tickSpacing",
              "type": "int24"
            },
            {
              "internalType": "contract IHooks",
              "name": "hooks",
              "type": "address"
            }
          ],
          "internalType": "struct PoolKey",
          "name": "key",
          "type": "tuple"
        },
        {
          "internalType": "PoolId",
          "name": "id",
          "type": "bytes32"
        }
      ],
      "stateMutability": "nonpayable",
      "type": "function"
    }
  ],
  "bytecode": {
    "object": "0x608060405234801561001057600080fd5b506117e9806100206000396000f3fe60806040523480156200001157600080fd5b50600436106200002e5760003560e01c80638e909e511462000033575b600080fd5b6200004a620000443660046200045d565b62000063565b6040516200005a929190620004c9565b60405180910390f35b6040805160a08101825260008082526020808301829052828401829052606083018290526080830182905283518281529081019093529091620000ae908790879087908790620000bb565b9097909650945050505050565b6040805160a08101825260008082526020820181905291810182905260608101829052608081018290529080620000f86002600160ff1b62000262565b905060008062000143836000815181106200011757620001176200053d565b6020026020010151846001815181106200013557620001356200053d565b6020026020010151620003ce565b915091506040518060a00160405280836001600160a01b03168152602001826001600160a01b031681526020018962ffffff1681526020016200018f8a62ffffff166280000016151590565b620001b457620001a160648b62000553565b620001ae90600262000584565b620001b7565b603c5b60020b81526020018a6001600160a01b03168152509450620001d98562000404565b60405163695c5bf560e01b81529094506001600160a01b038b169063695c5bf5906200020e9088908b908b90600401620005ba565b6020604051808303816000875af11580156200022e573d6000803e3d6000fd5b505050506040513d601f19601f820116820180604052508101906200025491906200066e565b505050509550959350505050565b60608260ff1667ffffffffffffffff81111562000283576200028362000527565b604051908082528060200260200182016040528015620002ad578160200160208202803683370190505b50905060005b8360ff168160ff161015620003c7576012604051620002d29062000436565b620002de91906200069a565b604051809103906000f080158015620002fb573d6000803e3d6000fd5b50828260ff16815181106200031457620003146200053d565b60200260200101906001600160a01b031690816001600160a01b031681525050818160ff16815181106200034c576200034c6200053d565b60209081029190910101516040516340c10f1960e01b8152306004820152602481018590526001600160a01b03909116906340c10f1990604401600060405180830381600087803b158015620003a157600080fd5b505af1158015620003b6573d6000803e3d6000fd5b505060019092019150620002b39050565b5092915050565b600080826001600160a01b0316846001600160a01b03161015620003f7575082905081620003fd565b50819050825b9250929050565b600081604051602001620004199190620006f5565b604051602081830303815290604052805190602001209050919050565b611067806200074d83390190565b6001600160a01b03811681146200045a57600080fd5b50565b600080600080608085870312156200047457600080fd5b8435620004818162000444565b93506020850135620004938162000444565b9250604085013562ffffff81168114620004ac57600080fd5b91506060850135620004be8162000444565b939692955090935050565b60c081016200051a82856001600160a01b0380825116835280602083015116602084015262ffffff6040830151166040840152606082015160020b6060840152806080830151166080840152505050565b8260a08301529392505050565b634e487b7160e01b600052604160045260246000fd5b634e487b7160e01b600052603260045260246000fd5b600062ffffff808416806200057857634e487b7160e01b600052601260045260246000fd5b92169190910492915050565b62ffffff818116838216028082169190828114620005b257634e487b7160e01b600052601160045260246000fd5b505092915050565b6200060781856001600160a01b0380825116835280602083015116602084015262ffffff6040830151166040840152606082015160020b6060840152806080830151166080840152505050565b6001600160a01b03831660a082015260e060c0820152600082518060e084015260005b818110156200064a5760208186018101516101008684010152016200062a565b50610100600081838601015280601f19601f84011685010192505050949350505050565b6000602082840312156200068157600080fd5b81518060020b81146200069357600080fd5b9392505050565b606081526000620006bf606083016004815263151154d560e21b602082015260400190565b8281036020840152620006e3816004815263151154d560e21b602082015260400190565b91505060ff8316604083015292915050565b60a081016200074682846001600160a01b0380825116835280602083015116602084015262ffffff6040830151166040840152606082015160020b6060840152806080830151166080840152505050565b9291505056fe60e06040523480156200001157600080fd5b5060405162001067380380620010678339810160408190526200003491620001de565b8282826000620000458482620002f4565b506001620000548382620002f4565b5060ff81166080524660a0526200006a6200007a565b60c052506200043e945050505050565b60007f8b73c3c69bb8fe3d512ecc4cf759cc79239f7b179b0ffacaa9a75d522b39400f6000604051620000ae9190620003c0565b6040805191829003822060208301939093528101919091527fc89efdaa54c0f20c7adf612882df0950f5a951637e0307cdcb4c672f298b8bc660608201524660808201523060a082015260c00160405160208183030381529060405280519060200120905090565b634e487b7160e01b600052604160045260246000fd5b600082601f8301126200013e57600080fd5b81516001600160401b03808211156200015b576200015b62000116565b604051601f8301601f19908116603f0116810190828211818310171562000186576200018662000116565b8160405283815260209250866020858801011115620001a457600080fd5b600091505b83821015620001c85785820183015181830184015290820190620001a9565b6000602085830101528094505050505092915050565b600080600060608486031215620001f457600080fd5b83516001600160401b03808211156200020c57600080fd5b6200021a878388016200012c565b945060208601519150808211156200023157600080fd5b5062000240868287016200012c565b925050604084015160ff811681146200025857600080fd5b809150509250925092565b600181811c908216806200027857607f821691505b6020821081036200029957634e487b7160e01b600052602260045260246000fd5b50919050565b601f821115620002ef576000816000526020600020601f850160051c81016020861015620002ca5750805b601f850160051c820191505b81811015620002eb57828155600101620002d6565b5050505b505050565b81516001600160401b0381111562000310576200031062000116565b620003288162000321845462000263565b846200029f565b602080601f831160018114620003605760008415620003475750858301515b600019600386901b1c1916600185901b178555620002eb565b600085815260208120601f198616915b82811015620003915788860151825594840194600190910190840162000370565b5085821015620003b05787850151600019600388901b60f8161c191681555b5050505050600190811b01905550565b6000808354620003d08162000263565b60018281168015620003eb5760018114620004015762000432565b60ff198416875282151583028701945062000432565b8760005260208060002060005b85811015620004295781548a8201529084019082016200040e565b50505082870194505b50929695505050505050565b60805160a05160c051610bf96200046e60003960006104820152600061044d0152600061015f0152610bf96000f3fe608060405234801561001057600080fd5b50600436106100ea5760003560e01c806370a082311161008c5780639dc29fac116100665780639dc29fac146101f8578063a9059cbb1461020b578063d505accf1461021e578063dd62ed3e1461023157600080fd5b806370a08231146101b05780637ecebe00146101d057806395d89b41146101f057600080fd5b806323b872dd116100c857806323b872dd14610147578063313ce5671461015a5780633644e5151461019357806340c10f191461019b57600080fd5b806306fdde03146100ef578063095ea7b31461010d57806318160ddd14610130575b600080fd5b6100f761025c565b6040516101049190610913565b60405180910390f35b61012061011b36600461097e565b6102ea565b6040519015158152602001610104565b61013960025481565b604051908152602001610104565b6101206101553660046109a8565b610357565b6101817f000000000000000000000000000000000000000000000000000000000000000081565b60405160ff9091168152602001610104565b610139610449565b6101ae6101a936600461097e565b6104a4565b005b6101396101be3660046109e4565b60036020526000908152604090205481565b6101396101de3660046109e4565b60056020526000908152604090205481565b6100f76104b2565b6101ae61020636600461097e565b6104bf565b61012061021936600461097e565b6104c9565b6101ae61022c366004610a06565b610541565b61013961023f366004610a79565b600460209081526000928352604080842090915290825290205481565b6000805461026990610aac565b80601f016020809104026020016040519081016040528092919081815260200182805461029590610aac565b80156102e25780601f106102b7576101008083540402835291602001916102e2565b820191906000526020600020905b8154815290600101906020018083116102c557829003601f168201915b505050505081565b3360008181526004602090815260408083206001600160a01b038716808552925280832085905551919290917f8c5be1e5ebec7d5bd14f71427d1e84f3dd0314c0f7b2291e5b200ac8c7c3b925906103459086815260200190565b60405180910390a35060015b92915050565b6001600160a01b038316600090815260046020908152604080832033845290915281205460001981146103b35761038e8382610afc565b6001600160a01b03861660009081526004602090815260408083203384529091529020555b6001600160a01b038516600090815260036020526040812080548592906103db908490610afc565b90915550506001600160a01b03808516600081815260036020526040908190208054870190555190918716907fddf252ad1be2c89b69c2b068fc378daa952ba7f163c4a11628f55a4df523b3ef906104369087815260200190565b60405180910390a3506001949350505050565b60007f0000000000000000000000000000000000000000000000000000000000000000461461047f5761047a610799565b905090565b507f000000000000000000000000000000000000000000000000000000000000000090565b6104ae8282610833565b5050565b6001805461026990610aac565b6104ae828261089f565b336000908152600360205260408120805483919083906104ea908490610afc565b90915550506001600160a01b038316600081815260036020526040908190208054850190555133907fddf252ad1be2c89b69c2b068fc378daa952ba7f163c4a11628f55a4df523b3ef906103459086815260200190565b428410156105965760405162461bcd60e51b815260206004820152601760248201527f5045524d49545f444541444c494e455f4558504952454400000000000000000060448201526064015b60405180910390fd5b600060016105a2610449565b6001600160a01b038a811660008181526005602090815260409182902080546001810190915582517f6e71edae12b1b97f4d1f60370fef10105fa2faae0126114a169c64845d6126c98184015280840194909452938d166060840152608083018c905260a083019390935260c08083018b90528151808403909101815260e08301909152805192019190912061190160f01b6101008301526101028201929092526101228101919091526101420160408051601f198184030181528282528051602091820120600084529083018083525260ff871690820152606081018590526080810184905260a0016020604051602081039080840390855afa1580156106ae573d6000803e3d6000fd5b5050604051601f1901519150506001600160a01b038116158015906106e45750876001600160a01b0316816001600160a01b0316145b6107305760405162461bcd60e51b815260206004820152600e60248201527f494e56414c49445f5349474e4552000000000000000000000000000000000000604482015260640161058d565b6001600160a01b0390811660009081526004602090815260408083208a8516808552908352928190208990555188815291928a16917f8c5be1e5ebec7d5bd14f71427d1e84f3dd0314c0f7b2291e5b200ac8c7c3b925910160405180910390a350505050505050565b60007f8b73c3c69bb8fe3d512ecc4cf759cc79239f7b179b0ffacaa9a75d522b39400f60006040516107cb9190610b0f565b6040805191829003822060208301939093528101919091527fc89efdaa54c0f20c7adf612882df0950f5a951637e0307cdcb4c672f298b8bc660608201524660808201523060a082015260c00160405160208183030381529060405280519060200120905090565b80600260008282546108459190610bb0565b90915550506001600160a01b0382166000818152600360209081526040808320805486019055518481527fddf252ad1be2c89b69c2b068fc378daa952ba7f163c4a11628f55a4df523b3ef91015b60405180910390a35050565b6001600160a01b038216600090815260036020526040812080548392906108c7908490610afc565b90915550506002805482900390556040518181526000906001600160a01b038416907fddf252ad1be2c89b69c2b068fc378daa952ba7f163c4a11628f55a4df523b3ef90602001610893565b60006020808352835180602085015260005b8181101561094157858101830151858201604001528201610925565b506000604082860101526040601f19601f8301168501019250505092915050565b80356001600160a01b038116811461097957600080fd5b919050565b6000806040838503121561099157600080fd5b61099a83610962565b946020939093013593505050565b6000806000606084860312156109bd57600080fd5b6109c684610962565b92506109d460208501610962565b9150604084013590509250925092565b6000602082840312156109f657600080fd5b6109ff82610962565b9392505050565b600080600080600080600060e0888a031215610a2157600080fd5b610a2a88610962565b9650610a3860208901610962565b95506040880135945060608801359350608088013560ff81168114610a5c57600080fd5b9699959850939692959460a0840135945060c09093013592915050565b60008060408385031215610a8c57600080fd5b610a9583610962565b9150610aa360208401610962565b90509250929050565b600181811c90821680610ac057607f821691505b602082108103610ae057634e487b7160e01b600052602260045260246000fd5b50919050565b634e487b7160e01b600052601160045260246000fd5b8181038181111561035157610351610ae6565b60008083548160018260011c91506001831680610b2d57607f831692505b60208084108203610b4c57634e487b7160e01b86526022600452602486fd5b818015610b605760018114610b7557610ba2565b60ff1986168952841515850289019650610ba2565b60008a81526020902060005b86811015610b9a5781548b820152908501908301610b81565b505084890196505b509498975050505050505050565b8082018082111561035157610351610ae656fea2646970667358221220c342a9d9ae1abac6544bb103a36e9c7a20dfb5ab1fd827b5875c32a645d9703164736f6c63430008160033a2646970667358221220a836e3ab870f3ef986382f2249f2464babdeddde88c66885ffee25c8de2c68ba64736f6c63430008160033",
    "linkReferences": {}
  },
  "methodIdentifiers": {
    "createPool(address,address,uint24,uint160)": "8e909e51"
  },
  "id": 95
}