{
  "abi": [
    {
      "inputs": [
        {
          "internalType": "uint256",
          "name": "amount",
          "type": "uint256"
        }
      ],
      "name": "increaseFeeGrowthGlobal0X128",
      "outputs": [],
      "stateMutability": "nonpayable",
      "type": "function"
    },
    {
      "inputs": [
        {
          "internalType": "uint256",
          "name": "amount",
          "type": "uint256"
        }
      ],
      "name": "increaseFeeGrowthGlobal1X128",
      "outputs": [],
      "stateMutability": "nonpayable",
      "type": "function"
    },
    {
      "inputs": [
        {
          "internalType": "int24",
          "name": "target",
          "type": "int24"
        }
      ],
      "name": "moveToTick",
      "outputs": [],
      "stateMutability": "nonpayable",
      "type": "function"
    },
    {
      "inputs": [
        {
          "internalType": "int24",
          "name": "tickLower",
          "type": "int24"
        },
        {
          "internalType": "int24",
          "name": "tickUpper",
          "type": "int24"
        },
        {
          "internalType": "int128",
          "name": "liquidityDelta",
          "type": "int128"
        }
      ],
      "name": "setPosition",
      "outputs": [],
      "stateMutability": "nonpayable",
      "type": "function"
    }
  ],
  "bytecode": {
    "object": "0x60806040526007805462ffffff1916905561001d6002600019610051565b60085561002d6002600019610051565b6009556000600a556000600b556000600c5534801561004b57600080fd5b50610073565b60008261006e57634e487b7160e01b600052601260045260246000fd5b500490565b6107f1806100826000396000f3fe608060405234801561001057600080fd5b506004361061004c5760003560e01c80630b0c061f146100515780633f03e19414610066578063541bdfb114610079578063af7593681461008c575b600080fd5b61006461005f366004610552565b61009f565b005b610064610074366004610552565b6100e9565b610064610087366004610582565b61012b565b61006461009a3660046105cf565b6102e2565b600b546100ac8282610607565b116100b657600080fd5b80600860008282546100c89190610607565b9250508190555080600b60008282546100e19190610607565b909155505050565b600c546100f68282610607565b1161010057600080fd5b80600960008282546101129190610607565b9250508190555080600c60008282546100e19190610607565b600f19600284900b1361013d57600080fd5b6010600283900b1261014e57600080fd5b8160020b8360020b1261016057600080fd5b600061016e81858482610467565b50905060006101808185856001610467565b509050811561020e57600083600f0b12156101e557600285900b6000908152600460205260409020546001600160801b0316156101bf576101bf610620565b600285810b6000908152600460205260408120818155600181018290559091015561020e565b600285900b6000908152600460205260409020546001600160801b031661020e5761020e610620565b801561029957600083600f0b121561027057600284900b6000908152600460205260409020546001600160801b03161561024a5761024a610620565b600284810b60009081526004602052604081208181556001810182905590910155610299565b600284900b6000908152600460205260409020546001600160801b031661029957610299610620565b82600f0b600a60008282546102ae9190610636565b9091555050600a54600013156102c6576102c6610620565b600a546000036102db576000600b819055600c555b5050505050565b600f19600282900b136102f457600080fd5b6010600282900b1261030557600080fd5b600754600282810b91900b1461046457600754600282810b91900b12156103fc57600754600090600490829061033f9060020b600161065e565b60020b81526020810191909152604001600020546001600160801b031611156103c4576007546103c2906103779060020b600161065e565b600854600954600292830b60009081526004602052604090206001810180549093039092559181018054909203909155547001000000000000000000000000000000009004600f0b90565b505b6007805460020b9060006103d783610683565b91906101000a81548162ffffff021916908360020b62ffffff16021790555050610305565b60075460020b6000908152600460205260409020546001600160801b03161561045157600754600854600954600292830b60009081526004602052604090206001810180549093039092559101805490910390555b6007805460020b9060006103d7836106a4565b50565b600283900b6000908152600485016020526040812080548291906001600160801b0381169060801c600f87900b84136104a9576104a487836106c7565b6104bc565b6104b2876106ee565b6104bc908361071d565b6001600160801b038082161590841680159190911415965090945060000361051b578854740100000000000000000000000000000000000000009004600290810b9089900b1361051b576001808a0154908401556002808a0154908401555b6000866105315761052c888361073d565b61053b565b61053b888361077c565b90508060801b851784555050505094509492505050565b60006020828403121561056457600080fd5b5035919050565b8035600281900b811461057d57600080fd5b919050565b60008060006060848603121561059757600080fd5b6105a08461056b565b92506105ae6020850161056b565b9150604084013580600f0b81146105c457600080fd5b809150509250925092565b6000602082840312156105e157600080fd5b6105ea8261056b565b9392505050565b634e487b7160e01b600052601160045260246000fd5b8082018082111561061a5761061a6105f1565b92915050565b634e487b7160e01b600052600160045260246000fd5b8082018281126000831280158216821582161715610656576106566105f1565b505092915050565b600281810b9083900b01627fffff8113627fffff198212171561061a5761061a6105f1565b60008160020b627fffff810361069b5761069b6105f1565b60010192915050565b60008160020b627fffff1981036106bd576106bd6105f1565b6000190192915050565b6001600160801b038181168382160190808211156106e7576106e76105f1565b5092915050565b600081600f0b6f7fffffffffffffffffffffffffffffff198103610714576107146105f1565b60000392915050565b6001600160801b038281168282160390808211156106e7576106e76105f1565b600f81810b9083900b016f7fffffffffffffffffffffffffffffff81136f7fffffffffffffffffffffffffffffff198212171561061a5761061a6105f1565b600f82810b9082900b036f7fffffffffffffffffffffffffffffff1981126f7fffffffffffffffffffffffffffffff8213171561061a5761061a6105f156fea264697066735822122081cf2869b1a8d774cef46d6dba76b4fbb4b2e161f60077f983c91f7a77d5e11964736f6c63430008160033",
    "linkReferences": {}
  },
  "methodIdentifiers": {
    "increaseFeeGrowthGlobal0X128(uint256)": "0b0c061f",
    "increaseFeeGrowthGlobal1X128(uint256)": "3f03e194",
    "moveToTick(int24)": "af759368",
    "setPosition(int24,int24,int128)": "541bdfb1"
  },
  "id": 78
}