{
  "abi": [
    {
      "inputs": [
        {
          "internalType": "uint160",
          "name": "sqrtP",
          "type": "uint160"
        },
        {
          "internalType": "uint160",
          "name": "sqrtQ",
          "type": "uint160"
        },
        {
          "internalType": "uint128",
          "name": "liquidity",
          "type": "uint128"
        },
        {
          "internalType": "bool",
          "name": "roundUp",
          "type": "bool"
        }
      ],
      "name": "getAmount0DeltaEquivalency",
      "outputs": [],
      "stateMutability": "pure",
      "type": "function"
    },
    {
      "inputs": [
        {
          "internalType": "uint160",
          "name": "sqrtP",
          "type": "uint160"
        },
        {
          "internalType": "uint160",
          "name": "sqrtQ",
          "type": "uint160"
        },
        {
          "internalType": "uint128",
          "name": "liquidity",
          "type": "uint128"
        }
      ],
      "name": "getAmount0DeltaInvariants",
      "outputs": [],
      "stateMutability": "pure",
      "type": "function"
    },
    {
      "inputs": [
        {
          "internalType": "uint160",
          "name": "sqrtP",
          "type": "uint160"
        },
        {
          "internalType": "uint160",
          "name": "sqrtQ",
          "type": "uint160"
        },
        {
          "internalType": "int128",
          "name": "liquidity",
          "type": "int128"
        }
      ],
      "name": "getAmount0DeltaSignedInvariants",
      "outputs": [],
      "stateMutability": "pure",
      "type": "function"
    },
    {
      "inputs": [
        {
          "internalType": "uint160",
          "name": "sqrtP",
          "type": "uint160"
        },
        {
          "internalType": "uint160",
          "name": "sqrtQ",
          "type": "uint160"
        },
        {
          "internalType": "uint128",
          "name": "liquidity",
          "type": "uint128"
        }
      ],
      "name": "getAmount1DeltaInvariants",
      "outputs": [],
      "stateMutability": "pure",
      "type": "function"
    },
    {
      "inputs": [
        {
          "internalType": "uint160",
          "name": "sqrtP",
          "type": "uint160"
        },
        {
          "internalType": "uint160",
          "name": "sqrtQ",
          "type": "uint160"
        },
        {
          "internalType": "int128",
          "name": "liquidity",
          "type": "int128"
        }
      ],
      "name": "getAmount1DeltaSignedInvariants",
      "outputs": [],
      "stateMutability": "pure",
      "type": "function"
    },
    {
      "inputs": [
        {
          "internalType": "uint160",
          "name": "sqrtLower",
          "type": "uint160"
        },
        {
          "internalType": "uint160",
          "name": "sqrtCurrent",
          "type": "uint160"
        },
        {
          "internalType": "uint160",
          "name": "sqrtUpper",
          "type": "uint160"
        },
        {
          "internalType": "int128",
          "name": "liquidity",
          "type": "int128"
        }
      ],
      "name": "getInRangeMintInvariants",
      "outputs": [],
      "stateMutability": "pure",
      "type": "function"
    },
    {
      "inputs": [
        {
          "internalType": "uint160",
          "name": "sqrtPX96",
          "type": "uint160"
        },
        {
          "internalType": "uint128",
          "name": "liquidity",
          "type": "uint128"
        },
        {
          "internalType": "uint256",
          "name": "amount",
          "type": "uint256"
        },
        {
          "internalType": "bool",
          "name": "add",
          "type": "bool"
        }
      ],
      "name": "getNextSqrtPriceFromAmount0RoundingUpInvariants",
      "outputs": [],
      "stateMutability": "pure",
      "type": "function"
    },
    {
      "inputs": [
        {
          "internalType": "uint160",
          "name": "sqrtPX96",
          "type": "uint160"
        },
        {
          "internalType": "uint128",
          "name": "liquidity",
          "type": "uint128"
        },
        {
          "internalType": "uint256",
          "name": "amount",
          "type": "uint256"
        },
        {
          "internalType": "bool",
          "name": "add",
          "type": "bool"
        }
      ],
      "name": "getNextSqrtPriceFromAmount1RoundingDownInvariants",
      "outputs": [],
      "stateMutability": "pure",
      "type": "function"
    },
    {
      "inputs": [
        {
          "internalType": "uint160",
          "name": "sqrtP",
          "type": "uint160"
        },
        {
          "internalType": "uint128",
          "name": "liquidity",
          "type": "uint128"
        },
        {
          "internalType": "uint256",
          "name": "amountIn",
          "type": "uint256"
        },
        {
          "internalType": "bool",
          "name": "zeroForOne",
          "type": "bool"
        }
      ],
      "name": "getNextSqrtPriceFromInputInvariants",
      "outputs": [],
      "stateMutability": "pure",
      "type": "function"
    },
    {
      "inputs": [
        {
          "internalType": "uint160",
          "name": "sqrtP",
          "type": "uint160"
        },
        {
          "internalType": "uint128",
          "name": "liquidity",
          "type": "uint128"
        },
        {
          "internalType": "uint256",
          "name": "amountOut",
          "type": "uint256"
        },
        {
          "internalType": "bool",
          "name": "zeroForOne",
          "type": "bool"
        }
      ],
      "name": "getNextSqrtPriceFromOutputInvariants",
      "outputs": [],
      "stateMutability": "pure",
      "type": "function"
    },
    {
      "inputs": [
        {
          "internalType": "uint160",
          "name": "sqrtA",
          "type": "uint160"
        },
        {
          "internalType": "uint160",
          "name": "sqrtB",
          "type": "uint160"
        },
        {
          "internalType": "int128",
          "name": "liquidity",
          "type": "int128"
        }
      ],
      "name": "getOutOfRangeMintInvariants",
      "outputs": [],
      "stateMutability": "pure",
      "type": "function"
    },
    {
      "inputs": [
        {
          "internalType": "uint256",
          "name": "x",
          "type": "uint256"
        },
        {
          "internalType": "uint256",
          "name": "y",
          "type": "uint256"
        },
        {
          "internalType": "uint256",
          "name": "z",
          "type": "uint256"
        }
      ],
      "name": "mulDivRoundingUpInvariants",
      "outputs": [],
      "stateMutability": "pure",
      "type": "function"
    }
  ],
  "bytecode": {
    "object": "0x608060405234801561001057600080fd5b50611208806100206000396000f3fe608060405234801561001057600080fd5b50600436106100d45760003560e01c80638e13a4b911610081578063b712c47c1161005b578063b712c47c14610186578063c8569d8814610199578063f157fb50146101ac57600080fd5b80638e13a4b91461014d578063b29f199e14610160578063b46e67141461017357600080fd5b806339933d51116100b257806339933d51146101145780633d729147146101275780636e6238d71461013a57600080fd5b80631faf4a39146100d957806321e14f8b146100ee5780633001e65e14610101575b600080fd5b6100ec6100e7366004610f20565b6101bf565b005b6100ec6100fc366004610f20565b61025d565b6100ec61010f366004610f6d565b610311565b6100ec610122366004610fc2565b6103bd565b6100ec61013536600461100b565b61047f565b6100ec610148366004611037565b610514565b6100ec61015b366004611071565b6105d2565b6100ec61016e366004611037565b6106ef565b6100ec610181366004610f20565b610727565b6100ec610194366004611037565b6107ad565b6100ec6101a7366004610f6d565b61085b565b6100ec6101ba366004610f20565b6108d0565b60006101cd8585858561097b565b9050811561021857846001600160a01b0316816001600160a01b031611156101f7576101f76110ba565b61020481868660016109d7565b831015610213576102136110ba565b610256565b846001600160a01b0316816001600160a01b0316101561023a5761023a6110ba565b6102478582866001610a97565b831015610256576102566110ba565b5050505050565b6000846001600160a01b03161161027357600080fd5b6000836001600160801b03161161028957600080fd5b600061029785858585610b10565b905081156102c657846001600160a01b0316816001600160a01b031610156102c1576102c16110ba565b6102e8565b846001600160a01b0316816001600160a01b031611156102e8576102e86110ba565b8260000361025657806001600160a01b0316856001600160a01b031614610256576102566110ba565b6000836001600160a01b031611801561033357506000826001600160a01b0316115b61033c57600080fd5b600061034b83858460006109d7565b905061035a84848460006109d7565b8114610368576103686110ba565b600061037784868560016109d7565b905061038685858560016109d7565b8114610394576103946110ba565b808211156103a4576103a46110ba565b60026103b083836110e6565b10610256576102566110ba565b6000846001600160a01b0316116103d357600080fd5b816001600160a01b0316846001600160a01b0316106103f157600080fd5b826001600160a01b0316846001600160a01b0316111580156104255750816001600160a01b0316836001600160a01b031611155b61042e57600080fd5b600081600f0b1361043e57600080fd5b600061044b848484610bf7565b9050600061045a868685610c3e565b9050600082138061046b5750600081135b610477576104776110ba565b505050505050565b6000811161048c57600080fd5b6000610499848484610c6d565b905060006104a8858585610d0f565b9050818110156104ba576104ba6110ba565b6002828203106104cc576104cc6110ba565b8181036001036104f657600083806104e6576104e66110ff565b85870911610213576102136110ba565b8280610504576105046110ff565b84860915610256576102566110ba565b6000836001600160a01b031611801561053657506000826001600160a01b0316115b61053f57600080fd5b600061054c848484610c3e565b9050600082600f0b121561056b57600081131561056b5761056b6110ba565b600082600f0b13156105b357826001600160a01b0316846001600160a01b0316036105a357801561059e5761059e6110ba565b6105b3565b600081136105b3576105b36110ba565b81600f0b6000036105cc5780156105cc576105cc6110ba565b50505050565b826001600160a01b0316846001600160a01b031610156105f157600080fd5b6000846001600160a01b031611801561061357506000836001600160a01b0316115b61061c57600080fd5b6001600160a01b038316846106318582611115565b61063b9190611147565b6001600160a01b03161461064e57600080fd5b6fffffffffffffffffffffffffffffffff60601b606083901b166000610674858761116d565b6001600160a01b031690506000856001600160a01b0316876001600160a01b031661069f9190611194565b90506000846106b8576106b3848484610c6d565b6106c3565b6106c3848484610d0f565b905060006106d3888a89896109d7565b90508082146106e4576106e46110ba565b505050505050505050565b6000836001600160a01b031611801561071157506000826001600160a01b0316115b61071a57600080fd5b600061054c838584610bf7565b6000846001600160a01b03161161073d57600080fd5b6000836001600160801b03161161075357600080fd5b600061076185858585610d4f565b9050811561078b57846001600160a01b0316816001600160a01b031611156102c1576102c16110ba565b846001600160a01b0316816001600160a01b031610156102e8576102e86110ba565b6000836001600160a01b03161180156107cf57506000826001600160a01b0316115b6107d857600080fd5b600081600f0b136107e857600080fd5b60006107f5848484610bf7565b90506000610804858585610c3e565b9050836001600160a01b0316856001600160a01b03160361083b57811561082d5761082d6110ba565b8015610213576102136110ba565b6000821361084b5761084b6110ba565b60008113610256576102566110ba565b6000836001600160a01b031611801561087d57506000826001600160a01b0316115b61088657600080fd5b60006108958484846000610a97565b90506108a48385846000610a97565b81146108b2576108b26110ba565b60006108c18585856001610a97565b90506103868486856001610a97565b60006108de85858585610e48565b9050811561092457846001600160a01b0316816001600160a01b03161115610908576109086110ba565b6109158186866000610a97565b831115610213576102136110ba565b6000816001600160a01b03161161093d5761093d6110ba565b846001600160a01b0316816001600160a01b0316101561095f5761095f6110ba565b61096c85828660006109d7565b831115610256576102566110ba565b600080856001600160a01b03161161099257600080fd5b6000846001600160801b0316116109a857600080fd5b816109bf576109ba8585856001610b10565b6109cc565b6109cc8585856001610d4f565b90505b949350505050565b6000836001600160a01b0316856001600160a01b031611156109f7579293925b6fffffffffffffffffffffffffffffffff60601b606084901b166001600160a01b038686038116908716610a2a57600080fd5b83610a6057866001600160a01b0316610a4d8383896001600160a01b0316610c6d565b81610a5a57610a5a6110ff565b04610a8c565b610a8c610a778383896001600160a01b0316610d0f565b886001600160a01b0316808204910615150190565b979650505050505050565b6000836001600160a01b0316856001600160a01b03161115610ab7579293925b81610ae6576109ba6001600160801b038416610ad3878761116d565b6001600160a01b0316600160601b610c6d565b6109cc6001600160801b038416610afd878761116d565b6001600160a01b0316600160601b610d0f565b60008115610b825760006001600160a01b03841115610b4657610b4184600160601b876001600160801b0316610c6d565b610b5d565b610b5d6001600160801b038616606086901b6111ab565b9050610b7a610b75826001600160a01b0389166111bf565b610e94565b9150506109cf565b60006001600160a01b03841115610bb057610bab84600160601b876001600160801b0316610d0f565b610bcd565b610bcd606085901b6001600160801b038716808204910615150190565b905080866001600160a01b031611610be457600080fd5b610b7a816001600160a01b0388166110e6565b60008082600f0b12610c1d57610c18610c1385858560016109d7565b610eaf565b610c34565b610c30610c1385858560000360006109d7565b6000035b90505b9392505050565b60008082600f0b12610c5a57610c18610c138585856001610a97565b610c30610c138585856000036000610a97565b60008383028160001985870982811083820303915050808411610c8f57600080fd5b80600003610ca257508290049050610c37565b6000848688096000868103871696879004966002600389028118808a02820302808a02820302808a02820302808a02820302808a02820302808a02909103029181900381900460010186841190950394909402919094039290920491909117919091029150509392505050565b6000610d1c848484610c6d565b905060008280610d2e57610d2e6110ff565b8486091115610c37576000198110610d4557600080fd5b6001019392505050565b600082600003610d605750836109cf565b6fffffffffffffffffffffffffffffffff60601b606085901b168215610dfb576001600160a01b03861684810290858281610d9d57610d9d6110ff565b0403610dcd57818101828110610dcb57610dc183896001600160a01b031683610d0f565b93505050506109cf565b505b50610b7a8185610de66001600160a01b038a16836111ab565b610df091906111bf565b808204910615150190565b6001600160a01b03861684810290858281610e1857610e186110ff565b04148015610e2557508082115b610e2e57600080fd5b808203610dc1610b75846001600160a01b038b1684610d0f565b600080856001600160a01b031611610e5f57600080fd5b6000846001600160801b031611610e7557600080fd5b81610e87576109ba8585856000610d4f565b6109cc8585856000610b10565b806001600160a01b0381168114610eaa57600080fd5b919050565b60007f7fffffffffffffffffffffffffffffffffffffffffffffffffffffffffffffff821115610ede57600080fd5b5090565b80356001600160a01b0381168114610eaa57600080fd5b80356001600160801b0381168114610eaa57600080fd5b80358015158114610eaa57600080fd5b60008060008060808587031215610f3657600080fd5b610f3f85610ee2565b9350610f4d60208601610ef9565b925060408501359150610f6260608601610f10565b905092959194509250565b600080600060608486031215610f8257600080fd5b610f8b84610ee2565b9250610f9960208501610ee2565b9150610fa760408501610ef9565b90509250925092565b8035600f81900b8114610eaa57600080fd5b60008060008060808587031215610fd857600080fd5b610fe185610ee2565b9350610fef60208601610ee2565b9250610ffd60408601610ee2565b9150610f6260608601610fb0565b60008060006060848603121561102057600080fd5b505081359360208301359350604090920135919050565b60008060006060848603121561104c57600080fd5b61105584610ee2565b925061106360208501610ee2565b9150610fa760408501610fb0565b6000806000806080858703121561108757600080fd5b61109085610ee2565b935061109e60208601610ee2565b92506110ac60408601610ef9565b9150610f6260608601610f10565b634e487b7160e01b600052600160045260246000fd5b634e487b7160e01b600052601160045260246000fd5b818103818111156110f9576110f96110d0565b92915050565b634e487b7160e01b600052601260045260246000fd5b6001600160a01b0382811682821681810283169291811582850482141761113e5761113e6110d0565b50505092915050565b60006001600160a01b0380841680611161576111616110ff565b92169190910492915050565b6001600160a01b0382811682821603908082111561118d5761118d6110d0565b5092915050565b80820281158282048414176110f9576110f96110d0565b6000826111ba576111ba6110ff565b500490565b808201808211156110f9576110f96110d056fea2646970667358221220bb14dfa3dcb5b6bf8bb284a36c40a0b79773df8325e68477ae0eafed0ede3d7264736f6c63430008160033",
    "linkReferences": {}
  },
  "methodIdentifiers": {
    "getAmount0DeltaEquivalency(uint160,uint160,uint128,bool)": "8e13a4b9",
    "getAmount0DeltaInvariants(uint160,uint160,uint128)": "3001e65e",
    "getAmount0DeltaSignedInvariants(uint160,uint160,int128)": "b29f199e",
    "getAmount1DeltaInvariants(uint160,uint160,uint128)": "c8569d88",
    "getAmount1DeltaSignedInvariants(uint160,uint160,int128)": "6e6238d7",
    "getInRangeMintInvariants(uint160,uint160,uint160,int128)": "39933d51",
    "getNextSqrtPriceFromAmount0RoundingUpInvariants(uint160,uint128,uint256,bool)": "b46e6714",
    "getNextSqrtPriceFromAmount1RoundingDownInvariants(uint160,uint128,uint256,bool)": "21e14f8b",
    "getNextSqrtPriceFromInputInvariants(uint160,uint128,uint256,bool)": "1faf4a39",
    "getNextSqrtPriceFromOutputInvariants(uint160,uint128,uint256,bool)": "f157fb50",
    "getOutOfRangeMintInvariants(uint160,uint160,int128)": "b712c47c",
    "mulDivRoundingUpInvariants(uint256,uint256,uint256)": "3d729147"
  },
  "id": 72
}