{
  "abi": [
    {
      "stateMutability": "payable",
      "type": "fallback"
    },
    {
      "inputs": [
        {
          "internalType": "bytes32",
          "name": "",
          "type": "bytes32"
        },
        {
          "internalType": "bytes",
          "name": "",
          "type": "bytes"
        }
      ],
      "name": "callParams",
      "outputs": [
        {
          "internalType": "uint256",
          "name": "",
          "type": "uint256"
        }
      ],
      "stateMutability": "view",
      "type": "function"
    },
    {
      "inputs": [
        {
          "internalType": "string",
          "name": "fnSig",
          "type": "string"
        },
        {
          "internalType": "bytes",
          "name": "params",
          "type": "bytes"
        }
      ],
      "name": "calledWith",
      "outputs": [
        {
          "internalType": "bool",
          "name": "",
          "type": "bool"
        }
      ],
      "stateMutability": "view",
      "type": "function"
    },
    {
      "inputs": [
        {
          "internalType": "bytes32",
          "name": "selector",
          "type": "bytes32"
        },
        {
          "internalType": "bytes",
          "name": "params",
          "type": "bytes"
        }
      ],
      "name": "calledWithSelector",
      "outputs": [
        {
          "internalType": "bool",
          "name": "",
          "type": "bool"
        }
      ],
      "stateMutability": "view",
      "type": "function"
    },
    {
      "inputs": [
        {
          "internalType": "bytes32",
          "name": "",
          "type": "bytes32"
        }
      ],
      "name": "calls",
      "outputs": [
        {
          "internalType": "uint256",
          "name": "",
          "type": "uint256"
        }
      ],
      "stateMutability": "view",
      "type": "function"
    },
    {
      "inputs": [
        {
          "internalType": "address",
          "name": "_impl",
          "type": "address"
        }
      ],
      "name": "setImplementation",
      "outputs": [],
      "stateMutability": "nonpayable",
      "type": "function"
    },
    {
      "inputs": [
        {
          "internalType": "string",
          "name": "fnSig",
          "type": "string"
        }
      ],
      "name": "timesCalled",
      "outputs": [
        {
          "internalType": "uint256",
          "name": "",
          "type": "uint256"
        }
      ],
      "stateMutability": "view",
      "type": "function"
    },
    {
      "inputs": [
        {
          "internalType": "bytes32",
          "name": "selector",
          "type": "bytes32"
        }
      ],
      "name": "timesCalledSelector",
      "outputs": [
        {
          "internalType": "uint256",
          "name": "",
          "type": "uint256"
        }
      ],
      "stateMutability": "view",
      "type": "function"
    },
    {
      "stateMutability": "payable",
      "type": "receive"
    }
  ],
  "bytecode": {
    "object": "0x608060405234801561001057600080fd5b5061076e806100206000396000f3fe6080604052600436106100745760003560e01c8063bbd7fc9a1161004e578063bbd7fc9a1461011b578063cff1026514610164578063d784d42614610191578063d80a4077146101f357610083565b80633e43e5e51461008b5780635837e5b7146100be578063891725b1146100eb57610083565b3661008357610081610213565b005b610081610213565b34801561009757600080fd5b506100ab6100a6366004610469565b610244565b6040519081526020015b60405180910390f35b3480156100ca57600080fd5b506100ab6100d93660046104ab565b60009081526020819052604090205490565b3480156100f757600080fd5b5061010b6101063660046104c4565b610283565b60405190151581526020016100b5565b34801561012757600080fd5b506100ab610136366004610546565b6001602090815260009283526040909220815180830184018051928152908401929093019190912091525481565b34801561017057600080fd5b506100ab61017f3660046104ab565b60006020819052908152604090205481565b34801561019d57600080fd5b506100816101ac366004610601565b600280547fffffffffffffffffffffffff00000000000000000000000000000000000000001673ffffffffffffffffffffffffffffffffffffffff92909216919091179055565b3480156101ff57600080fd5b5061010b61020e36600461063e565b6102f5565b61021b61033b565b61024261023d60025473ffffffffffffffffffffffffffffffffffffffff1690565b6103fc565b565b60008060e0600019901b848460405161025e92919061068a565b6040805191829003909120919091166000908152602081905220549150505b92915050565b60008060e0600019901b868660405161029d92919061068a565b604080519182900390912091909116600081815260016020819052928120919350916102cc908690818961069a565b6040516102da92919061068a565b90815260200160405180910390205411915050949350505050565b600083815260016020819052604082208291610314908590818861069a565b60405161032292919061068a565b9081526020016040518091039020541190509392505050565b600061034a600582368161069a565b610353916106c4565b90506000610364366005818461069a565b8080601f01602080910402602001604051908101604052809392919081815260200183838082843760009201829052508681526020819052604081208054959650935091506103b49050836106e2565b90915550506000828152600160205260409081902090516103d6908390610709565b90815260405190819003602001902080549060006103f3836106e2565b91905055505050565b3660008037600080366000845af43d6000803e80801561041b573d6000f35b3d6000fd5b60008083601f84011261043257600080fd5b50813567ffffffffffffffff81111561044a57600080fd5b60208301915083602082850101111561046257600080fd5b9250929050565b6000806020838503121561047c57600080fd5b823567ffffffffffffffff81111561049357600080fd5b61049f85828601610420565b90969095509350505050565b6000602082840312156104bd57600080fd5b5035919050565b600080600080604085870312156104da57600080fd5b843567ffffffffffffffff808211156104f257600080fd5b6104fe88838901610420565b9096509450602087013591508082111561051757600080fd5b5061052487828801610420565b95989497509550505050565b634e487b7160e01b600052604160045260246000fd5b6000806040838503121561055957600080fd5b82359150602083013567ffffffffffffffff8082111561057857600080fd5b818501915085601f83011261058c57600080fd5b81358181111561059e5761059e610530565b604051601f8201601f19908116603f011681019083821181831017156105c6576105c6610530565b816040528281528860208487010111156105df57600080fd5b8260208601602083013760006020848301015280955050505050509250929050565b60006020828403121561061357600080fd5b813573ffffffffffffffffffffffffffffffffffffffff8116811461063757600080fd5b9392505050565b60008060006040848603121561065357600080fd5b83359250602084013567ffffffffffffffff81111561067157600080fd5b61067d86828701610420565b9497909650939450505050565b8183823760009101908152919050565b600080858511156106aa57600080fd5b838611156106b757600080fd5b5050820193919092039150565b8035602083101561027d57600019602084900360031b1b1692915050565b60006001820161070257634e487b7160e01b600052601160045260246000fd5b5060010190565b6000825160005b8181101561072a5760208186018101518583015201610710565b50600092019182525091905056fea26469706673582212202a1889451909ec97c8491afd56637603e346184b2928043d0b941f4a4207fcdf64736f6c63430008160033",
    "linkReferences": {}
  },
  "methodIdentifiers": {
    "callParams(bytes32,bytes)": "bbd7fc9a",
    "calledWith(string,bytes)": "891725b1",
    "calledWithSelector(bytes32,bytes)": "d80a4077",
    "calls(bytes32)": "cff10265",
    "setImplementation(address)": "d784d426",
    "timesCalled(string)": "3e43e5e5",
    "timesCalledSelector(bytes32)": "5837e5b7"
  },
  "id": 63
}