{
  "abi": [
    {
      "inputs": [],
      "name": "InvalidSqrtRatio",
      "type": "error"
    },
    {
      "inputs": [],
      "name": "InvalidTick",
      "type": "error"
    },
    {
      "inputs": [],
      "name": "MAX_SQRT_RATIO",
      "outputs": [
        {
          "internalType": "uint160",
          "name": "",
          "type": "uint160"
        }
      ],
      "stateMutability": "pure",
      "type": "function"
    },
    {
      "inputs": [],
      "name": "MAX_TICK",
      "outputs": [
        {
          "internalType": "int24",
          "name": "",
          "type": "int24"
        }
      ],
      "stateMutability": "pure",
      "type": "function"
    },
    {
      "inputs": [],
      "name": "MIN_SQRT_RATIO",
      "outputs": [
        {
          "internalType": "uint160",
          "name": "",
          "type": "uint160"
        }
      ],
      "stateMutability": "pure",
      "type": "function"
    },
    {
      "inputs": [],
      "name": "MIN_TICK",
      "outputs": [
        {
          "internalType": "int24",
          "name": "",
          "type": "int24"
        }
      ],
      "stateMutability": "pure",
      "type": "function"
    },
    {
      "inputs": [
        {
          "internalType": "int24",
          "name": "tick",
          "type": "int24"
        }
      ],
      "name": "getGasCostOfGetSqrtRatioAtTick",
      "outputs": [
        {
          "internalType": "uint256",
          "name": "",
          "type": "uint256"
        }
      ],
      "stateMutability": "view",
      "type": "function"
    },
    {
      "inputs": [
        {
          "internalType": "uint160",
          "name": "sqrtPriceX96",
          "type": "uint160"
        }
      ],
      "name": "getGasCostOfGetTickAtSqrtRatio",
      "outputs": [
        {
          "internalType": "uint256",
          "name": "",
          "type": "uint256"
        }
      ],
      "stateMutability": "view",
      "type": "function"
    },
    {
      "inputs": [
        {
          "internalType": "int24",
          "name": "tick",
          "type": "int24"
        }
      ],
      "name": "getSqrtRatioAtTick",
      "outputs": [
        {
          "internalType": "uint160",
          "name": "",
          "type": "uint160"
        }
      ],
      "stateMutability": "pure",
      "type": "function"
    },
    {
      "inputs": [
        {
          "internalType": "uint160",
          "name": "sqrtPriceX96",
          "type": "uint160"
        }
      ],
      "name": "getTickAtSqrtRatio",
      "outputs": [
        {
          "internalType": "int24",
          "name": "",
          "type": "int24"
        }
      ],
      "stateMutability": "pure",
      "type": "function"
    }
  ],
  "bytecode": {
    "object": "0x608060405234801561001057600080fd5b506108d6806100206000396000f3fe608060405234801561001057600080fd5b50600436106100885760003560e01c8063a1634b141161005b578063a1634b1414610101578063a7398eb41461010b578063b0622f671461012c578063ee8847ff1461013f57600080fd5b80634f76c0581461008d5780636882a888146100b85780636d2cc304146100c0578063986cfba3146100ee575b600080fd5b6100a061009b3660046107f3565b61014a565b60405160029190910b81526020015b60405180910390f35b6100a061015b565b73fffd8963efd1fc6a506488495d951d5263988d265b6040516001600160a01b0390911681526020016100af565b6100d66100fc36600461081c565b61016f565b620d89e7196100a0565b61011e61011936600461081c565b61017a565b6040519081526020016100af565b61011e61013a3660046107f3565b61019c565b6401000276a36100d6565b6000610155826101a7565b92915050565b600061016a620d89e719610855565b905090565b6000610155826104c3565b6000805a9050610189836104c3565b505a6101959082610877565b9392505050565b6000805a9050610189835b60006401000276a36001600160a01b03831610806101e2575073fffd8963efd1fc6a506488495d951d5263988d266001600160a01b03831610155b156102005760405163015680db60e11b815260040160405180910390fd5b77ffffffffffffffffffffffffffffffffffffffff00000000602083901b166fffffffffffffffffffffffffffffffff811160071b81811c67ffffffffffffffff811160061b90811c63ffffffff811160051b90811c61ffff811160041b90811c60ff8111600390811b91821c600f811160021b90811c918211600190811b92831c979088119617909417909217179091171717608081106102aa57607f810383901c91506102b4565b80607f0383901b91505b908002607f81811c60ff83811c9190911c800280831c81831c1c800280841c81841c1c800280851c81851c1c800280861c81861c1c800280871c81871c1c800280881c81881c1c800280891c81891c1c8002808a1c818a1c1c8002808b1c818b1c1c8002808c1c818c1c1c8002808d1c818d1c1c8002808e1c9c81901c9c909c1c80029c8d901c9e9d607f198f0160401b60c09190911c678000000000000000161760c19b909b1c674000000000000000169a909a1760c29990991c672000000000000000169890981760c39790971c671000000000000000169690961760c49590951c670800000000000000169490941760c59390931c670400000000000000169290921760c69190911c670200000000000000161760c79190911c670100000000000000161760c89190911c6680000000000000161760c99190911c6640000000000000161760ca9190911c6620000000000000161760cb9190911c6610000000000000161760cc9190911c6608000000000000161760cd9190911c66040000000000001617693627a301d71055774c8581026f028f6481ab7f045a5af012a19d003aa9198101608090811d906fdb2df09e81959a81455e260799a0632f8301901d600281810b9083900b146104b457886001600160a01b0316610499826104c3565b6001600160a01b031611156104ae57816104b6565b806104b6565b815b9998505050505050505050565b60008060008360020b126104da578260020b6104e2565b8260020b6000035b9050620d89e8811115610508576040516333a3bdff60e21b815260040160405180910390fd5b60008160011660000361052c5770010000000000000000000000000000000061053e565b6ffffcb933bd6fad37aa2d162d1a5940015b70ffffffffffffffffffffffffffffffffff1690506002821615610572576ffff97272373d413259a46990580e213a0260801c5b6004821615610591576ffff2e50f5f656932ef12357cf3c7fdcc0260801c5b60088216156105b0576fffe5caca7e10e4e61c3624eaa0941cd00260801c5b60108216156105cf576fffcb9843d60f6159c9db58835c9266440260801c5b60208216156105ee576fff973b41fa98c081472e6896dfb254c00260801c5b604082161561060d576fff2ea16466c96a3843ec78b326b528610260801c5b608082161561062c576ffe5dee046a99a2a811c461f1969c30530260801c5b61010082161561064c576ffcbe86c7900a88aedcffc83b479aa3a40260801c5b61020082161561066c576ff987a7253ac413176f2b074cf7815e540260801c5b61040082161561068c576ff3392b0822b70005940c7a398e4b70f30260801c5b6108008216156106ac576fe7159475a2c29b7443b29c7fa6e889d90260801c5b6110008216156106cc576fd097f3bdfd2022b8845ad8f792aa58250260801c5b6120008216156106ec576fa9f746462d870fdf8a65dc1f90e061e50260801c5b61400082161561070c576f70d869a156d2a1b890bb3df62baf32f70260801c5b61800082161561072c576f31be135f97d08fd981231505542fcfa60260801c5b6201000082161561074d576f09aa508b5b7a84e1c677de54f3e99bc90260801c5b6202000082161561076d576e5d6af8dedb81196699c329225ee6040260801c5b6204000082161561078c576d2216e584f5fa1ea926041bedfe980260801c5b620800008216156107a9576b048a170391f7dc42444e8fa20260801c5b60008460020b13156107ca5780600019816107c6576107c661088a565b0490505b6401000000008106156107de5760016107e1565b60005b60ff16602082901c0192505050919050565b60006020828403121561080557600080fd5b81356001600160a01b038116811461019557600080fd5b60006020828403121561082e57600080fd5b81358060020b811461019557600080fd5b634e487b7160e01b600052601160045260246000fd5b60008160020b627fffff19810361086e5761086e61083f565b60000392915050565b818103818111156101555761015561083f565b634e487b7160e01b600052601260045260246000fdfea2646970667358221220940fb90f9a132c8ec14b20c67fd0b1c09a32b250bf4e5c462a22e9507591a69264736f6c63430008160033",
    "linkReferences": {}
  },
  "methodIdentifiers": {
    "MAX_SQRT_RATIO()": "6d2cc304",
    "MAX_TICK()": "6882a888",
    "MIN_SQRT_RATIO()": "ee8847ff",
    "MIN_TICK()": "a1634b14",
    "getGasCostOfGetSqrtRatioAtTick(int24)": "a7398eb4",
    "getGasCostOfGetTickAtSqrtRatio(uint160)": "b0622f67",
    "getSqrtRatioAtTick(int24)": "986cfba3",
    "getTickAtSqrtRatio(uint160)": "4f76c058"
  },
  "id": 77
}