{
  "abi": [
    {
      "inputs": [
        {
          "internalType": "address",
          "name": "",
          "type": "address"
        },
        {
          "components": [
            {
              "internalType": "Currency",
              "name": "currency0",
              "type": "address"
            },
            {
              "internalType": "Currency",
              "name": "currency1",
              "type": "address"
            },
            {
              "internalType": "uint24",
              "name": "fee",
              "type": "uint24"
            },
            {
              "internalType": "int24",
              "name": "tickSpacing",
              "type": "int24"
            },
            {
              "internalType": "contract IHooks",
              "name": "hooks",
              "type": "address"
            }
          ],
          "internalType": "struct PoolKey",
          "name": "",
          "type": "tuple"
        },
        {
          "internalType": "uint256",
          "name": "",
          "type": "uint256"
        },
        {
          "internalType": "uint256",
          "name": "",
          "type": "uint256"
        },
        {
          "internalType": "bytes",
          "name": "hookData",
          "type": "bytes"
        }
      ],
      "name": "afterDonate",
      "outputs": [
        {
          "internalType": "bytes4",
          "name": "",
          "type": "bytes4"
        }
      ],
      "stateMutability": "nonpayable",
      "type": "function"
    },
    {
      "inputs": [],
      "name": "afterDonateData",
      "outputs": [
        {
          "internalType": "bytes",
          "name": "",
          "type": "bytes"
        }
      ],
      "stateMutability": "view",
      "type": "function"
    },
    {
      "inputs": [
        {
          "internalType": "address",
          "name": "",
          "type": "address"
        },
        {
          "components": [
            {
              "internalType": "Currency",
              "name": "currency0",
              "type": "address"
            },
            {
              "internalType": "Currency",
              "name": "currency1",
              "type": "address"
            },
            {
              "internalType": "uint24",
              "name": "fee",
              "type": "uint24"
            },
            {
              "internalType": "int24",
              "name": "tickSpacing",
              "type": "int24"
            },
            {
              "internalType": "contract IHooks",
              "name": "hooks",
              "type": "address"
            }
          ],
          "internalType": "struct PoolKey",
          "name": "",
          "type": "tuple"
        },
        {
          "internalType": "uint160",
          "name": "",
          "type": "uint160"
        },
        {
          "internalType": "int24",
          "name": "",
          "type": "int24"
        },
        {
          "internalType": "bytes",
          "name": "hookData",
          "type": "bytes"
        }
      ],
      "name": "afterInitialize",
      "outputs": [
        {
          "internalType": "bytes4",
          "name": "",
          "type": "bytes4"
        }
      ],
      "stateMutability": "nonpayable",
      "type": "function"
    },
    {
      "inputs": [],
      "name": "afterInitializeData",
      "outputs": [
        {
          "internalType": "bytes",
          "name": "",
          "type": "bytes"
        }
      ],
      "stateMutability": "view",
      "type": "function"
    },
    {
      "inputs": [
        {
          "internalType": "address",
          "name": "",
          "type": "address"
        },
        {
          "components": [
            {
              "internalType": "Currency",
              "name": "currency0",
              "type": "address"
            },
            {
              "internalType": "Currency",
              "name": "currency1",
              "type": "address"
            },
            {
              "internalType": "uint24",
              "name": "fee",
              "type": "uint24"
            },
            {
              "internalType": "int24",
              "name": "tickSpacing",
              "type": "int24"
            },
            {
              "internalType": "contract IHooks",
              "name": "hooks",
              "type": "address"
            }
          ],
          "internalType": "struct PoolKey",
          "name": "",
          "type": "tuple"
        },
        {
          "components": [
            {
              "internalType": "int24",
              "name": "tickLower",
              "type": "int24"
            },
            {
              "internalType": "int24",
              "name": "tickUpper",
              "type": "int24"
            },
            {
              "internalType": "int256",
              "name": "liquidityDelta",
              "type": "int256"
            }
          ],
          "internalType": "struct IPoolManager.ModifyPositionParams",
          "name": "",
          "type": "tuple"
        },
        {
          "internalType": "BalanceDelta",
          "name": "",
          "type": "int256"
        },
        {
          "internalType": "bytes",
          "name": "hookData",
          "type": "bytes"
        }
      ],
      "name": "afterModifyPosition",
      "outputs": [
        {
          "internalType": "bytes4",
          "name": "",
          "type": "bytes4"
        }
      ],
      "stateMutability": "nonpayable",
      "type": "function"
    },
    {
      "inputs": [],
      "name": "afterModifyPositionData",
      "outputs": [
        {
          "internalType": "bytes",
          "name": "",
          "type": "bytes"
        }
      ],
      "stateMutability": "view",
      "type": "function"
    },
    {
      "inputs": [
        {
          "internalType": "address",
          "name": "",
          "type": "address"
        },
        {
          "components": [
            {
              "internalType": "Currency",
              "name": "currency0",
              "type": "address"
            },
            {
              "internalType": "Currency",
              "name": "currency1",
              "type": "address"
            },
            {
              "internalType": "uint24",
              "name": "fee",
              "type": "uint24"
            },
            {
              "internalType": "int24",
              "name": "tickSpacing",
              "type": "int24"
            },
            {
              "internalType": "contract IHooks",
              "name": "hooks",
              "type": "address"
            }
          ],
          "internalType": "struct PoolKey",
          "name": "",
          "type": "tuple"
        },
        {
          "components": [
            {
              "internalType": "bool",
              "name": "zeroForOne",
              "type": "bool"
            },
            {
              "internalType": "int256",
              "name": "amountSpecified",
              "type": "int256"
            },
            {
              "internalType": "uint160",
              "name": "sqrtPriceLimitX96",
              "type": "uint160"
            }
          ],
          "internalType": "struct IPoolManager.SwapParams",
          "name": "",
          "type": "tuple"
        },
        {
          "internalType": "BalanceDelta",
          "name": "",
          "type": "int256"
        },
        {
          "internalType": "bytes",
          "name": "hookData",
          "type": "bytes"
        }
      ],
      "name": "afterSwap",
      "outputs": [
        {
          "internalType": "bytes4",
          "name": "",
          "type": "bytes4"
        }
      ],
      "stateMutability": "nonpayable",
      "type": "function"
    },
    {
      "inputs": [],
      "name": "afterSwapData",
      "outputs": [
        {
          "internalType": "bytes",
          "name": "",
          "type": "bytes"
        }
      ],
      "stateMutability": "view",
      "type": "function"
    },
    {
      "inputs": [
        {
          "internalType": "address",
          "name": "",
          "type": "address"
        },
        {
          "components": [
            {
              "internalType": "Currency",
              "name": "currency0",
              "type": "address"
            },
            {
              "internalType": "Currency",
              "name": "currency1",
              "type": "address"
            },
            {
              "internalType": "uint24",
              "name": "fee",
              "type": "uint24"
            },
            {
              "internalType": "int24",
              "name": "tickSpacing",
              "type": "int24"
            },
            {
              "internalType": "contract IHooks",
              "name": "hooks",
              "type": "address"
            }
          ],
          "internalType": "struct PoolKey",
          "name": "",
          "type": "tuple"
        },
        {
          "internalType": "uint256",
          "name": "",
          "type": "uint256"
        },
        {
          "internalType": "uint256",
          "name": "",
          "type": "uint256"
        },
        {
          "internalType": "bytes",
          "name": "hookData",
          "type": "bytes"
        }
      ],
      "name": "beforeDonate",
      "outputs": [
        {
          "internalType": "bytes4",
          "name": "",
          "type": "bytes4"
        }
      ],
      "stateMutability": "nonpayable",
      "type": "function"
    },
    {
      "inputs": [],
      "name": "beforeDonateData",
      "outputs": [
        {
          "internalType": "bytes",
          "name": "",
          "type": "bytes"
        }
      ],
      "stateMutability": "view",
      "type": "function"
    },
    {
      "inputs": [
        {
          "internalType": "address",
          "name": "",
          "type": "address"
        },
        {
          "components": [
            {
              "internalType": "Currency",
              "name": "currency0",
              "type": "address"
            },
            {
              "internalType": "Currency",
              "name": "currency1",
              "type": "address"
            },
            {
              "internalType": "uint24",
              "name": "fee",
              "type": "uint24"
            },
            {
              "internalType": "int24",
              "name": "tickSpacing",
              "type": "int24"
            },
            {
              "internalType": "contract IHooks",
              "name": "hooks",
              "type": "address"
            }
          ],
          "internalType": "struct PoolKey",
          "name": "",
          "type": "tuple"
        },
        {
          "internalType": "uint160",
          "name": "",
          "type": "uint160"
        },
        {
          "internalType": "bytes",
          "name": "hookData",
          "type": "bytes"
        }
      ],
      "name": "beforeInitialize",
      "outputs": [
        {
          "internalType": "bytes4",
          "name": "",
          "type": "bytes4"
        }
      ],
      "stateMutability": "nonpayable",
      "type": "function"
    },
    {
      "inputs": [],
      "name": "beforeInitializeData",
      "outputs": [
        {
          "internalType": "bytes",
          "name": "",
          "type": "bytes"
        }
      ],
      "stateMutability": "view",
      "type": "function"
    },
    {
      "inputs": [
        {
          "internalType": "address",
          "name": "",
          "type": "address"
        },
        {
          "components": [
            {
              "internalType": "Currency",
              "name": "currency0",
              "type": "address"
            },
            {
              "internalType": "Currency",
              "name": "currency1",
              "type": "address"
            },
            {
              "internalType": "uint24",
              "name": "fee",
              "type": "uint24"
            },
            {
              "internalType": "int24",
              "name": "tickSpacing",
              "type": "int24"
            },
            {
              "internalType": "contract IHooks",
              "name": "hooks",
              "type": "address"
            }
          ],
          "internalType": "struct PoolKey",
          "name": "",
          "type": "tuple"
        },
        {
          "components": [
            {
              "internalType": "int24",
              "name": "tickLower",
              "type": "int24"
            },
            {
              "internalType": "int24",
              "name": "tickUpper",
              "type": "int24"
            },
            {
              "internalType": "int256",
              "name": "liquidityDelta",
              "type": "int256"
            }
          ],
          "internalType": "struct IPoolManager.ModifyPositionParams",
          "name": "",
          "type": "tuple"
        },
        {
          "internalType": "bytes",
          "name": "hookData",
          "type": "bytes"
        }
      ],
      "name": "beforeModifyPosition",
      "outputs": [
        {
          "internalType": "bytes4",
          "name": "",
          "type": "bytes4"
        }
      ],
      "stateMutability": "nonpayable",
      "type": "function"
    },
    {
      "inputs": [],
      "name": "beforeModifyPositionData",
      "outputs": [
        {
          "internalType": "bytes",
          "name": "",
          "type": "bytes"
        }
      ],
      "stateMutability": "view",
      "type": "function"
    },
    {
      "inputs": [
        {
          "internalType": "address",
          "name": "",
          "type": "address"
        },
        {
          "components": [
            {
              "internalType": "Currency",
              "name": "currency0",
              "type": "address"
            },
            {
              "internalType": "Currency",
              "name": "currency1",
              "type": "address"
            },
            {
              "internalType": "uint24",
              "name": "fee",
              "type": "uint24"
            },
            {
              "internalType": "int24",
              "name": "tickSpacing",
              "type": "int24"
            },
            {
              "internalType": "contract IHooks",
              "name": "hooks",
              "type": "address"
            }
          ],
          "internalType": "struct PoolKey",
          "name": "",
          "type": "tuple"
        },
        {
          "components": [
            {
              "internalType": "bool",
              "name": "zeroForOne",
              "type": "bool"
            },
            {
              "internalType": "int256",
              "name": "amountSpecified",
              "type": "int256"
            },
            {
              "internalType": "uint160",
              "name": "sqrtPriceLimitX96",
              "type": "uint160"
            }
          ],
          "internalType": "struct IPoolManager.SwapParams",
          "name": "",
          "type": "tuple"
        },
        {
          "internalType": "bytes",
          "name": "hookData",
          "type": "bytes"
        }
      ],
      "name": "beforeSwap",
      "outputs": [
        {
          "internalType": "bytes4",
          "name": "",
          "type": "bytes4"
        }
      ],
      "stateMutability": "nonpayable",
      "type": "function"
    },
    {
      "inputs": [],
      "name": "beforeSwapData",
      "outputs": [
        {
          "internalType": "bytes",
          "name": "",
          "type": "bytes"
        }
      ],
      "stateMutability": "view",
      "type": "function"
    },
    {
      "inputs": [
        {
          "components": [
            {
              "internalType": "Currency",
              "name": "currency0",
              "type": "address"
            },
            {
              "internalType": "Currency",
              "name": "currency1",
              "type": "address"
            },
            {
              "internalType": "uint24",
              "name": "fee",
              "type": "uint24"
            },
            {
              "internalType": "int24",
              "name": "tickSpacing",
              "type": "int24"
            },
            {
              "internalType": "contract IHooks",
              "name": "hooks",
              "type": "address"
            }
          ],
          "internalType": "struct PoolKey",
          "name": "key",
          "type": "tuple"
        }
      ],
      "name": "getHookFees",
      "outputs": [
        {
          "internalType": "uint24",
          "name": "",
          "type": "uint24"
        }
      ],
      "stateMutability": "view",
      "type": "function"
    },
    {
      "inputs": [
        {
          "internalType": "bytes4",
          "name": "",
          "type": "bytes4"
        }
      ],
      "name": "returnValues",
      "outputs": [
        {
          "internalType": "bytes4",
          "name": "",
          "type": "bytes4"
        }
      ],
      "stateMutability": "view",
      "type": "function"
    },
    {
      "inputs": [
        {
          "internalType": "bytes4",
          "name": "key",
          "type": "bytes4"
        },
        {
          "internalType": "bytes4",
          "name": "value",
          "type": "bytes4"
        }
      ],
      "name": "setReturnValue",
      "outputs": [],
      "stateMutability": "nonpayable",
      "type": "function"
    },
    {
      "inputs": [
        {
          "components": [
            {
              "internalType": "Currency",
              "name": "currency0",
              "type": "address"
            },
            {
              "internalType": "Currency",
              "name": "currency1",
              "type": "address"
            },
            {
              "internalType": "uint24",
              "name": "fee",
              "type": "uint24"
            },
            {
              "internalType": "int24",
              "name": "tickSpacing",
              "type": "int24"
            },
            {
              "internalType": "contract IHooks",
              "name": "hooks",
              "type": "address"
            }
          ],
          "internalType": "struct PoolKey",
          "name": "key",
          "type": "tuple"
        },
        {
          "internalType": "uint16",
          "name": "value",
          "type": "uint16"
        }
      ],
      "name": "setSwapFee",
      "outputs": [],
      "stateMutability": "nonpayable",
      "type": "function"
    },
    {
      "inputs": [
        {
          "components": [
            {
              "internalType": "Currency",
              "name": "currency0",
              "type": "address"
            },
            {
              "internalType": "Currency",
              "name": "currency1",
              "type": "address"
            },
            {
              "internalType": "uint24",
              "name": "fee",
              "type": "uint24"
            },
            {
              "internalType": "int24",
              "name": "tickSpacing",
              "type": "int24"
            },
            {
              "internalType": "contract IHooks",
              "name": "hooks",
              "type": "address"
            }
          ],
          "internalType": "struct PoolKey",
          "name": "key",
          "type": "tuple"
        },
        {
          "internalType": "uint16",
          "name": "value",
          "type": "uint16"
        }
      ],
      "name": "setWithdrawFee",
      "outputs": [],
      "stateMutability": "nonpayable",
      "type": "function"
    },
    {
      "inputs": [
        {
          "internalType": "PoolId",
          "name": "",
          "type": "bytes32"
        }
      ],
      "name": "swapFees",
      "outputs": [
        {
          "internalType": "uint16",
          "name": "",
          "type": "uint16"
        }
      ],
      "stateMutability": "view",
      "type": "function"
    },
    {
      "inputs": [
        {
          "internalType": "PoolId",
          "name": "",
          "type": "bytes32"
        }
      ],
      "name": "withdrawFees",
      "outputs": [
        {
          "internalType": "uint16",
          "name": "",
          "type": "uint16"
        }
      ],
      "stateMutability": "view",
      "type": "function"
    }
  ],
  "bytecode": {
    "object": "0x608060405234801561001057600080fd5b50610ff7806100206000396000f3fe608060405234801561001057600080fd5b506004361061018d5760003560e01c80635ae4ce58116100e3578063b47b2fb11161008c578063ebb7119411610066578063ebb711941461035c578063fc98ded914610380578063fe9a6f451461039357600080fd5b8063b47b2fb114610323578063b6a8b0fa14610336578063e1b4af691461034957600080fd5b8063a2bc94ad116100bd578063a2bc94ad146102e5578063a910f80f14610308578063af57c1841461031b57600080fd5b80635ae4ce58146102ae578063622e60de146102d557806370b28eda146102dd57600080fd5b8063313535d911610145578063542e93691161011f578063542e936914610253578063575e24b41461025b5780635941b5bb1461026e57600080fd5b8063313535d9146102305780633440d8201461023857806350cd07eb1461024b57600080fd5b806322c351f71161017657806322c351f7146101c5578063301754cc146101cd57806330b7cdef1461020457600080fd5b80630a2d5827146101925780631d658968146101b0575b600080fd5b61019a6103a6565b6040516101a791906109b0565b60405180910390f35b6101c36101be366004610a17565b610434565b005b61019a61047c565b6101f16101db366004610a56565b60096020526000908152604090205461ffff1681565b60405161ffff90911681526020016101a7565b610217610212366004610aff565b610489565b6040516001600160e01b031990911681526020016101a7565b61019a61050f565b610217610246366004610b85565b61051c565b61019a6105a0565b61019a6105ad565b610217610269366004610c01565b6105ba565b6101c361027c366004610c78565b6001600160e01b0319919091166000908152600860205260409020805463ffffffff191660e09290921c919091179055565b6102c16102bc366004610cab565b610632565b60405162ffffff90911681526020016101a7565b61019a610697565b61019a6106a4565b6102176102f3366004610cce565b60086020526000908152604090205460e01b81565b610217610316366004610cfb565b6106b1565b61019a610729565b610217610331366004610aff565b610736565b610217610344366004610d6a565b6107ae565b610217610357366004610d6a565b610826565b6101f161036a366004610a56565b600a6020526000908152604090205461ffff1681565b6101c361038e366004610a17565b61089e565b6102176103a1366004610c01565b6108b5565b600180546103b390610dc9565b80601f01602080910402602001604051908101604052809291908181526020018280546103df90610dc9565b801561042c5780601f106104015761010080835404028352916020019161042c565b820191906000526020600020905b81548152906001019060200180831161040f57829003601f168201915b505050505081565b80600a600061045061044b36879003870187610e13565b61092d565b815260200190815260200160002060006101000a81548161ffff021916908361ffff1602179055505050565b600280546103b390610dc9565b60006003610498838583610f00565b506330b7cdef60e01b600081905260086020527f705e3419e5fab285807f7b3d580d9a98f2c8a6015df6ea3fc1d79ff01fac28be5460e01b6001600160e01b03191615610501576001600160e01b0319811660009081526008602052604090205460e01b610503565b805b98975050505050505050565b600380546103b390610dc9565b60008061052a838583610f00565b506301a206c160e51b600081905260086020527f9170e90df5ddffb2cb4db600ca9998e177974b7bd93c4cc0293830a148f5a9ef5460e01b6001600160e01b03191615610593576001600160e01b0319811660009081526008602052604090205460e01b610595565b805b979650505050505050565b600080546103b390610dc9565b600480546103b390610dc9565b600060046105c9838583610f00565b506315d7892d60e21b600081905260086020527f4f21fc91357d14b024182430d6eed318d89bbde7fe9043f8dbe86a2d820a9a545460e01b6001600160e01b03191615610593576001600160e01b0319811660009081526008602052604090205460e01b610595565b6000600a8161064961044b36869003860186610e13565b8152602081019190915260400160009081205461ffff1690600c9060099061067961044b36889003880188610e13565b815260208101919091526040016000205461ffff16901b1792915050565b600580546103b390610dc9565b600780546103b390610dc9565b600060016106c0838583610f00565b5063a910f80f60e01b600081905260086020527fb7ff947fc055ac67b90d5bb196afbd284313cdca6c872cb66af29d4aa73796d15460e01b6001600160e01b03191615610501576001600160e01b0319811660009081526008602052604090205460e01b610503565b600680546103b390610dc9565b60006005610745838583610f00565b5063b47b2fb160e01b600081905260086020527ff08d507d713e96a217f7c055ad2031b18c9ce14dd090912f8f4cbaf8ce31d0755460e01b6001600160e01b03191615610501576001600160e01b0319811660009081526008602052604090205460e01b610503565b600060066107bd838583610f00565b50635b54587d60e11b600081905260086020527f0976efd8d5ea81677b43596a752aea21ab541d3bd6fa841f9c74c3e6a071d92d5460e01b6001600160e01b03191615610501576001600160e01b0319811660009081526008602052604090205460e01b610503565b60006007610835838583610f00565b5063e1b4af6960e01b600081905260086020527ff9a2941952b3aace1081666c6d7cbc6724b818906684e7239c89c5c594814c135460e01b6001600160e01b03191615610501576001600160e01b0319811660009081526008602052604090205460e01b610503565b806009600061045061044b36879003870187610e13565b600060026108c4838583610f00565b5063fe9a6f4560e01b600081905260086020527fb3b1eea848e93f4cdf92dbf81c2dd182067880037b497c59b88b84ec79450b0b5460e01b6001600160e01b03191615610593576001600160e01b0319811660009081526008602052604090205460e01b610595565b6000816040516020016109939190815173ffffffffffffffffffffffffffffffffffffffff908116825260208084015182169083015260408084015162ffffff169083015260608084015160020b90830152608092830151169181019190915260a00190565b604051602081830303815290604052805190602001209050919050565b60006020808352835180602085015260005b818110156109de578581018301518582016040015282016109c2565b506000604082860101526040601f19601f8301168501019250505092915050565b600060a08284031215610a1157600080fd5b50919050565b60008060c08385031215610a2a57600080fd5b610a3484846109ff565b915060a083013561ffff81168114610a4b57600080fd5b809150509250929050565b600060208284031215610a6857600080fd5b5035919050565b73ffffffffffffffffffffffffffffffffffffffff81168114610a9157600080fd5b50565b8035610a9f81610a6f565b919050565b600060608284031215610a1157600080fd5b60008083601f840112610ac857600080fd5b50813567ffffffffffffffff811115610ae057600080fd5b602083019150836020828501011115610af857600080fd5b9250929050565b6000806000806000806101608789031215610b1957600080fd5b8635610b2481610a6f565b9550610b3388602089016109ff565b9450610b428860c08901610aa4565b9350610120870135925061014087013567ffffffffffffffff811115610b6757600080fd5b610b7389828a01610ab6565b979a9699509497509295939492505050565b60008060008060006101008688031215610b9e57600080fd5b8535610ba981610a6f565b9450610bb887602088016109ff565b935060c0860135610bc881610a6f565b925060e086013567ffffffffffffffff811115610be457600080fd5b610bf088828901610ab6565b969995985093965092949392505050565b60008060008060006101408688031215610c1a57600080fd5b8535610c2581610a6f565b9450610c3487602088016109ff565b9350610c438760c08801610aa4565b925061012086013567ffffffffffffffff811115610be457600080fd5b80356001600160e01b031981168114610a9f57600080fd5b60008060408385031215610c8b57600080fd5b610c9483610c60565b9150610ca260208401610c60565b90509250929050565b600060a08284031215610cbd57600080fd5b610cc783836109ff565b9392505050565b600060208284031215610ce057600080fd5b610cc782610c60565b8035600281900b8114610a9f57600080fd5b6000806000806000806101208789031215610d1557600080fd5b8635610d2081610a6f565b9550610d2f88602089016109ff565b945060c0870135610d3f81610a6f565b9350610d4d60e08801610ce9565b925061010087013567ffffffffffffffff811115610b6757600080fd5b6000806000806000806101208789031215610d8457600080fd5b8635610d8f81610a6f565b9550610d9e88602089016109ff565b945060c0870135935060e0870135925061010087013567ffffffffffffffff811115610b6757600080fd5b600181811c90821680610ddd57607f821691505b602082108103610a1157634e487b7160e01b600052602260045260246000fd5b634e487b7160e01b600052604160045260246000fd5b600060a08284031215610e2557600080fd5b60405160a0810181811067ffffffffffffffff82111715610e4857610e48610dfd565b6040528235610e5681610a6f565b81526020830135610e6681610a6f565b6020820152604083013562ffffff81168114610e8157600080fd5b6040820152610e9260608401610ce9565b6060820152610ea360808401610a94565b60808201529392505050565b601f821115610efb576000816000526020600020601f850160051c81016020861015610ed85750805b601f850160051c820191505b81811015610ef757828155600101610ee4565b5050505b505050565b67ffffffffffffffff831115610f1857610f18610dfd565b610f2c83610f268354610dc9565b83610eaf565b6000601f841160018114610f605760008515610f485750838201355b600019600387901b1c1916600186901b178355610fba565b600083815260209020601f19861690835b82811015610f915786850135825560209485019460019092019101610f71565b5086821015610fae5760001960f88860031b161c19848701351681555b505060018560011b0183555b505050505056fea26469706673582212200b19a7ba83cf3c252d43787d7fb751ed04deaf6215b6f0fc9e2adeed7cc07bcf64736f6c63430008160033",
    "linkReferences": {}
  },
  "methodIdentifiers": {
    "afterDonate(address,(address,address,uint24,int24,address),uint256,uint256,bytes)": "e1b4af69",
    "afterDonateData()": "70b28eda",
    "afterInitialize(address,(address,address,uint24,int24,address),uint160,int24,bytes)": "a910f80f",
    "afterInitializeData()": "0a2d5827",
    "afterModifyPosition(address,(address,address,uint24,int24,address),(int24,int24,int256),int256,bytes)": "30b7cdef",
    "afterModifyPositionData()": "313535d9",
    "afterSwap(address,(address,address,uint24,int24,address),(bool,int256,uint160),int256,bytes)": "b47b2fb1",
    "afterSwapData()": "622e60de",
    "beforeDonate(address,(address,address,uint24,int24,address),uint256,uint256,bytes)": "b6a8b0fa",
    "beforeDonateData()": "af57c184",
    "beforeInitialize(address,(address,address,uint24,int24,address),uint160,bytes)": "3440d820",
    "beforeInitializeData()": "50cd07eb",
    "beforeModifyPosition(address,(address,address,uint24,int24,address),(int24,int24,int256),bytes)": "fe9a6f45",
    "beforeModifyPositionData()": "22c351f7",
    "beforeSwap(address,(address,address,uint24,int24,address),(bool,int256,uint160),bytes)": "575e24b4",
    "beforeSwapData()": "542e9369",
    "getHookFees((address,address,uint24,int24,address))": "5ae4ce58",
    "returnValues(bytes4)": "a2bc94ad",
    "setReturnValue(bytes4,bytes4)": "5941b5bb",
    "setSwapFee((address,address,uint24,int24,address),uint16)": "fc98ded9",
    "setWithdrawFee((address,address,uint24,int24,address),uint16)": "1d658968",
    "swapFees(bytes32)": "301754cc",
    "withdrawFees(bytes32)": "ebb71194"
  },
  "id": 64
}