{
  "abi": [
    {
      "inputs": [
        {
          "internalType": "contract IPoolManager",
          "name": "_manager",
          "type": "address"
        }
      ],
      "stateMutability": "nonpayable",
      "type": "constructor"
    },
    {
      "anonymous": false,
      "inputs": [],
      "name": "LockAcquired",
      "type": "event"
    },
    {
      "inputs": [],
      "name": "lock",
      "outputs": [],
      "stateMutability": "nonpayable",
      "type": "function"
    },
    {
      "inputs": [
        {
          "internalType": "bytes",
          "name": "",
          "type": "bytes"
        }
      ],
      "name": "lockAcquired",
      "outputs": [
        {
          "internalType": "bytes",
          "name": "",
          "type": "bytes"
        }
      ],
      "stateMutability": "nonpayable",
      "type": "function"
    }
  ],
  "bytecode": {
    "object": "0x608060405234801561001057600080fd5b5060405161038f38038061038f83398101604081905261002f91610054565b600080546001600160a01b0319166001600160a01b0392909216919091179055610084565b60006020828403121561006657600080fd5b81516001600160a01b038116811461007d57600080fd5b9392505050565b6102fc806100936000396000f3fe608060405234801561001057600080fd5b50600436106100365760003560e01c8063ab6291fe1461003b578063f83d08ba14610064575b600080fd5b61004e61004936600461013a565b61006e565b60405161005b91906101d0565b60405180910390f35b61006c6100b0565b005b6040516060907fe260939dee1382094b440bb7427dd01aac938521902a8cb4eb84e9ddb96d920390600090a15060408051602081019091526000815292915050565b60008054604051638154831960e01b815260206004820152602481019290925273ffffffffffffffffffffffffffffffffffffffff16906381548319906044016000604051808303816000875af115801561010f573d6000803e3d6000fd5b505050506040513d6000823e601f3d908101601f191682016040526101379190810190610219565b50565b6000806020838503121561014d57600080fd5b823567ffffffffffffffff8082111561016557600080fd5b818501915085601f83011261017957600080fd5b81358181111561018857600080fd5b86602082850101111561019a57600080fd5b60209290920196919550909350505050565b60005b838110156101c75781810151838201526020016101af565b50506000910152565b60208152600082518060208401526101ef8160408501602087016101ac565b601f01601f19169190910160400192915050565b634e487b7160e01b600052604160045260246000fd5b60006020828403121561022b57600080fd5b815167ffffffffffffffff8082111561024357600080fd5b818401915084601f83011261025757600080fd5b81518181111561026957610269610203565b604051601f8201601f19908116603f0116810190838211818310171561029157610291610203565b816040528281528760208487010111156102aa57600080fd5b6102bb8360208301602088016101ac565b97965050505050505056fea264697066735822122080bd08f48dc103efe5208c42f413843292274848b923487a47c017738abbe2ea64736f6c63430008160033",
    "linkReferences": {}
  },
  "methodIdentifiers": {
    "lock()": "f83d08ba",
    "lockAcquired(bytes)": "ab6291fe"
  },
  "id": 67
}