{
  "abi": [
    {
      "inputs": [
        {
          "internalType": "contract IPoolManager",
          "name": "_manager",
          "type": "address"
        }
      ],
      "stateMutability": "nonpayable",
      "type": "constructor"
    },
    {
      "inputs": [],
      "name": "ERC20TransferFailed",
      "type": "error"
    },
    {
      "inputs": [],
      "name": "NativeTransferFailed",
      "type": "error"
    },
    {
      "inputs": [
        {
          "internalType": "bytes",
          "name": "rawData",
          "type": "bytes"
        }
      ],
      "name": "lockAcquired",
      "outputs": [
        {
          "internalType": "bytes",
          "name": "",
          "type": "bytes"
        }
      ],
      "stateMutability": "nonpayable",
      "type": "function"
    },
    {
      "inputs": [],
      "name": "manager",
      "outputs": [
        {
          "internalType": "contract IPoolManager",
          "name": "",
          "type": "address"
        }
      ],
      "stateMutability": "view",
      "type": "function"
    },
    {
      "inputs": [
        {
          "components": [
            {
              "internalType": "Currency",
              "name": "currency0",
              "type": "address"
            },
            {
              "internalType": "Currency",
              "name": "currency1",
              "type": "address"
            },
            {
              "internalType": "uint24",
              "name": "fee",
              "type": "uint24"
            },
            {
              "internalType": "int24",
              "name": "tickSpacing",
              "type": "int24"
            },
            {
              "internalType": "contract IHooks",
              "name": "hooks",
              "type": "address"
            }
          ],
          "internalType": "struct PoolKey",
          "name": "key",
          "type": "tuple"
        },
        {
          "components": [
            {
              "internalType": "bool",
              "name": "zeroForOne",
              "type": "bool"
            },
            {
              "internalType": "int256",
              "name": "amountSpecified",
              "type": "int256"
            },
            {
              "internalType": "uint160",
              "name": "sqrtPriceLimitX96",
              "type": "uint160"
            }
          ],
          "internalType": "struct IPoolManager.SwapParams",
          "name": "params",
          "type": "tuple"
        },
        {
          "components": [
            {
              "internalType": "bool",
              "name": "withdrawTokens",
              "type": "bool"
            },
            {
              "internalType": "bool",
              "name": "settleUsingTransfer",
              "type": "bool"
            }
          ],
          "internalType": "struct PoolSwapTest.TestSettings",
          "name": "testSettings",
          "type": "tuple"
        },
        {
          "internalType": "bytes",
          "name": "hookData",
          "type": "bytes"
        }
      ],
      "name": "swap",
      "outputs": [
        {
          "internalType": "BalanceDelta",
          "name": "delta",
          "type": "int256"
        }
      ],
      "stateMutability": "payable",
      "type": "function"
    }
  ],
  "bytecode": {
    "object": "0x60a060405234801561001057600080fd5b5060405161145338038061145383398101604081905261002f91610040565b6001600160a01b0316608052610070565b60006020828403121561005257600080fd5b81516001600160a01b038116811461006957600080fd5b9392505050565b6080516113536101006000396000818160710152818160dc015281816101f9015281816102370152818161031a015281816103f5015281816104c5015281816105360152818161056a01528181610655015281816107090152818161079e0152818161083c0152818161090c0152818161097d015281816109b101528181610a9f0152610ae201526113536000f3fe6080604052600436106100345760003560e01c80632229d0b414610039578063481c6a751461005f578063ab6291fe146100ab575b600080fd5b61004c610047366004610ec0565b6100d8565b6040519081526020015b60405180910390f35b34801561006b57600080fd5b506100937f000000000000000000000000000000000000000000000000000000000000000081565b6040516001600160a01b039091168152602001610056565b3480156100b757600080fd5b506100cb6100c6366004610f35565b6101ec565b6040516100569190610ff7565b60007f00000000000000000000000000000000000000000000000000000000000000006001600160a01b031663815483196040518060a00160405280336001600160a01b03168152602001868152602001888152602001878152602001858152506040516020016101499190611011565b6040516020818303038152906040526040518263ffffffff1660e01b81526004016101749190610ff7565b6000604051808303816000875af1158015610193573d6000803e3d6000fd5b505050506040513d6000823e601f3d908101601f191682016040526101bb91908101906110e6565b8060200190518101906101ce919061115d565b90504780156101e3576101e360003383610bb2565b50949350505050565b6060336001600160a01b037f0000000000000000000000000000000000000000000000000000000000000000161461022357600080fd5b600061023183850185611176565b905060007f00000000000000000000000000000000000000000000000000000000000000006001600160a01b031663f3cd914c8360400151846060015185608001516040518463ffffffff1660e01b81526004016102919392919061122f565b6020604051808303816000875af11580156102b0573d6000803e3d6000fd5b505050506040513d601f19601f820116820180604052508101906102d4919061115d565b606083015151909150156107465760006102ee8260801c90565b600f0b13156106295781602001516020015115610534576040820151516001600160a01b03166103d7577f00000000000000000000000000000000000000000000000000000000000000006001600160a01b0316636a256b296103518360801c90565b6001600160801b03168460400151600001516040518363ffffffff1660e01b815260040161038e91906001600160a01b0391909116815260200190565b60206040518083038185885af11580156103ac573d6000803e3d6000fd5b50505050506040513d601f19601f820116820180604052508101906103d1919061115d565b50610629565b8160400151600001516001600160a01b03166323b872dd83600001517f000000000000000000000000000000000000000000000000000000000000000061041e8560801c90565b6040516001600160e01b031960e086901b1681526001600160a01b0393841660048201529290911660248301526001600160801b031660448201526064016020604051808303816000875af115801561047b573d6000803e3d6000fd5b505050506040513d601f19601f8201168201806040525081019061049f91906112c3565b50604082810151519051636a256b2960e01b81526001600160a01b0391821660048201527f000000000000000000000000000000000000000000000000000000000000000090911690636a256b29906024016020604051808303816000875af1158015610510573d6000803e3d6000fd5b505050506040513d601f19601f820116820180604052508101906103d1919061115d565b7f00000000000000000000000000000000000000000000000000000000000000006001600160a01b031663f242432a83600001517f00000000000000000000000000000000000000000000000000000000000000008560400151600001516001600160a01b03166105a58660801c90565b6040516001600160e01b031960e087901b1681526001600160a01b03948516600482015293909216602484015260448301526001600160801b0316606482015260a06084820152600060a482015260c401600060405180830381600087803b15801561061057600080fd5b505af1158015610624573d6000803e3d6000fd5b505050505b600081600f0b121561074157602082015151156106fc5760408201516020015182516001600160a01b037f00000000000000000000000000000000000000000000000000000000000000001691630b0d9c0991845b610687906112e0565b6040516001600160e01b031960e086901b1681526001600160a01b0393841660048201529290911660248301526001600160801b03166044820152606401600060405180830381600087803b1580156106df57600080fd5b505af11580156106f3573d6000803e3d6000fd5b50505050610b8d565b60408201516020015182517f00000000000000000000000000000000000000000000000000000000000000006001600160a01b03169163c6c3bbe691610687856112e0565b610b8d565b600081600f0b1315610a6d578160200151602001511561097b576040820151602001516001600160a01b031661081e57604080830151602001519051636a256b2960e01b81526001600160a01b0391821660048201527f000000000000000000000000000000000000000000000000000000000000000090911690636a256b29906001600160801b0384169060240160206040518083038185885af11580156107f3573d6000803e3d6000fd5b50505050506040513d601f19601f82011682018060405250810190610818919061115d565b50610a6d565b8160400151602001516001600160a01b03166323b872dd83600001517f00000000000000000000000000000000000000000000000000000000000000006108628590565b6040516001600160e01b031960e086901b1681526001600160a01b0393841660048201529290911660248301526001600160801b031660448201526064016020604051808303816000875af11580156108bf573d6000803e3d6000fd5b505050506040513d601f19601f820116820180604052508101906108e391906112c3565b50604082810151602001519051636a256b2960e01b81526001600160a01b0391821660048201527f000000000000000000000000000000000000000000000000000000000000000090911690636a256b29906024016020604051808303816000875af1158015610957573d6000803e3d6000fd5b505050506040513d601f19601f82011682018060405250810190610818919061115d565b7f00000000000000000000000000000000000000000000000000000000000000006001600160a01b031663f242432a83600001517f00000000000000000000000000000000000000000000000000000000000000008560400151602001516001600160a01b03166109e98690565b6040516001600160e01b031960e087901b1681526001600160a01b03948516600482015293909216602484015260448301526001600160801b0316606482015260a06084820152600060a482015260c401600060405180830381600087803b158015610a5457600080fd5b505af1158015610a68573d6000803e3d6000fd5b505050505b6000610a798260801c90565b600f0b1215610b8d5760208201515115610ad05760408201515182516001600160a01b037f00000000000000000000000000000000000000000000000000000000000000001691630b0d9c099161067e8560801c90565b60408201515182516001600160a01b037f0000000000000000000000000000000000000000000000000000000000000000169163c6c3bbe691610b138560801c90565b610b1c906112e0565b6040516001600160e01b031960e086901b1681526001600160a01b0393841660048201529290911660248301526001600160801b03166044820152606401600060405180830381600087803b158015610b7457600080fd5b505af1158015610b88573d6000803e3d6000fd5b505050505b6040805160208101839052016040516020818303038152906040529250505092915050565b60006001600160a01b038416610bf15760008060008085875af1905080610bec57604051633d2cec6f60e21b815260040160405180910390fd5b610c4c565b60405163a9059cbb60e01b6000528360045282602452602060006044600080895af13d15601f3d1160016000511416171691506000606052806040525080610c4c57604051633c9fd93960e21b815260040160405180910390fd5b50505050565b634e487b7160e01b600052604160045260246000fd5b60405160a0810167ffffffffffffffff81118282101715610c8b57610c8b610c52565b60405290565b604051601f8201601f1916810167ffffffffffffffff81118282101715610cba57610cba610c52565b604052919050565b6001600160a01b0381168114610cd757600080fd5b50565b600060a08284031215610cec57600080fd5b610cf4610c68565b90508135610d0181610cc2565b81526020820135610d1181610cc2565b6020820152604082013562ffffff81168114610d2c57600080fd5b60408201526060820135600281900b8114610d4657600080fd5b60608201526080820135610d5981610cc2565b608082015292915050565b8015158114610cd757600080fd5b600060608284031215610d8457600080fd5b6040516060810181811067ffffffffffffffff82111715610da757610da7610c52565b6040529050808235610db881610d64565b8152602083810135908201526040830135610dd281610cc2565b6040919091015292915050565b600060408284031215610df157600080fd5b6040516040810181811067ffffffffffffffff82111715610e1457610e14610c52565b6040529050808235610e2581610d64565b81526020830135610e3581610d64565b6020919091015292915050565b600067ffffffffffffffff821115610e5c57610e5c610c52565b50601f01601f191660200190565b600082601f830112610e7b57600080fd5b8135610e8e610e8982610e42565b610c91565b818152846020838601011115610ea357600080fd5b816020850160208301376000918101602001919091529392505050565b6000806000806101608587031215610ed757600080fd5b610ee18686610cda565b9350610ef08660a08701610d72565b9250610f00866101008701610ddf565b915061014085013567ffffffffffffffff811115610f1d57600080fd5b610f2987828801610e6a565b91505092959194509250565b60008060208385031215610f4857600080fd5b823567ffffffffffffffff80821115610f6057600080fd5b818501915085601f830112610f7457600080fd5b813581811115610f8357600080fd5b866020828501011115610f9557600080fd5b60209290920196919550909350505050565b60005b83811015610fc2578181015183820152602001610faa565b50506000910152565b60008151808452610fe3816020860160208601610fa7565b601f01601f19169290920160200192915050565b60208152600061100a6020830184610fcb565b9392505050565b602081526001600160a01b0382511660208201526000602083015180511515604084015260208101511515606084015250604083015161109660808401826001600160a01b0380825116835280602083015116602084015262ffffff6040830151166040840152606082015160020b6060840152806080830151166080840152505050565b506060830151805115156101208401526020810151610140840152604001516001600160a01b03166101608301526080830151610180808401526110de6101a0840182610fcb565b949350505050565b6000602082840312156110f857600080fd5b815167ffffffffffffffff81111561110f57600080fd5b8201601f8101841361112057600080fd5b805161112e610e8982610e42565b81815285602083850101111561114357600080fd5b611154826020830160208601610fa7565b95945050505050565b60006020828403121561116f57600080fd5b5051919050565b60006020828403121561118857600080fd5b813567ffffffffffffffff808211156111a057600080fd5b9083019061018082860312156111b557600080fd5b6111bd610c68565b82356111c881610cc2565b81526111d78660208501610ddf565b60208201526111e98660608501610cda565b60408201526111fc866101008501610d72565b60608201526101608301358281111561121457600080fd5b61122087828601610e6a565b60808301525095945050505050565b600061012061128083876001600160a01b0380825116835280602083015116602084015262ffffff6040830151166040840152606082015160020b6060840152806080830151166080840152505050565b8451151560a0840152602085015160c084015260408501516001600160a01b031660e0840152806101008401526112b981840185610fcb565b9695505050505050565b6000602082840312156112d557600080fd5b815161100a81610d64565b600081600f0b6f7fffffffffffffffffffffffffffffff19810361131457634e487b7160e01b600052601160045260246000fd5b6000039291505056fea2646970667358221220cbe4d64deec1784ded2802bc0305da4142e52d981b9b6fbaf58be3f8ea6784eb64736f6c63430008160033",
    "linkReferences": {}
  },
  "methodIdentifiers": {
    "lockAcquired(bytes)": "ab6291fe",
    "manager()": "481c6a75",
    "swap((address,address,uint24,int24,address),(bool,int256,uint160),(bool,bool),bytes)": "2229d0b4"
  },
  "id": 69
}