{
  "abi": [
    {
      "inputs": [],
      "name": "HookNotImplemented",
      "type": "error"
    },
    {
      "inputs": [
        {
          "internalType": "address",
          "name": "",
          "type": "address"
        },
        {
          "components": [
            {
              "internalType": "Currency",
              "name": "currency0",
              "type": "address"
            },
            {
              "internalType": "Currency",
              "name": "currency1",
              "type": "address"
            },
            {
              "internalType": "uint24",
              "name": "fee",
              "type": "uint24"
            },
            {
              "internalType": "int24",
              "name": "tickSpacing",
              "type": "int24"
            },
            {
              "internalType": "contract IHooks",
              "name": "hooks",
              "type": "address"
            }
          ],
          "internalType": "struct PoolKey",
          "name": "",
          "type": "tuple"
        },
        {
          "internalType": "uint256",
          "name": "",
          "type": "uint256"
        },
        {
          "internalType": "uint256",
          "name": "",
          "type": "uint256"
        },
        {
          "internalType": "bytes",
          "name": "",
          "type": "bytes"
        }
      ],
      "name": "afterDonate",
      "outputs": [
        {
          "internalType": "bytes4",
          "name": "",
          "type": "bytes4"
        }
      ],
      "stateMutability": "nonpayable",
      "type": "function"
    },
    {
      "inputs": [
        {
          "internalType": "address",
          "name": "",
          "type": "address"
        },
        {
          "components": [
            {
              "internalType": "Currency",
              "name": "currency0",
              "type": "address"
            },
            {
              "internalType": "Currency",
              "name": "currency1",
              "type": "address"
            },
            {
              "internalType": "uint24",
              "name": "fee",
              "type": "uint24"
            },
            {
              "internalType": "int24",
              "name": "tickSpacing",
              "type": "int24"
            },
            {
              "internalType": "contract IHooks",
              "name": "hooks",
              "type": "address"
            }
          ],
          "internalType": "struct PoolKey",
          "name": "",
          "type": "tuple"
        },
        {
          "internalType": "uint160",
          "name": "",
          "type": "uint160"
        },
        {
          "internalType": "int24",
          "name": "",
          "type": "int24"
        },
        {
          "internalType": "bytes",
          "name": "",
          "type": "bytes"
        }
      ],
      "name": "afterInitialize",
      "outputs": [
        {
          "internalType": "bytes4",
          "name": "",
          "type": "bytes4"
        }
      ],
      "stateMutability": "nonpayable",
      "type": "function"
    },
    {
      "inputs": [
        {
          "internalType": "address",
          "name": "",
          "type": "address"
        },
        {
          "components": [
            {
              "internalType": "Currency",
              "name": "currency0",
              "type": "address"
            },
            {
              "internalType": "Currency",
              "name": "currency1",
              "type": "address"
            },
            {
              "internalType": "uint24",
              "name": "fee",
              "type": "uint24"
            },
            {
              "internalType": "int24",
              "name": "tickSpacing",
              "type": "int24"
            },
            {
              "internalType": "contract IHooks",
              "name": "hooks",
              "type": "address"
            }
          ],
          "internalType": "struct PoolKey",
          "name": "",
          "type": "tuple"
        },
        {
          "components": [
            {
              "internalType": "int24",
              "name": "tickLower",
              "type": "int24"
            },
            {
              "internalType": "int24",
              "name": "tickUpper",
              "type": "int24"
            },
            {
              "internalType": "int256",
              "name": "liquidityDelta",
              "type": "int256"
            }
          ],
          "internalType": "struct IPoolManager.ModifyPositionParams",
          "name": "",
          "type": "tuple"
        },
        {
          "internalType": "BalanceDelta",
          "name": "",
          "type": "int256"
        },
        {
          "internalType": "bytes",
          "name": "",
          "type": "bytes"
        }
      ],
      "name": "afterModifyPosition",
      "outputs": [
        {
          "internalType": "bytes4",
          "name": "",
          "type": "bytes4"
        }
      ],
      "stateMutability": "nonpayable",
      "type": "function"
    },
    {
      "inputs": [
        {
          "internalType": "address",
          "name": "",
          "type": "address"
        },
        {
          "components": [
            {
              "internalType": "Currency",
              "name": "currency0",
              "type": "address"
            },
            {
              "internalType": "Currency",
              "name": "currency1",
              "type": "address"
            },
            {
              "internalType": "uint24",
              "name": "fee",
              "type": "uint24"
            },
            {
              "internalType": "int24",
              "name": "tickSpacing",
              "type": "int24"
            },
            {
              "internalType": "contract IHooks",
              "name": "hooks",
              "type": "address"
            }
          ],
          "internalType": "struct PoolKey",
          "name": "",
          "type": "tuple"
        },
        {
          "components": [
            {
              "internalType": "bool",
              "name": "zeroForOne",
              "type": "bool"
            },
            {
              "internalType": "int256",
              "name": "amountSpecified",
              "type": "int256"
            },
            {
              "internalType": "uint160",
              "name": "sqrtPriceLimitX96",
              "type": "uint160"
            }
          ],
          "internalType": "struct IPoolManager.SwapParams",
          "name": "",
          "type": "tuple"
        },
        {
          "internalType": "BalanceDelta",
          "name": "",
          "type": "int256"
        },
        {
          "internalType": "bytes",
          "name": "",
          "type": "bytes"
        }
      ],
      "name": "afterSwap",
      "outputs": [
        {
          "internalType": "bytes4",
          "name": "",
          "type": "bytes4"
        }
      ],
      "stateMutability": "nonpayable",
      "type": "function"
    },
    {
      "inputs": [
        {
          "internalType": "address",
          "name": "",
          "type": "address"
        },
        {
          "components": [
            {
              "internalType": "Currency",
              "name": "currency0",
              "type": "address"
            },
            {
              "internalType": "Currency",
              "name": "currency1",
              "type": "address"
            },
            {
              "internalType": "uint24",
              "name": "fee",
              "type": "uint24"
            },
            {
              "internalType": "int24",
              "name": "tickSpacing",
              "type": "int24"
            },
            {
              "internalType": "contract IHooks",
              "name": "hooks",
              "type": "address"
            }
          ],
          "internalType": "struct PoolKey",
          "name": "",
          "type": "tuple"
        },
        {
          "internalType": "uint256",
          "name": "",
          "type": "uint256"
        },
        {
          "internalType": "uint256",
          "name": "",
          "type": "uint256"
        },
        {
          "internalType": "bytes",
          "name": "",
          "type": "bytes"
        }
      ],
      "name": "beforeDonate",
      "outputs": [
        {
          "internalType": "bytes4",
          "name": "",
          "type": "bytes4"
        }
      ],
      "stateMutability": "nonpayable",
      "type": "function"
    },
    {
      "inputs": [
        {
          "internalType": "address",
          "name": "",
          "type": "address"
        },
        {
          "components": [
            {
              "internalType": "Currency",
              "name": "currency0",
              "type": "address"
            },
            {
              "internalType": "Currency",
              "name": "currency1",
              "type": "address"
            },
            {
              "internalType": "uint24",
              "name": "fee",
              "type": "uint24"
            },
            {
              "internalType": "int24",
              "name": "tickSpacing",
              "type": "int24"
            },
            {
              "internalType": "contract IHooks",
              "name": "hooks",
              "type": "address"
            }
          ],
          "internalType": "struct PoolKey",
          "name": "",
          "type": "tuple"
        },
        {
          "internalType": "uint160",
          "name": "",
          "type": "uint160"
        },
        {
          "internalType": "bytes",
          "name": "",
          "type": "bytes"
        }
      ],
      "name": "beforeInitialize",
      "outputs": [
        {
          "internalType": "bytes4",
          "name": "",
          "type": "bytes4"
        }
      ],
      "stateMutability": "nonpayable",
      "type": "function"
    },
    {
      "inputs": [
        {
          "internalType": "address",
          "name": "",
          "type": "address"
        },
        {
          "components": [
            {
              "internalType": "Currency",
              "name": "currency0",
              "type": "address"
            },
            {
              "internalType": "Currency",
              "name": "currency1",
              "type": "address"
            },
            {
              "internalType": "uint24",
              "name": "fee",
              "type": "uint24"
            },
            {
              "internalType": "int24",
              "name": "tickSpacing",
              "type": "int24"
            },
            {
              "internalType": "contract IHooks",
              "name": "hooks",
              "type": "address"
            }
          ],
          "internalType": "struct PoolKey",
          "name": "",
          "type": "tuple"
        },
        {
          "components": [
            {
              "internalType": "int24",
              "name": "tickLower",
              "type": "int24"
            },
            {
              "internalType": "int24",
              "name": "tickUpper",
              "type": "int24"
            },
            {
              "internalType": "int256",
              "name": "liquidityDelta",
              "type": "int256"
            }
          ],
          "internalType": "struct IPoolManager.ModifyPositionParams",
          "name": "",
          "type": "tuple"
        },
        {
          "internalType": "bytes",
          "name": "",
          "type": "bytes"
        }
      ],
      "name": "beforeModifyPosition",
      "outputs": [
        {
          "internalType": "bytes4",
          "name": "",
          "type": "bytes4"
        }
      ],
      "stateMutability": "nonpayable",
      "type": "function"
    },
    {
      "inputs": [
        {
          "internalType": "address",
          "name": "",
          "type": "address"
        },
        {
          "components": [
            {
              "internalType": "Currency",
              "name": "currency0",
              "type": "address"
            },
            {
              "internalType": "Currency",
              "name": "currency1",
              "type": "address"
            },
            {
              "internalType": "uint24",
              "name": "fee",
              "type": "uint24"
            },
            {
              "internalType": "int24",
              "name": "tickSpacing",
              "type": "int24"
            },
            {
              "internalType": "contract IHooks",
              "name": "hooks",
              "type": "address"
            }
          ],
          "internalType": "struct PoolKey",
          "name": "",
          "type": "tuple"
        },
        {
          "components": [
            {
              "internalType": "bool",
              "name": "zeroForOne",
              "type": "bool"
            },
            {
              "internalType": "int256",
              "name": "amountSpecified",
              "type": "int256"
            },
            {
              "internalType": "uint160",
              "name": "sqrtPriceLimitX96",
              "type": "uint160"
            }
          ],
          "internalType": "struct IPoolManager.SwapParams",
          "name": "",
          "type": "tuple"
        },
        {
          "internalType": "bytes",
          "name": "",
          "type": "bytes"
        }
      ],
      "name": "beforeSwap",
      "outputs": [
        {
          "internalType": "bytes4",
          "name": "",
          "type": "bytes4"
        }
      ],
      "stateMutability": "nonpayable",
      "type": "function"
    }
  ],
  "bytecode": {
    "object": "0x608060405234801561001057600080fd5b5061042e806100206000396000f3fe608060405234801561001057600080fd5b50600436106100885760003560e01c8063b47b2fb11161005b578063b47b2fb11461008d578063b6a8b0fa146100ff578063e1b4af69146100ff578063fe9a6f45146100e357600080fd5b806330b7cdef1461008d5780633440d820146100d5578063575e24b4146100e3578063a910f80f146100f1575b600080fd5b6100a061009b3660046101c0565b61010d565b6040517fffffffff00000000000000000000000000000000000000000000000000000000909116815260200160405180910390f35b6100a061009b366004610246565b6100a061009b3660046102c2565b6100a061009b366004610321565b6100a061009b366004610399565b6000604051630a85dc2960e01b815260040160405180910390fd5b73ffffffffffffffffffffffffffffffffffffffff8116811461014a57600080fd5b50565b600060a0828403121561015f57600080fd5b50919050565b60006060828403121561015f57600080fd5b60008083601f84011261018957600080fd5b50813567ffffffffffffffff8111156101a157600080fd5b6020830191508360208285010111156101b957600080fd5b9250929050565b60008060008060008061016087890312156101da57600080fd5b86356101e581610128565b95506101f4886020890161014d565b94506102038860c08901610165565b9350610120870135925061014087013567ffffffffffffffff81111561022857600080fd5b61023489828a01610177565b979a9699509497509295939492505050565b6000806000806000610100868803121561025f57600080fd5b853561026a81610128565b9450610279876020880161014d565b935060c086013561028981610128565b925060e086013567ffffffffffffffff8111156102a557600080fd5b6102b188828901610177565b969995985093965092949392505050565b600080600080600061014086880312156102db57600080fd5b85356102e681610128565b94506102f5876020880161014d565b93506103048760c08801610165565b925061012086013567ffffffffffffffff8111156102a557600080fd5b600080600080600080610120878903121561033b57600080fd5b863561034681610128565b9550610355886020890161014d565b945060c087013561036581610128565b935060e0870135600281900b811461037c57600080fd5b925061010087013567ffffffffffffffff81111561022857600080fd5b60008060008060008061012087890312156103b357600080fd5b86356103be81610128565b95506103cd886020890161014d565b945060c0870135935060e0870135925061010087013567ffffffffffffffff81111561022857600080fdfea2646970667358221220f8f929e9ecc56187a5532ba324492f6a123bd67e71a40b5bec044c6885c76c1e64736f6c63430008160033",
    "linkReferences": {}
  },
  "methodIdentifiers": {
    "afterDonate(address,(address,address,uint24,int24,address),uint256,uint256,bytes)": "e1b4af69",
    "afterInitialize(address,(address,address,uint24,int24,address),uint160,int24,bytes)": "a910f80f",
    "afterModifyPosition(address,(address,address,uint24,int24,address),(int24,int24,int256),int256,bytes)": "30b7cdef",
    "afterSwap(address,(address,address,uint24,int24,address),(bool,int256,uint160),int256,bytes)": "b47b2fb1",
    "beforeDonate(address,(address,address,uint24,int24,address),uint256,uint256,bytes)": "b6a8b0fa",
    "beforeInitialize(address,(address,address,uint24,int24,address),uint160,bytes)": "3440d820",
    "beforeModifyPosition(address,(address,address,uint24,int24,address),(int24,int24,int256),bytes)": "fe9a6f45",
    "beforeSwap(address,(address,address,uint24,int24,address),(bool,int256,uint160),bytes)": "575e24b4"
  },
  "id": 58
}