{
  "abi": [
    {
      "inputs": [
        {
          "internalType": "address",
          "name": "hooks",
          "type": "address"
        }
      ],
      "name": "HookAddressNotValid",
      "type": "error"
    },
    {
      "inputs": [
        {
          "internalType": "address",
          "name": "hookAddress",
          "type": "address"
        }
      ],
      "name": "getGasCostOfShouldCall",
      "outputs": [
        {
          "internalType": "uint256",
          "name": "",
          "type": "uint256"
        }
      ],
      "stateMutability": "view",
      "type": "function"
    },
    {
      "inputs": [
        {
          "internalType": "address",
          "name": "hookAddress",
          "type": "address"
        },
        {
          "components": [
            {
              "internalType": "bool",
              "name": "beforeInitialize",
              "type": "bool"
            },
            {
              "internalType": "bool",
              "name": "afterInitialize",
              "type": "bool"
            },
            {
              "internalType": "bool",
              "name": "beforeModifyPosition",
              "type": "bool"
            },
            {
              "internalType": "bool",
              "name": "afterModifyPosition",
              "type": "bool"
            },
            {
              "internalType": "bool",
              "name": "beforeSwap",
              "type": "bool"
            },
            {
              "internalType": "bool",
              "name": "afterSwap",
              "type": "bool"
            },
            {
              "internalType": "bool",
              "name": "beforeDonate",
              "type": "bool"
            },
            {
              "internalType": "bool",
              "name": "afterDonate",
              "type": "bool"
            }
          ],
          "internalType": "struct Hooks.Calls",
          "name": "params",
          "type": "tuple"
        }
      ],
      "name": "getGasCostOfValidateHookAddress",
      "outputs": [
        {
          "internalType": "uint256",
          "name": "",
          "type": "uint256"
        }
      ],
      "stateMutability": "view",
      "type": "function"
    },
    {
      "inputs": [
        {
          "internalType": "address",
          "name": "hookAddress",
          "type": "address"
        },
        {
          "internalType": "uint24",
          "name": "fee",
          "type": "uint24"
        }
      ],
      "name": "isValidHookAddress",
      "outputs": [
        {
          "internalType": "bool",
          "name": "",
          "type": "bool"
        }
      ],
      "stateMutability": "pure",
      "type": "function"
    },
    {
      "inputs": [
        {
          "internalType": "address",
          "name": "hookAddress",
          "type": "address"
        }
      ],
      "name": "shouldCallAfterDonate",
      "outputs": [
        {
          "internalType": "bool",
          "name": "",
          "type": "bool"
        }
      ],
      "stateMutability": "pure",
      "type": "function"
    },
    {
      "inputs": [
        {
          "internalType": "address",
          "name": "hookAddress",
          "type": "address"
        }
      ],
      "name": "shouldCallAfterInitialize",
      "outputs": [
        {
          "internalType": "bool",
          "name": "",
          "type": "bool"
        }
      ],
      "stateMutability": "pure",
      "type": "function"
    },
    {
      "inputs": [
        {
          "internalType": "address",
          "name": "hookAddress",
          "type": "address"
        }
      ],
      "name": "shouldCallAfterModifyPosition",
      "outputs": [
        {
          "internalType": "bool",
          "name": "",
          "type": "bool"
        }
      ],
      "stateMutability": "pure",
      "type": "function"
    },
    {
      "inputs": [
        {
          "internalType": "address",
          "name": "hookAddress",
          "type": "address"
        }
      ],
      "name": "shouldCallAfterSwap",
      "outputs": [
        {
          "internalType": "bool",
          "name": "",
          "type": "bool"
        }
      ],
      "stateMutability": "pure",
      "type": "function"
    },
    {
      "inputs": [
        {
          "internalType": "address",
          "name": "hookAddress",
          "type": "address"
        }
      ],
      "name": "shouldCallBeforeDonate",
      "outputs": [
        {
          "internalType": "bool",
          "name": "",
          "type": "bool"
        }
      ],
      "stateMutability": "pure",
      "type": "function"
    },
    {
      "inputs": [
        {
          "internalType": "address",
          "name": "hookAddress",
          "type": "address"
        }
      ],
      "name": "shouldCallBeforeInitialize",
      "outputs": [
        {
          "internalType": "bool",
          "name": "",
          "type": "bool"
        }
      ],
      "stateMutability": "pure",
      "type": "function"
    },
    {
      "inputs": [
        {
          "internalType": "address",
          "name": "hookAddress",
          "type": "address"
        }
      ],
      "name": "shouldCallBeforeModifyPosition",
      "outputs": [
        {
          "internalType": "bool",
          "name": "",
          "type": "bool"
        }
      ],
      "stateMutability": "pure",
      "type": "function"
    },
    {
      "inputs": [
        {
          "internalType": "address",
          "name": "hookAddress",
          "type": "address"
        }
      ],
      "name": "shouldCallBeforeSwap",
      "outputs": [
        {
          "internalType": "bool",
          "name": "",
          "type": "bool"
        }
      ],
      "stateMutability": "pure",
      "type": "function"
    },
    {
      "inputs": [
        {
          "internalType": "address",
          "name": "hookAddress",
          "type": "address"
        },
        {
          "components": [
            {
              "internalType": "bool",
              "name": "beforeInitialize",
              "type": "bool"
            },
            {
              "internalType": "bool",
              "name": "afterInitialize",
              "type": "bool"
            },
            {
              "internalType": "bool",
              "name": "beforeModifyPosition",
              "type": "bool"
            },
            {
              "internalType": "bool",
              "name": "afterModifyPosition",
              "type": "bool"
            },
            {
              "internalType": "bool",
              "name": "beforeSwap",
              "type": "bool"
            },
            {
              "internalType": "bool",
              "name": "afterSwap",
              "type": "bool"
            },
            {
              "internalType": "bool",
              "name": "beforeDonate",
              "type": "bool"
            },
            {
              "internalType": "bool",
              "name": "afterDonate",
              "type": "bool"
            }
          ],
          "internalType": "struct Hooks.Calls",
          "name": "params",
          "type": "tuple"
        }
      ],
      "name": "validateHookAddress",
      "outputs": [],
      "stateMutability": "pure",
      "type": "function"
    }
  ],
  "bytecode": {
    "object": "0x608060405234801561001057600080fd5b5061064f806100206000396000f3fe608060405234801561001057600080fd5b50600436106100d45760003560e01c8063baecba0111610081578063db1961431161005b578063db196143146101a9578063ddf28096146101bc578063e440a6fc146101cf57600080fd5b8063baecba0114610162578063c444948f14610175578063c93db47b1461019657600080fd5b8063667e6680116100b2578063667e66801461012957806369d748271461013c578063802d8a151461014f57600080fd5b80632edde064146100d9578063322b7a2a146101015780635b2e147214610116575b600080fd5b6100ec6100e736600461047a565b6101e2565b60405190151581526020015b60405180910390f35b61011461010f366004610495565b6101f4565b005b6100ec61012436600461047a565b61021a565b6100ec61013736600461047a565b61022a565b6100ec61014a36600461047a565b61023a565b6100ec61015d3660046104d6565b61024a565b6100ec61017036600461047a565b610266565b61018861018336600461047a565b610276565b6040519081526020016100f8565b6100ec6101a436600461047a565b610287565b6100ec6101b736600461047a565b610297565b6100ec6101ca36600461047a565b6102a7565b6101886101dd366004610495565b6102b7565b60006001609f1b821615155b92915050565b61021661020636839003830183610525565b6001600160a01b038416906102f2565b5050565b60006001609c1b821615156101ee565b60006001609d1b821615156101ee565b60006001609b1b821615156101ee565b600061025f6001600160a01b038416836103dd565b9392505050565b60006001609a1b821615156101ee565b6000805a90505a61025f90826105f8565b6000600160991b821615156101ee565b60006001609e1b821615156101ee565b6000600160981b821615156101ee565b6000805a90506102df6102cf36859003850185610525565b6001600160a01b038616906102f2565b5a6102ea90826105f8565b949350505050565b805115156001609f1b8316151514158061031a5750602081015115156001609e1b8316151514155b806103335750604081015115156001609d1b8316151514155b8061034c5750606081015115156001609c1b8316151514155b806103655750608081015115156001609b1b8316151514155b8061037e575060a081015115156001609a1b8316151514155b80610397575060c08101511515600160991b8316151514155b806103b0575060e08101511515600160981b8316151514155b1561021657604051630732d7b560e51b81526001600160a01b038316600482015260240160405180910390fd5b60006001600160a01b0383161561043557600160981b836001600160a01b031610158061040e575062800000821615155b8061041d575062400000821615155b806104305750622000008216151561025f565b61025f565b62800000821615801561044b5750624000008216155b801561025f575050622000001615919050565b80356001600160a01b038116811461047557600080fd5b919050565b60006020828403121561048c57600080fd5b61025f8261045e565b6000808284036101208112156104aa57600080fd5b6104b38461045e565b9250610100601f19820112156104c857600080fd5b506020830190509250929050565b600080604083850312156104e957600080fd5b6104f28361045e565b9150602083013562ffffff8116811461050a57600080fd5b809150509250929050565b8035801515811461047557600080fd5b600061010080838503121561053957600080fd5b6040519081019067ffffffffffffffff8211818310171561056a57634e487b7160e01b600052604160045260246000fd5b8160405261057784610515565b815261058560208501610515565b602082015261059660408501610515565b60408201526105a760608501610515565b60608201526105b860808501610515565b60808201526105c960a08501610515565b60a08201526105da60c08501610515565b60c08201526105eb60e08501610515565b60e0820152949350505050565b818103818111156101ee57634e487b7160e01b600052601160045260246000fdfea2646970667358221220e5d3ba3dc5984dd40509b365a5daeeab48d92ffb2b20aba2f477e7c816e603fd64736f6c63430008160033",
    "linkReferences": {}
  },
  "methodIdentifiers": {
    "getGasCostOfShouldCall(address)": "c444948f",
    "getGasCostOfValidateHookAddress(address,(bool,bool,bool,bool,bool,bool,bool,bool))": "e440a6fc",
    "isValidHookAddress(address,uint24)": "802d8a15",
    "shouldCallAfterDonate(address)": "ddf28096",
    "shouldCallAfterInitialize(address)": "db196143",
    "shouldCallAfterModifyPosition(address)": "5b2e1472",
    "shouldCallAfterSwap(address)": "baecba01",
    "shouldCallBeforeDonate(address)": "c93db47b",
    "shouldCallBeforeInitialize(address)": "2edde064",
    "shouldCallBeforeModifyPosition(address)": "667e6680",
    "shouldCallBeforeSwap(address)": "69d74827",
    "validateHookAddress(address,(bool,bool,bool,bool,bool,bool,bool,bool))": "322b7a2a"
  },
  "id": 62
}