{
  "abi": [
    {
      "inputs": [],
      "stateMutability": "nonpayable",
      "type": "constructor"
    },
    {
      "inputs": [
        {
          "internalType": "address",
          "name": "hooks",
          "type": "address"
        }
      ],
      "name": "HookAddressNotValid",
      "type": "error"
    },
    {
      "inputs": [
        {
          "internalType": "address",
          "name": "",
          "type": "address"
        },
        {
          "components": [
            {
              "internalType": "Currency",
              "name": "currency0",
              "type": "address"
            },
            {
              "internalType": "Currency",
              "name": "currency1",
              "type": "address"
            },
            {
              "internalType": "uint24",
              "name": "fee",
              "type": "uint24"
            },
            {
              "internalType": "int24",
              "name": "tickSpacing",
              "type": "int24"
            },
            {
              "internalType": "contract IHooks",
              "name": "hooks",
              "type": "address"
            }
          ],
          "internalType": "struct PoolKey",
          "name": "",
          "type": "tuple"
        },
        {
          "internalType": "uint256",
          "name": "",
          "type": "uint256"
        },
        {
          "internalType": "uint256",
          "name": "",
          "type": "uint256"
        },
        {
          "internalType": "bytes",
          "name": "",
          "type": "bytes"
        }
      ],
      "name": "afterDonate",
      "outputs": [
        {
          "internalType": "bytes4",
          "name": "",
          "type": "bytes4"
        }
      ],
      "stateMutability": "pure",
      "type": "function"
    },
    {
      "inputs": [
        {
          "internalType": "address",
          "name": "",
          "type": "address"
        },
        {
          "components": [
            {
              "internalType": "Currency",
              "name": "currency0",
              "type": "address"
            },
            {
              "internalType": "Currency",
              "name": "currency1",
              "type": "address"
            },
            {
              "internalType": "uint24",
              "name": "fee",
              "type": "uint24"
            },
            {
              "internalType": "int24",
              "name": "tickSpacing",
              "type": "int24"
            },
            {
              "internalType": "contract IHooks",
              "name": "hooks",
              "type": "address"
            }
          ],
          "internalType": "struct PoolKey",
          "name": "",
          "type": "tuple"
        },
        {
          "internalType": "uint160",
          "name": "",
          "type": "uint160"
        },
        {
          "internalType": "int24",
          "name": "",
          "type": "int24"
        },
        {
          "internalType": "bytes",
          "name": "",
          "type": "bytes"
        }
      ],
      "name": "afterInitialize",
      "outputs": [
        {
          "internalType": "bytes4",
          "name": "",
          "type": "bytes4"
        }
      ],
      "stateMutability": "pure",
      "type": "function"
    },
    {
      "inputs": [
        {
          "internalType": "address",
          "name": "",
          "type": "address"
        },
        {
          "components": [
            {
              "internalType": "Currency",
              "name": "currency0",
              "type": "address"
            },
            {
              "internalType": "Currency",
              "name": "currency1",
              "type": "address"
            },
            {
              "internalType": "uint24",
              "name": "fee",
              "type": "uint24"
            },
            {
              "internalType": "int24",
              "name": "tickSpacing",
              "type": "int24"
            },
            {
              "internalType": "contract IHooks",
              "name": "hooks",
              "type": "address"
            }
          ],
          "internalType": "struct PoolKey",
          "name": "",
          "type": "tuple"
        },
        {
          "components": [
            {
              "internalType": "int24",
              "name": "tickLower",
              "type": "int24"
            },
            {
              "internalType": "int24",
              "name": "tickUpper",
              "type": "int24"
            },
            {
              "internalType": "int256",
              "name": "liquidityDelta",
              "type": "int256"
            }
          ],
          "internalType": "struct IPoolManager.ModifyPositionParams",
          "name": "",
          "type": "tuple"
        },
        {
          "internalType": "BalanceDelta",
          "name": "",
          "type": "int256"
        },
        {
          "internalType": "bytes",
          "name": "",
          "type": "bytes"
        }
      ],
      "name": "afterModifyPosition",
      "outputs": [
        {
          "internalType": "bytes4",
          "name": "",
          "type": "bytes4"
        }
      ],
      "stateMutability": "pure",
      "type": "function"
    },
    {
      "inputs": [
        {
          "internalType": "address",
          "name": "",
          "type": "address"
        },
        {
          "components": [
            {
              "internalType": "Currency",
              "name": "currency0",
              "type": "address"
            },
            {
              "internalType": "Currency",
              "name": "currency1",
              "type": "address"
            },
            {
              "internalType": "uint24",
              "name": "fee",
              "type": "uint24"
            },
            {
              "internalType": "int24",
              "name": "tickSpacing",
              "type": "int24"
            },
            {
              "internalType": "contract IHooks",
              "name": "hooks",
              "type": "address"
            }
          ],
          "internalType": "struct PoolKey",
          "name": "",
          "type": "tuple"
        },
        {
          "components": [
            {
              "internalType": "bool",
              "name": "zeroForOne",
              "type": "bool"
            },
            {
              "internalType": "int256",
              "name": "amountSpecified",
              "type": "int256"
            },
            {
              "internalType": "uint160",
              "name": "sqrtPriceLimitX96",
              "type": "uint160"
            }
          ],
          "internalType": "struct IPoolManager.SwapParams",
          "name": "",
          "type": "tuple"
        },
        {
          "internalType": "BalanceDelta",
          "name": "",
          "type": "int256"
        },
        {
          "internalType": "bytes",
          "name": "",
          "type": "bytes"
        }
      ],
      "name": "afterSwap",
      "outputs": [
        {
          "internalType": "bytes4",
          "name": "",
          "type": "bytes4"
        }
      ],
      "stateMutability": "pure",
      "type": "function"
    },
    {
      "inputs": [
        {
          "internalType": "address",
          "name": "",
          "type": "address"
        },
        {
          "components": [
            {
              "internalType": "Currency",
              "name": "currency0",
              "type": "address"
            },
            {
              "internalType": "Currency",
              "name": "currency1",
              "type": "address"
            },
            {
              "internalType": "uint24",
              "name": "fee",
              "type": "uint24"
            },
            {
              "internalType": "int24",
              "name": "tickSpacing",
              "type": "int24"
            },
            {
              "internalType": "contract IHooks",
              "name": "hooks",
              "type": "address"
            }
          ],
          "internalType": "struct PoolKey",
          "name": "",
          "type": "tuple"
        },
        {
          "internalType": "uint256",
          "name": "",
          "type": "uint256"
        },
        {
          "internalType": "uint256",
          "name": "",
          "type": "uint256"
        },
        {
          "internalType": "bytes",
          "name": "",
          "type": "bytes"
        }
      ],
      "name": "beforeDonate",
      "outputs": [
        {
          "internalType": "bytes4",
          "name": "",
          "type": "bytes4"
        }
      ],
      "stateMutability": "pure",
      "type": "function"
    },
    {
      "inputs": [
        {
          "internalType": "address",
          "name": "",
          "type": "address"
        },
        {
          "components": [
            {
              "internalType": "Currency",
              "name": "currency0",
              "type": "address"
            },
            {
              "internalType": "Currency",
              "name": "currency1",
              "type": "address"
            },
            {
              "internalType": "uint24",
              "name": "fee",
              "type": "uint24"
            },
            {
              "internalType": "int24",
              "name": "tickSpacing",
              "type": "int24"
            },
            {
              "internalType": "contract IHooks",
              "name": "hooks",
              "type": "address"
            }
          ],
          "internalType": "struct PoolKey",
          "name": "",
          "type": "tuple"
        },
        {
          "internalType": "uint160",
          "name": "",
          "type": "uint160"
        },
        {
          "internalType": "bytes",
          "name": "",
          "type": "bytes"
        }
      ],
      "name": "beforeInitialize",
      "outputs": [
        {
          "internalType": "bytes4",
          "name": "",
          "type": "bytes4"
        }
      ],
      "stateMutability": "pure",
      "type": "function"
    },
    {
      "inputs": [
        {
          "internalType": "address",
          "name": "",
          "type": "address"
        },
        {
          "components": [
            {
              "internalType": "Currency",
              "name": "currency0",
              "type": "address"
            },
            {
              "internalType": "Currency",
              "name": "currency1",
              "type": "address"
            },
            {
              "internalType": "uint24",
              "name": "fee",
              "type": "uint24"
            },
            {
              "internalType": "int24",
              "name": "tickSpacing",
              "type": "int24"
            },
            {
              "internalType": "contract IHooks",
              "name": "hooks",
              "type": "address"
            }
          ],
          "internalType": "struct PoolKey",
          "name": "",
          "type": "tuple"
        },
        {
          "components": [
            {
              "internalType": "int24",
              "name": "tickLower",
              "type": "int24"
            },
            {
              "internalType": "int24",
              "name": "tickUpper",
              "type": "int24"
            },
            {
              "internalType": "int256",
              "name": "liquidityDelta",
              "type": "int256"
            }
          ],
          "internalType": "struct IPoolManager.ModifyPositionParams",
          "name": "",
          "type": "tuple"
        },
        {
          "internalType": "bytes",
          "name": "",
          "type": "bytes"
        }
      ],
      "name": "beforeModifyPosition",
      "outputs": [
        {
          "internalType": "bytes4",
          "name": "",
          "type": "bytes4"
        }
      ],
      "stateMutability": "pure",
      "type": "function"
    },
    {
      "inputs": [
        {
          "internalType": "address",
          "name": "",
          "type": "address"
        },
        {
          "components": [
            {
              "internalType": "Currency",
              "name": "currency0",
              "type": "address"
            },
            {
              "internalType": "Currency",
              "name": "currency1",
              "type": "address"
            },
            {
              "internalType": "uint24",
              "name": "fee",
              "type": "uint24"
            },
            {
              "internalType": "int24",
              "name": "tickSpacing",
              "type": "int24"
            },
            {
              "internalType": "contract IHooks",
              "name": "hooks",
              "type": "address"
            }
          ],
          "internalType": "struct PoolKey",
          "name": "",
          "type": "tuple"
        },
        {
          "components": [
            {
              "internalType": "bool",
              "name": "zeroForOne",
              "type": "bool"
            },
            {
              "internalType": "int256",
              "name": "amountSpecified",
              "type": "int256"
            },
            {
              "internalType": "uint160",
              "name": "sqrtPriceLimitX96",
              "type": "uint160"
            }
          ],
          "internalType": "struct IPoolManager.SwapParams",
          "name": "",
          "type": "tuple"
        },
        {
          "internalType": "bytes",
          "name": "",
          "type": "bytes"
        }
      ],
      "name": "beforeSwap",
      "outputs": [
        {
          "internalType": "bytes4",
          "name": "",
          "type": "bytes4"
        }
      ],
      "stateMutability": "pure",
      "type": "function"
    }
  ],
  "bytecode": {
    "object": "0x608060405234801561001057600080fd5b506040805161010081018252600180825260208201819052918101829052606081018290526080810182905260a0810182905260c0810182905260e081019190915261005d903090610062565b610151565b805115156001609f1b8316151514158061008a5750602081015115156001609e1b8316151514155b806100a35750604081015115156001609d1b8316151514155b806100bc5750606081015115156001609c1b8316151514155b806100d55750608081015115156001609b1b8316151514155b806100ee575060a081015115156001609a1b8316151514155b80610107575060c08101511515600160991b8316151514155b80610120575060e08101511515600160981b8316151514155b1561014d57604051630732d7b560e51b81526001600160a01b038316600482015260240160405180910390fd5b5050565b6104c5806101606000396000f3fe608060405234801561001057600080fd5b50600436106100885760003560e01c8063b47b2fb11161005b578063b47b2fb114610140578063b6a8b0fa14610160578063e1b4af6914610180578063fe9a6f45146101a057600080fd5b806330b7cdef1461008d5780633440d820146100e2578063575e24b414610101578063a910f80f14610120575b600080fd5b6100ad61009b366004610257565b6330b7cdef60e01b9695505050505050565b6040517fffffffff00000000000000000000000000000000000000000000000000000000909116815260200160405180910390f35b6100ad6100f03660046102dd565b6301a206c160e51b95945050505050565b6100ad61010f366004610359565b6315d7892d60e21b95945050505050565b6100ad61012e3660046103b8565b63a910f80f60e01b9695505050505050565b6100ad61014e366004610257565b63b47b2fb160e01b9695505050505050565b6100ad61016e366004610430565b635b54587d60e11b9695505050505050565b6100ad61018e366004610430565b63e1b4af6960e01b9695505050505050565b6100ad6101ae366004610359565b63fe9a6f4560e01b95945050505050565b73ffffffffffffffffffffffffffffffffffffffff811681146101e157600080fd5b50565b600060a082840312156101f657600080fd5b50919050565b6000606082840312156101f657600080fd5b60008083601f84011261022057600080fd5b50813567ffffffffffffffff81111561023857600080fd5b60208301915083602082850101111561025057600080fd5b9250929050565b600080600080600080610160878903121561027157600080fd5b863561027c816101bf565b955061028b88602089016101e4565b945061029a8860c089016101fc565b9350610120870135925061014087013567ffffffffffffffff8111156102bf57600080fd5b6102cb89828a0161020e565b979a9699509497509295939492505050565b600080600080600061010086880312156102f657600080fd5b8535610301816101bf565b945061031087602088016101e4565b935060c0860135610320816101bf565b925060e086013567ffffffffffffffff81111561033c57600080fd5b6103488882890161020e565b969995985093965092949392505050565b6000806000806000610140868803121561037257600080fd5b853561037d816101bf565b945061038c87602088016101e4565b935061039b8760c088016101fc565b925061012086013567ffffffffffffffff81111561033c57600080fd5b60008060008060008061012087890312156103d257600080fd5b86356103dd816101bf565b95506103ec88602089016101e4565b945060c08701356103fc816101bf565b935060e0870135600281900b811461041357600080fd5b925061010087013567ffffffffffffffff8111156102bf57600080fd5b600080600080600080610120878903121561044a57600080fd5b8635610455816101bf565b955061046488602089016101e4565b945060c0870135935060e0870135925061010087013567ffffffffffffffff8111156102bf57600080fdfea26469706673582212200b92c6cb5e8ac6f41588d23ec784bdb8a08a4391fd64502af7d7afe33ae013be64736f6c63430008160033",
    "linkReferences": {}
  },
  "methodIdentifiers": {
    "afterDonate(address,(address,address,uint24,int24,address),uint256,uint256,bytes)": "e1b4af69",
    "afterInitialize(address,(address,address,uint24,int24,address),uint160,int24,bytes)": "a910f80f",
    "afterModifyPosition(address,(address,address,uint24,int24,address),(int24,int24,int256),int256,bytes)": "30b7cdef",
    "afterSwap(address,(address,address,uint24,int24,address),(bool,int256,uint160),int256,bytes)": "b47b2fb1",
    "beforeDonate(address,(address,address,uint24,int24,address),uint256,uint256,bytes)": "b6a8b0fa",
    "beforeInitialize(address,(address,address,uint24,int24,address),uint160,bytes)": "3440d820",
    "beforeModifyPosition(address,(address,address,uint24,int24,address),(int24,int24,int256),bytes)": "fe9a6f45",
    "beforeSwap(address,(address,address,uint24,int24,address),(bool,int256,uint160),bytes)": "575e24b4"
  },
  "id": 61
}