{
  "abi": [
    {
      "inputs": [],
      "name": "ERC20TransferFailed",
      "type": "error"
    },
    {
      "inputs": [],
      "name": "NativeTransferFailed",
      "type": "error"
    },
    {
      "inputs": [],
      "name": "NATIVE",
      "outputs": [
        {
          "internalType": "Currency",
          "name": "",
          "type": "address"
        }
      ],
      "stateMutability": "view",
      "type": "function"
    }
  ],
  "bytecode": {
    "object": "0x609e610038600b82828239805160001a607314602b57634e487b7160e01b600052600060045260246000fd5b30600052607381538281f3fe730000000000000000000000000000000000000000301460806040526004361060335760003560e01c8063a0cf0aea146038575b600080fd5b603f600081565b60405173ffffffffffffffffffffffffffffffffffffffff909116815260200160405180910390f3fea264697066735822122043f8f54effc4a0f50302664730394567cb0a08e3a4d14e23fe11e84ed3f39d8164736f6c63430008160033",
    "linkReferences": {}
  },
  "methodIdentifiers": {
    "NATIVE()": "a0cf0aea"
  },
  "id": 81
}