{
  "abi": [
    {
      "inputs": [
        {
          "internalType": "uint256",
          "name": "x",
          "type": "uint256"
        },
        {
          "internalType": "uint256",
          "name": "d",
          "type": "uint256"
        }
      ],
      "name": "checkDivRoundingUp",
      "outputs": [],
      "stateMutability": "pure",
      "type": "function"
    }
  ],
  "bytecode": {
    "object": "0x608060405234801561001057600080fd5b50610180806100206000396000f3fe608060405234801561001057600080fd5b506004361061002b5760003560e01c80632724da4e14610030575b600080fd5b61004361003e3660046100ad565b610045565b005b6000811161005257600080fd5b808204818306151501600061006783856100e5565b61007190836100f9565b905061007d8385610120565b60000361009757801561009257610092610134565b6100a7565b806001146100a7576100a7610134565b50505050565b600080604083850312156100c057600080fd5b50508035926020909101359150565b634e487b7160e01b600052601260045260246000fd5b6000826100f4576100f46100cf565b500490565b8181038181111561011a57634e487b7160e01b600052601160045260246000fd5b92915050565b60008261012f5761012f6100cf565b500690565b634e487b7160e01b600052600160045260246000fdfea2646970667358221220260843a83e4db1009ffe0e6cc7619ec42692c0c272b1428e6d26f4ea0db33d3164736f6c63430008160033",
    "linkReferences": {}
  },
  "methodIdentifiers": {
    "checkDivRoundingUp(uint256,uint256)": "2724da4e"
  },
  "id": 79
}