{
  "abi": [
    {
      "inputs": [
        {
          "internalType": "contract IPoolManager",
          "name": "_manager",
          "type": "address"
        }
      ],
      "stateMutability": "nonpayable",
      "type": "constructor"
    },
    {
      "inputs": [
        {
          "internalType": "bytes",
          "name": "rawData",
          "type": "bytes"
        }
      ],
      "name": "lockAcquired",
      "outputs": [
        {
          "internalType": "bytes",
          "name": "",
          "type": "bytes"
        }
      ],
      "stateMutability": "nonpayable",
      "type": "function"
    },
    {
      "inputs": [],
      "name": "manager",
      "outputs": [
        {
          "internalType": "contract IPoolManager",
          "name": "",
          "type": "address"
        }
      ],
      "stateMutability": "view",
      "type": "function"
    },
    {
      "inputs": [
        {
          "components": [
            {
              "internalType": "Currency",
              "name": "currency0",
              "type": "address"
            },
            {
              "internalType": "Currency",
              "name": "currency1",
              "type": "address"
            },
            {
              "internalType": "uint24",
              "name": "fee",
              "type": "uint24"
            },
            {
              "internalType": "int24",
              "name": "tickSpacing",
              "type": "int24"
            },
            {
              "internalType": "contract IHooks",
              "name": "hooks",
              "type": "address"
            }
          ],
          "internalType": "struct PoolKey",
          "name": "key",
          "type": "tuple"
        },
        {
          "internalType": "uint256",
          "name": "amount0",
          "type": "uint256"
        },
        {
          "internalType": "uint256",
          "name": "amount1",
          "type": "uint256"
        }
      ],
      "name": "take",
      "outputs": [],
      "stateMutability": "payable",
      "type": "function"
    }
  ],
  "bytecode": {
    "object": "0x60a060405234801561001057600080fd5b50604051610d4a380380610d4a83398101604081905261002f91610040565b6001600160a01b0316608052610070565b60006020828403121561005257600080fd5b81516001600160a01b038116811461006957600080fd5b9392505050565b608051610c7a6100d06000396000818160600152818161014d015281816101ff0152818161029e0152818161037101528181610413015281816104b6015281816105920152818161066b0152818161070e01526107b30152610c7a6000f3fe6080604052600436106100345760003560e01c8063055419b614610039578063481c6a751461004e578063ab6291fe1461009f575b600080fd5b61004c6100473660046109c4565b6100cc565b005b34801561005a57600080fd5b506100827f000000000000000000000000000000000000000000000000000000000000000081565b6040516001600160a01b0390911681526020015b60405180910390f35b3480156100ab57600080fd5b506100bf6100ba3660046109f8565b6101f2565b6040516100969190610a8e565b60408051608080820183523380835260208084018881528486018881526060958601888152875180850195909552915180516001600160a01b03908116868a0152938101518416858801529687015162ffffff16848601529486015160020b60a08401529490920151821660c0820152915160e083015291516101008201527f000000000000000000000000000000000000000000000000000000000000000090911690638154831990610120016040516020818303038152906040526040518263ffffffff1660e01b81526004016101a59190610a8e565b6000604051808303816000875af11580156101c4573d6000803e3d6000fd5b505050506040513d6000823e601f3d908101601f191682016040526101ec9190810190610ac1565b50505050565b6060336001600160a01b037f0000000000000000000000000000000000000000000000000000000000000000161461022957600080fd5b600061023783850185610b6e565b60408101519091501561052a578051602082015151600091610262916001600160a01b03169061084c565b60208301515183516040808601519051630b0d9c0960e01b81526001600160a01b039384166004820152918316602483015260448201529192507f00000000000000000000000000000000000000000000000000000000000000001690630b0d9c0990606401600060405180830381600087803b1580156102e257600080fd5b505af11580156102f6573d6000803e3d6000fd5b505083516020850151516000935061031892506001600160a01b03169061084c565b604084015190915061032a8383610be1565b1461033457600080fd5b6020830151516001600160a01b03166103e7576040838101516020850151519151636a256b2960e01b81526001600160a01b0392831660048201527f000000000000000000000000000000000000000000000000000000000000000090921691636a256b29919060240160206040518083038185885af11580156103bc573d6000803e3d6000fd5b50505050506040513d601f19601f820116820180604052508101906103e19190610c02565b50610527565b602083015151835160408086015190516323b872dd60e01b81526001600160a01b0392831660048201527f00000000000000000000000000000000000000000000000000000000000000008316602482015260448101919091529116906323b872dd906064016020604051808303816000875af115801561046c573d6000803e3d6000fd5b505050506040513d601f19601f820116820180604052508101906104909190610c1b565b50602083015151604051636a256b2960e01b81526001600160a01b0391821660048201527f000000000000000000000000000000000000000000000000000000000000000090911690636a256b29906024016020604051808303816000875af1158015610501573d6000803e3d6000fd5b505050506040513d601f19601f820116820180604052508101906105259190610c02565b505b50505b6060810151156108275780516020808301510151600091610554916001600160a01b03169061084c565b602083810151015183516060850151604051630b0d9c0960e01b81526001600160a01b039384166004820152918316602483015260448201529192507f00000000000000000000000000000000000000000000000000000000000000001690630b0d9c0990606401600060405180830381600087803b1580156105d657600080fd5b505af11580156105ea573d6000803e3d6000fd5b5050835160208086015101516000935061060e92506001600160a01b03169061084c565b60608401519091506106208383610be1565b1461062a57600080fd5b60208084015101516001600160a01b03166106e05760608301516020808501510151604051636a256b2960e01b81526001600160a01b0391821660048201527f000000000000000000000000000000000000000000000000000000000000000090911691636a256b299160240160206040518083038185885af11580156106b5573d6000803e3d6000fd5b50505050506040513d601f19601f820116820180604052508101906106da9190610c02565b50610824565b6020838101510151835160608501516040516323b872dd60e01b81526001600160a01b0392831660048201527f00000000000000000000000000000000000000000000000000000000000000008316602482015260448101919091529116906323b872dd906064016020604051808303816000875af1158015610767573d6000803e3d6000fd5b505050506040513d601f19601f8201168201806040525081019061078b9190610c1b565b506020838101510151604051636a256b2960e01b81526001600160a01b0391821660048201527f000000000000000000000000000000000000000000000000000000000000000090911690636a256b29906024016020604051808303816000875af11580156107fe573d6000803e3d6000fd5b505050506040513d601f19601f820116820180604052508101906108229190610c02565b505b50505b6040805160006020820152016040516020818303038152906040529150505b92915050565b60006001600160a01b03831661086d57506001600160a01b03811631610846565b6040516370a0823160e01b81526001600160a01b0383811660048301528416906370a0823190602401602060405180830381865afa1580156108b3573d6000803e3d6000fd5b505050506040513d601f19601f820116820180604052508101906108d79190610c02565b9050610846565b634e487b7160e01b600052604160045260246000fd5b6001600160a01b038116811461090957600080fd5b50565b8035610917816108f4565b919050565b600060a0828403121561092e57600080fd5b60405160a0810181811067ffffffffffffffff82111715610951576109516108de565b6040529050808235610962816108f4565b81526020830135610972816108f4565b6020820152604083013562ffffff8116811461098d57600080fd5b60408201526060830135600281900b81146109a757600080fd5b60608201526109b86080840161090c565b60808201525092915050565b600080600060e084860312156109d957600080fd5b6109e3858561091c565b9560a0850135955060c0909401359392505050565b60008060208385031215610a0b57600080fd5b823567ffffffffffffffff80821115610a2357600080fd5b818501915085601f830112610a3757600080fd5b813581811115610a4657600080fd5b866020828501011115610a5857600080fd5b60209290920196919550909350505050565b60005b83811015610a85578181015183820152602001610a6d565b50506000910152565b6020815260008251806020840152610aad816040850160208701610a6a565b601f01601f19169190910160400192915050565b600060208284031215610ad357600080fd5b815167ffffffffffffffff80821115610aeb57600080fd5b818401915084601f830112610aff57600080fd5b815181811115610b1157610b116108de565b604051601f8201601f19908116603f01168101908382118183101715610b3957610b396108de565b81604052828152876020848701011115610b5257600080fd5b610b63836020830160208801610a6a565b979650505050505050565b60006101008284031215610b8157600080fd5b6040516080810181811067ffffffffffffffff82111715610ba457610ba46108de565b6040528235610bb2816108f4565b8152610bc1846020850161091c565b602082015260c0830135604082015260e090920135606083015250919050565b8181038181111561084657634e487b7160e01b600052601160045260246000fd5b600060208284031215610c1457600080fd5b5051919050565b600060208284031215610c2d57600080fd5b81518015158114610c3d57600080fd5b939250505056fea26469706673582212206ab96eaeb5f546ad16247587c010f241f8cfbae43667210c21e1674802f0405f64736f6c63430008160033",
    "linkReferences": {}
  },
  "methodIdentifiers": {
    "lockAcquired(bytes)": "ab6291fe",
    "manager()": "481c6a75",
    "take((address,address,uint24,int24,address),uint256,uint256)": "055419b6"
  },
  "id": 70
}