{
  "abi": [
    {
      "inputs": [
        {
          "internalType": "contract IPoolManager",
          "name": "_manager",
          "type": "address"
        }
      ],
      "stateMutability": "nonpayable",
      "type": "constructor"
    },
    {
      "inputs": [],
      "name": "ERC20TransferFailed",
      "type": "error"
    },
    {
      "inputs": [],
      "name": "NativeTransferFailed",
      "type": "error"
    },
    {
      "inputs": [
        {
          "components": [
            {
              "internalType": "Currency",
              "name": "currency0",
              "type": "address"
            },
            {
              "internalType": "Currency",
              "name": "currency1",
              "type": "address"
            },
            {
              "internalType": "uint24",
              "name": "fee",
              "type": "uint24"
            },
            {
              "internalType": "int24",
              "name": "tickSpacing",
              "type": "int24"
            },
            {
              "internalType": "contract IHooks",
              "name": "hooks",
              "type": "address"
            }
          ],
          "internalType": "struct PoolKey",
          "name": "key",
          "type": "tuple"
        },
        {
          "internalType": "uint256",
          "name": "amount0",
          "type": "uint256"
        },
        {
          "internalType": "uint256",
          "name": "amount1",
          "type": "uint256"
        },
        {
          "internalType": "bytes",
          "name": "hookData",
          "type": "bytes"
        }
      ],
      "name": "donate",
      "outputs": [
        {
          "internalType": "BalanceDelta",
          "name": "delta",
          "type": "int256"
        }
      ],
      "stateMutability": "payable",
      "type": "function"
    },
    {
      "inputs": [
        {
          "internalType": "bytes",
          "name": "rawData",
          "type": "bytes"
        }
      ],
      "name": "lockAcquired",
      "outputs": [
        {
          "internalType": "bytes",
          "name": "",
          "type": "bytes"
        }
      ],
      "stateMutability": "nonpayable",
      "type": "function"
    },
    {
      "inputs": [],
      "name": "manager",
      "outputs": [
        {
          "internalType": "contract IPoolManager",
          "name": "",
          "type": "address"
        }
      ],
      "stateMutability": "view",
      "type": "function"
    }
  ],
  "bytecode": {
    "object": "0x60a060405234801561001057600080fd5b50604051610e71380380610e7183398101604081905261002f91610040565b6001600160a01b0316608052610070565b60006020828403121561005257600080fd5b81516001600160a01b038116811461006957600080fd5b9392505050565b608051610da96100c86000396000818160710152818160dc015281816101f90152818161023701528181610306015281816103e7015281816104c0015281816105790152818161062001526106f80152610da96000f3fe6080604052600436106100345760003560e01c8063234266d714610039578063481c6a751461005f578063ab6291fe146100ab575b600080fd5b61004c6100473660046109be565b6100d8565b6040519081526020015b60405180910390f35b34801561006b57600080fd5b506100937f000000000000000000000000000000000000000000000000000000000000000081565b6040516001600160a01b039091168152602001610056565b3480156100b757600080fd5b506100cb6100c6366004610a21565b6101ec565b6040516100569190610ae3565b60007f00000000000000000000000000000000000000000000000000000000000000006001600160a01b031663815483196040518060a00160405280336001600160a01b03168152602001888152602001878152602001868152602001858152506040516020016101499190610afd565b6040516020818303038152906040526040518263ffffffff1660e01b81526004016101749190610ae3565b6000604051808303816000875af1158015610193573d6000803e3d6000fd5b505050506040513d6000823e601f3d908101601f191682016040526101bb9190810190610b9f565b8060200190518101906101ce9190610c16565b90504780156101e3576101e36000338361078e565b50949350505050565b6060336001600160a01b037f0000000000000000000000000000000000000000000000000000000000000000161461022357600080fd5b600061023183850185610c2f565b905060007f00000000000000000000000000000000000000000000000000000000000000006001600160a01b031663234266d783602001518460400151856060015186608001516040518563ffffffff1660e01b81526004016102979493929190610cd7565b6020604051808303816000875af11580156102b6573d6000803e3d6000fd5b505050506040513d601f19601f820116820180604052508101906102da9190610c16565b905060006102e88260801c90565b600f0b1315610531576020820151516001600160a01b03166103c9577f00000000000000000000000000000000000000000000000000000000000000006001600160a01b0316636a256b2961033d8360801c90565b6020850151516040516001600160e01b031960e085901b1681526001600160a01b0390911660048201526fffffffffffffffffffffffffffffffff919091169060240160206040518083038185885af115801561039e573d6000803e3d6000fd5b50505050506040513d601f19601f820116820180604052508101906103c39190610c16565b50610531565b8160200151600001516001600160a01b03166323b872dd83600001517f00000000000000000000000000000000000000000000000000000000000000006104108560801c90565b6040516001600160e01b031960e086901b1681526001600160a01b0393841660048201529290911660248301526fffffffffffffffffffffffffffffffff1660448201526064016020604051808303816000875af1158015610476573d6000803e3d6000fd5b505050506040513d601f19601f8201168201806040525081019061049a9190610d51565b50602082015151604051636a256b2960e01b81526001600160a01b0391821660048201527f000000000000000000000000000000000000000000000000000000000000000090911690636a256b29906024016020604051808303816000875af115801561050b573d6000803e3d6000fd5b505050506040513d601f19601f8201168201806040525081019061052f9190610c16565b505b600081600f0b13156107695760208083015101516001600160a01b0316610602576020808301510151604051636a256b2960e01b81526001600160a01b0391821660048201527f000000000000000000000000000000000000000000000000000000000000000090911690636a256b29906fffffffffffffffffffffffffffffffff84169060240160206040518083038185885af11580156105d7573d6000803e3d6000fd5b50505050506040513d601f19601f820116820180604052508101906105fc9190610c16565b50610769565b8160200151602001516001600160a01b03166323b872dd83600001517f00000000000000000000000000000000000000000000000000000000000000006106468590565b6040516001600160e01b031960e086901b1681526001600160a01b0393841660048201529290911660248301526fffffffffffffffffffffffffffffffff1660448201526064016020604051808303816000875af11580156106ac573d6000803e3d6000fd5b505050506040513d601f19601f820116820180604052508101906106d09190610d51565b506020828101510151604051636a256b2960e01b81526001600160a01b0391821660048201527f000000000000000000000000000000000000000000000000000000000000000090911690636a256b29906024016020604051808303816000875af1158015610743573d6000803e3d6000fd5b505050506040513d601f19601f820116820180604052508101906107679190610c16565b505b6040805160208101839052016040516020818303038152906040529250505092915050565b60006001600160a01b0384166107cd5760008060008085875af19050806107c857604051633d2cec6f60e21b815260040160405180910390fd5b610828565b60405163a9059cbb60e01b6000528360045282602452602060006044600080895af13d15601f3d116001600051141617169150600060605280604052508061082857604051633c9fd93960e21b815260040160405180910390fd5b50505050565b634e487b7160e01b600052604160045260246000fd5b60405160a0810167ffffffffffffffff811182821017156108675761086761082e565b60405290565b604051601f8201601f1916810167ffffffffffffffff811182821017156108965761089661082e565b604052919050565b6001600160a01b03811681146108b357600080fd5b50565b600060a082840312156108c857600080fd5b6108d0610844565b905081356108dd8161089e565b815260208201356108ed8161089e565b6020820152604082013562ffffff8116811461090857600080fd5b60408201526060820135600281900b811461092257600080fd5b606082015260808201356109358161089e565b608082015292915050565b600067ffffffffffffffff82111561095a5761095a61082e565b50601f01601f191660200190565b600082601f83011261097957600080fd5b813561098c61098782610940565b61086d565b8181528460208386010111156109a157600080fd5b816020850160208301376000918101602001919091529392505050565b60008060008061010085870312156109d557600080fd5b6109df86866108b6565b935060a0850135925060c0850135915060e085013567ffffffffffffffff811115610a0957600080fd5b610a1587828801610968565b91505092959194509250565b60008060208385031215610a3457600080fd5b823567ffffffffffffffff80821115610a4c57600080fd5b818501915085601f830112610a6057600080fd5b813581811115610a6f57600080fd5b866020828501011115610a8157600080fd5b60209290920196919550909350505050565b60005b83811015610aae578181015183820152602001610a96565b50506000910152565b60008151808452610acf816020860160208601610a93565b601f01601f19169290920160200192915050565b602081526000610af66020830184610ab7565b9392505050565b602081526001600160a01b03825116602082015260006020830151610b6760408401826001600160a01b0380825116835280602083015116602084015262ffffff6040830151166040840152606082015160020b6060840152806080830151166080840152505050565b50604083015160e08301526060830151610100830152608083015161012080840152610b97610140840182610ab7565b949350505050565b600060208284031215610bb157600080fd5b815167ffffffffffffffff811115610bc857600080fd5b8201601f81018413610bd957600080fd5b8051610be761098782610940565b818152856020838501011115610bfc57600080fd5b610c0d826020830160208601610a93565b95945050505050565b600060208284031215610c2857600080fd5b5051919050565b600060208284031215610c4157600080fd5b813567ffffffffffffffff80821115610c5957600080fd5b908301906101208286031215610c6e57600080fd5b610c76610844565b8235610c818161089e565b8152610c9086602085016108b6565b602082015260c0830135604082015260e0830135606082015261010083013582811115610cbc57600080fd5b610cc887828601610968565b60808301525095945050505050565b6000610100610d2883886001600160a01b0380825116835280602083015116602084015262ffffff6040830151166040840152606082015160020b6060840152806080830151166080840152505050565b8560a08401528460c08401528060e0840152610d4681840185610ab7565b979650505050505050565b600060208284031215610d6357600080fd5b81518015158114610af657600080fdfea2646970667358221220d48d0c5e434a1fcc175276a5fa227b94f54911eda183ab1bef2a55cb09ebf37964736f6c63430008160033",
    "linkReferences": {}
  },
  "methodIdentifiers": {
    "donate((address,address,uint24,int24,address),uint256,uint256,bytes)": "234266d7",
    "lockAcquired(bytes)": "ab6291fe",
    "manager()": "481c6a75"
  },
  "id": 66
}