{
  "abi": [
    {
      "inputs": [
        {
          "internalType": "uint256",
          "name": "input",
          "type": "uint256"
        }
      ],
      "name": "leastSignificantBitInvariant",
      "outputs": [],
      "stateMutability": "pure",
      "type": "function"
    },
    {
      "inputs": [
        {
          "internalType": "uint256",
          "name": "input",
          "type": "uint256"
        }
      ],
      "name": "mostSignificantBitInvariant",
      "outputs": [],
      "stateMutability": "pure",
      "type": "function"
    }
  ],
  "bytecode": {
    "object": "0x608060405234801561001057600080fd5b506102f5806100206000396000f3fe608060405234801561001057600080fd5b50600436106100365760003560e01c80632d711e0c1461003b578063f94ac90e14610050575b600080fd5b61004e610049366004610290565b610063565b005b61004e61005e366004610290565b6100a6565b600061006e826100ef565b90508060ff1660020a8216600003610088576100886102a9565b60001960ff821660020a018216156100a2576100a26102a9565b5050565b60006100b1826101e3565b90508060ff1660020a8210156100c9576100c96102a9565b8060ff1660ff14806100e357508060010160ff1660020a82105b6100a2576100a26102a9565b60008082116100fd57600080fd5b5060ff6fffffffffffffffffffffffffffffffff82161561012157607f1901610129565b608082901c91505b67ffffffffffffffff82161561014257603f190161014a565b604082901c91505b63ffffffff82161561015f57601f1901610167565b602082901c91505b61ffff82161561017a57600f1901610182565b601082901c91505b60ff821615610194576007190161019c565b600882901c91505b600f8216156101ae57600319016101b6565b600482901c91505b60038216156101c857600119016101d0565b600282901c91505b60018216156101de57600019015b919050565b60008082116101f157600080fd5b700100000000000000000000000000000000821061021157608091821c91015b68010000000000000000821061022957604091821c91015b640100000000821061023d57602091821c91015b62010000821061024f57601091821c91015b610100821061026057600891821c91015b6010821061027057600491821c91015b6004821061028057600291821c91015b600282106101de57600101919050565b6000602082840312156102a257600080fd5b5035919050565b634e487b7160e01b600052600160045260246000fdfea264697066735822122069e81a5027ad7b8fc470120b96834b2c47848aec608c7e0facbd883e7b7234ce64736f6c63430008160033",
    "linkReferences": {}
  },
  "methodIdentifiers": {
    "leastSignificantBitInvariant(uint256)": "2d711e0c",
    "mostSignificantBitInvariant(uint256)": "f94ac90e"
  },
  "id": 59
}