{
  "abi": [
    {
      "inputs": [
        {
          "internalType": "uint256",
          "name": "amountToMint",
          "type": "uint256"
        }
      ],
      "stateMutability": "nonpayable",
      "type": "constructor"
    },
    {
      "anonymous": false,
      "inputs": [
        {
          "indexed": true,
          "internalType": "address",
          "name": "owner",
          "type": "address"
        },
        {
          "indexed": true,
          "internalType": "address",
          "name": "spender",
          "type": "address"
        },
        {
          "indexed": false,
          "internalType": "uint256",
          "name": "value",
          "type": "uint256"
        }
      ],
      "name": "Approval",
      "type": "event"
    },
    {
      "anonymous": false,
      "inputs": [
        {
          "indexed": true,
          "internalType": "address",
          "name": "from",
          "type": "address"
        },
        {
          "indexed": true,
          "internalType": "address",
          "name": "to",
          "type": "address"
        },
        {
          "indexed": false,
          "internalType": "uint256",
          "name": "value",
          "type": "uint256"
        }
      ],
      "name": "Transfer",
      "type": "event"
    },
    {
      "inputs": [
        {
          "internalType": "address",
          "name": "",
          "type": "address"
        },
        {
          "internalType": "address",
          "name": "",
          "type": "address"
        }
      ],
      "name": "allowance",
      "outputs": [
        {
          "internalType": "uint256",
          "name": "",
          "type": "uint256"
        }
      ],
      "stateMutability": "view",
      "type": "function"
    },
    {
      "inputs": [
        {
          "internalType": "address",
          "name": "spender",
          "type": "address"
        },
        {
          "internalType": "uint256",
          "name": "amount",
          "type": "uint256"
        }
      ],
      "name": "approve",
      "outputs": [
        {
          "internalType": "bool",
          "name": "",
          "type": "bool"
        }
      ],
      "stateMutability": "nonpayable",
      "type": "function"
    },
    {
      "inputs": [
        {
          "internalType": "address",
          "name": "",
          "type": "address"
        }
      ],
      "name": "balanceOf",
      "outputs": [
        {
          "internalType": "uint256",
          "name": "",
          "type": "uint256"
        }
      ],
      "stateMutability": "view",
      "type": "function"
    },
    {
      "inputs": [
        {
          "internalType": "address",
          "name": "to",
          "type": "address"
        },
        {
          "internalType": "uint256",
          "name": "amount",
          "type": "uint256"
        }
      ],
      "name": "mint",
      "outputs": [],
      "stateMutability": "nonpayable",
      "type": "function"
    },
    {
      "inputs": [
        {
          "internalType": "address",
          "name": "recipient",
          "type": "address"
        },
        {
          "internalType": "uint256",
          "name": "amount",
          "type": "uint256"
        }
      ],
      "name": "transfer",
      "outputs": [
        {
          "internalType": "bool",
          "name": "",
          "type": "bool"
        }
      ],
      "stateMutability": "nonpayable",
      "type": "function"
    },
    {
      "inputs": [
        {
          "internalType": "address",
          "name": "sender",
          "type": "address"
        },
        {
          "internalType": "address",
          "name": "recipient",
          "type": "address"
        },
        {
          "internalType": "uint256",
          "name": "amount",
          "type": "uint256"
        }
      ],
      "name": "transferFrom",
      "outputs": [
        {
          "internalType": "bool",
          "name": "",
          "type": "bool"
        }
      ],
      "stateMutability": "nonpayable",
      "type": "function"
    }
  ],
  "bytecode": {
    "object": "0x608060405234801561001057600080fd5b506040516107de3803806107de83398101604081905261002f916100cc565b610039338261003f565b5061010c565b6001600160a01b0382166000908152602081905260408120546100639083906100e5565b9050818110156100ac5760405162461bcd60e51b815260206004820152601060248201526f6f766572666c6f772062616c616e636560801b604482015260640160405180910390fd5b6001600160a01b0390921660009081526020819052604090209190915550565b6000602082840312156100de57600080fd5b5051919050565b8082018082111561010657634e487b7160e01b600052601160045260246000fd5b92915050565b6106c38061011b6000396000f3fe608060405234801561001057600080fd5b50600436106100725760003560e01c806370a082311161005057806370a08231146100c7578063a9059cbb146100f5578063dd62ed3e1461010857600080fd5b8063095ea7b31461007757806323b872dd1461009f57806340c10f19146100b2575b600080fd5b61008a610085366004610596565b610133565b60405190151581526020015b60405180910390f35b61008a6100ad3660046105c0565b6101a0565b6100c56100c0366004610596565b610399565b005b6100e76100d53660046105fc565b60006020819052908152604090205481565b604051908152602001610096565b61008a610103366004610596565b61042f565b6100e761011636600461061e565b600160209081526000928352604080842090915290825290205481565b3360008181526001602090815260408083206001600160a01b038716808552925280832085905551919290917f8c5be1e5ebec7d5bd14f71427d1e84f3dd0314c0f7b2291e5b200ac8c7c3b9259061018e9086815260200190565b60405180910390a35060015b92915050565b6001600160a01b0383166000908152600160209081526040808320338452909152812054828110156102195760405162461bcd60e51b815260206004820152601660248201527f616c6c6f77616e636520696e73756666696369656e740000000000000000000060448201526064015b60405180910390fd5b6102238382610667565b6001600160a01b038087166000908152600160209081526040808320338452825280832094909455918716815290819052205480610261858261067a565b10156102af5760405162461bcd60e51b815260206004820152601a60248201527f6f766572666c6f772062616c616e636520726563697069656e740000000000006044820152606401610210565b6102b9848261067a565b6001600160a01b0380871660009081526020819052604080822093909355908816815220548481101561032e5760405162461bcd60e51b815260206004820152601860248201527f756e646572666c6f772062616c616e63652073656e64657200000000000000006044820152606401610210565b6103388582610667565b6001600160a01b038881166000818152602081815260409182902094909455518881529189169290917fddf252ad1be2c89b69c2b068fc378daa952ba7f163c4a11628f55a4df523b3ef910160405180910390a35060009695505050505050565b6001600160a01b0382166000908152602081905260408120546103bd90839061067a565b90508181101561040f5760405162461bcd60e51b815260206004820152601060248201527f6f766572666c6f772062616c616e6365000000000000000000000000000000006044820152606401610210565b6001600160a01b0390921660009081526020819052604090209190915550565b336000908152602081905260408120548281101561048f5760405162461bcd60e51b815260206004820152601460248201527f696e73756666696369656e742062616c616e63650000000000000000000000006044820152606401610210565b6104998382610667565b33600090815260208190526040808220929092556001600160a01b03861681522054806104c6858261067a565b10156105145760405162461bcd60e51b815260206004820152601a60248201527f726563697069656e742062616c616e6365206f766572666c6f770000000000006044820152606401610210565b61051e848261067a565b6001600160a01b038616600081815260208181526040918290209390935551868152909133917fddf252ad1be2c89b69c2b068fc378daa952ba7f163c4a11628f55a4df523b3ef910160405180910390a3506000949350505050565b80356001600160a01b038116811461059157600080fd5b919050565b600080604083850312156105a957600080fd5b6105b28361057a565b946020939093013593505050565b6000806000606084860312156105d557600080fd5b6105de8461057a565b92506105ec6020850161057a565b9150604084013590509250925092565b60006020828403121561060e57600080fd5b6106178261057a565b9392505050565b6000806040838503121561063157600080fd5b61063a8361057a565b91506106486020840161057a565b90509250929050565b634e487b7160e01b600052601160045260246000fd5b8181038181111561019a5761019a610651565b8082018082111561019a5761019a61065156fea264697066735822122065a19fb7fb220d5fadb0624c4771532f340c3688333d275863bee5f5b45ed8ef64736f6c63430008160033",
    "linkReferences": {}
  },
  "methodIdentifiers": {
    "allowance(address,address)": "dd62ed3e",
    "approve(address,uint256)": "095ea7b3",
    "balanceOf(address)": "70a08231",
    "mint(address,uint256)": "40c10f19",
    "transfer(address,uint256)": "a9059cbb",
    "transferFrom(address,address,uint256)": "23b872dd"
  },
  "id": 75
}