{
  "abi": [
    {
      "inputs": [],
      "name": "DelegateCallNotAllowed",
      "type": "error"
    },
    {
      "inputs": [],
      "name": "callsIntoNoDelegateCallFunction",
      "outputs": [],
      "stateMutability": "view",
      "type": "function"
    },
    {
      "inputs": [],
      "name": "canBeDelegateCalled",
      "outputs": [
        {
          "internalType": "uint256",
          "name": "",
          "type": "uint256"
        }
      ],
      "stateMutability": "view",
      "type": "function"
    },
    {
      "inputs": [],
      "name": "cannotBeDelegateCalled",
      "outputs": [
        {
          "internalType": "uint256",
          "name": "",
          "type": "uint256"
        }
      ],
      "stateMutability": "view",
      "type": "function"
    },
    {
      "inputs": [],
      "name": "getGasCostOfCanBeDelegateCalled",
      "outputs": [
        {
          "internalType": "uint256",
          "name": "",
          "type": "uint256"
        }
      ],
      "stateMutability": "view",
      "type": "function"
    },
    {
      "inputs": [],
      "name": "getGasCostOfCannotBeDelegateCalled",
      "outputs": [
        {
          "internalType": "uint256",
          "name": "",
          "type": "uint256"
        }
      ],
      "stateMutability": "view",
      "type": "function"
    }
  ],
  "bytecode": {
    "object": "0x60a060405234801561001057600080fd5b50306080526080516101e0610030600039600061011b01526101e06000f3fe608060405234801561001057600080fd5b50600436106100675760003560e01c8063423ecb0511610050578063423ecb051461008e5780636427016414610096578063f45f416e146100a057600080fd5b80633045a6e01461006c5780633c7c8dd014610086575b600080fd5b6100746100a8565b60405190815260200160405180910390f35b6100746100c8565b6100746100d2565b61009e6100ec565b005b6100746100f6565b6000805a90506100b66100f6565b505a6100c29082610161565b91505090565b6000805a90506100b65b60006100dc610103565b6100e7600542610188565b905090565b6100f4610159565b565b60006100e7600542610188565b3073ffffffffffffffffffffffffffffffffffffffff7f000000000000000000000000000000000000000000000000000000000000000016146100f4576040516306c4a1c760e11b815260040160405180910390fd5b6100f4610103565b8181038181111561018257634e487b7160e01b600052601160045260246000fd5b92915050565b6000826101a557634e487b7160e01b600052601260045260246000fd5b50049056fea26469706673582212206f94f3db162d04238de4521dce7d7b327c590cbc96ee1acc230695221e85bf9d64736f6c63430008160033",
    "linkReferences": {}
  },
  "methodIdentifiers": {
    "callsIntoNoDelegateCallFunction()": "64270164",
    "canBeDelegateCalled()": "f45f416e",
    "cannotBeDelegateCalled()": "423ecb05",
    "getGasCostOfCanBeDelegateCalled()": "3045a6e0",
    "getGasCostOfCannotBeDelegateCalled()": "3c7c8dd0"
  },
  "id": 65
}