{
  "abi": [
    {
      "inputs": [
        {
          "internalType": "uint160",
          "name": "sqrtLower",
          "type": "uint160"
        },
        {
          "internalType": "uint160",
          "name": "sqrtUpper",
          "type": "uint160"
        },
        {
          "internalType": "uint128",
          "name": "liquidity",
          "type": "uint128"
        },
        {
          "internalType": "bool",
          "name": "roundUp",
          "type": "bool"
        }
      ],
      "name": "getAmount0Delta",
      "outputs": [
        {
          "internalType": "uint256",
          "name": "amount0",
          "type": "uint256"
        }
      ],
      "stateMutability": "pure",
      "type": "function"
    },
    {
      "inputs": [
        {
          "internalType": "uint160",
          "name": "sqrtLower",
          "type": "uint160"
        },
        {
          "internalType": "uint160",
          "name": "sqrtUpper",
          "type": "uint160"
        },
        {
          "internalType": "uint128",
          "name": "liquidity",
          "type": "uint128"
        },
        {
          "internalType": "bool",
          "name": "roundUp",
          "type": "bool"
        }
      ],
      "name": "getAmount1Delta",
      "outputs": [
        {
          "internalType": "uint256",
          "name": "amount1",
          "type": "uint256"
        }
      ],
      "stateMutability": "pure",
      "type": "function"
    },
    {
      "inputs": [
        {
          "internalType": "uint160",
          "name": "sqrtLower",
          "type": "uint160"
        },
        {
          "internalType": "uint160",
          "name": "sqrtUpper",
          "type": "uint160"
        },
        {
          "internalType": "uint128",
          "name": "liquidity",
          "type": "uint128"
        },
        {
          "internalType": "bool",
          "name": "roundUp",
          "type": "bool"
        }
      ],
      "name": "getGasCostOfGetAmount0Delta",
      "outputs": [
        {
          "internalType": "uint256",
          "name": "",
          "type": "uint256"
        }
      ],
      "stateMutability": "view",
      "type": "function"
    },
    {
      "inputs": [
        {
          "internalType": "uint160",
          "name": "sqrtLower",
          "type": "uint160"
        },
        {
          "internalType": "uint160",
          "name": "sqrtUpper",
          "type": "uint160"
        },
        {
          "internalType": "uint128",
          "name": "liquidity",
          "type": "uint128"
        },
        {
          "internalType": "bool",
          "name": "roundUp",
          "type": "bool"
        }
      ],
      "name": "getGasCostOfGetAmount1Delta",
      "outputs": [
        {
          "internalType": "uint256",
          "name": "",
          "type": "uint256"
        }
      ],
      "stateMutability": "view",
      "type": "function"
    },
    {
      "inputs": [
        {
          "internalType": "uint160",
          "name": "sqrtP",
          "type": "uint160"
        },
        {
          "internalType": "uint128",
          "name": "liquidity",
          "type": "uint128"
        },
        {
          "internalType": "uint256",
          "name": "amountIn",
          "type": "uint256"
        },
        {
          "internalType": "bool",
          "name": "zeroForOne",
          "type": "bool"
        }
      ],
      "name": "getGasCostOfGetNextSqrtPriceFromInput",
      "outputs": [
        {
          "internalType": "uint256",
          "name": "",
          "type": "uint256"
        }
      ],
      "stateMutability": "view",
      "type": "function"
    },
    {
      "inputs": [
        {
          "internalType": "uint160",
          "name": "sqrtP",
          "type": "uint160"
        },
        {
          "internalType": "uint128",
          "name": "liquidity",
          "type": "uint128"
        },
        {
          "internalType": "uint256",
          "name": "amountOut",
          "type": "uint256"
        },
        {
          "internalType": "bool",
          "name": "zeroForOne",
          "type": "bool"
        }
      ],
      "name": "getGasCostOfGetNextSqrtPriceFromOutput",
      "outputs": [
        {
          "internalType": "uint256",
          "name": "",
          "type": "uint256"
        }
      ],
      "stateMutability": "view",
      "type": "function"
    },
    {
      "inputs": [
        {
          "internalType": "uint160",
          "name": "sqrtP",
          "type": "uint160"
        },
        {
          "internalType": "uint128",
          "name": "liquidity",
          "type": "uint128"
        },
        {
          "internalType": "uint256",
          "name": "amountIn",
          "type": "uint256"
        },
        {
          "internalType": "bool",
          "name": "zeroForOne",
          "type": "bool"
        }
      ],
      "name": "getNextSqrtPriceFromInput",
      "outputs": [
        {
          "internalType": "uint160",
          "name": "sqrtQ",
          "type": "uint160"
        }
      ],
      "stateMutability": "pure",
      "type": "function"
    },
    {
      "inputs": [
        {
          "internalType": "uint160",
          "name": "sqrtP",
          "type": "uint160"
        },
        {
          "internalType": "uint128",
          "name": "liquidity",
          "type": "uint128"
        },
        {
          "internalType": "uint256",
          "name": "amountOut",
          "type": "uint256"
        },
        {
          "internalType": "bool",
          "name": "zeroForOne",
          "type": "bool"
        }
      ],
      "name": "getNextSqrtPriceFromOutput",
      "outputs": [
        {
          "internalType": "uint160",
          "name": "sqrtQ",
          "type": "uint160"
        }
      ],
      "stateMutability": "pure",
      "type": "function"
    }
  ],
  "bytecode": {
    "object": "0x608060405234801561001057600080fd5b5061085e806100206000396000f3fe608060405234801561001057600080fd5b50600436106100885760003560e01c8063af955e3b1161005b578063af955e3b14610104578063d7cdaf7114610117578063e20f7ac01461012a578063fedf2b5f1461013d57600080fd5b8063034d21e41461008d5780632c32d4b6146100b357806348a0c5bd146100c6578063aa58276a146100d9575b600080fd5b6100a061009b3660046106f1565b610150565b6040519081526020015b60405180910390f35b6100a06100c136600461073e565b61017a565b6100a06100d436600461073e565b610191565b6100ec6100e73660046106f1565b61019f565b6040516001600160a01b0390911681526020016100aa565b6100a061011236600461073e565b6101ad565b6100a061012536600461073e565b6101bf565b6100a06101383660046106f1565b6101d1565b6100ec61014b3660046106f1565b6101e3565b6000805a9050610162868686866101f1565b505a61016e908261079d565b9150505b949350505050565b600061018885858585610242565b95945050505050565b60006101888585858561030b565b6000610188858585856101f1565b6000805a90506101628686868661030b565b6000805a905061016286868686610242565b6000805a905061016286868686610384565b600061018885858585610384565b600080856001600160a01b03161161020857600080fd5b6000846001600160801b03161161021e57600080fd5b816102355761023085858560016103cc565b610188565b61018885858560016104b3565b6000836001600160a01b0316856001600160a01b03161115610262579293925b7bffffffffffffffffffffffffffffffff000000000000000000000000606084901b166001600160a01b03868603811690871661029e57600080fd5b836102d457866001600160a01b03166102c18383896001600160a01b03166105b5565b816102ce576102ce6107b6565b04610300565b6103006102eb8383896001600160a01b0316610658565b886001600160a01b0316808204910615150190565b979650505050505050565b6000836001600160a01b0316856001600160a01b0316111561032b579293925b8161035a576102306001600160801b03841661034787876107cc565b6001600160a01b0316600160601b6105b5565b6101886001600160801b03841661037187876107cc565b6001600160a01b0316600160601b610658565b600080856001600160a01b03161161039b57600080fd5b6000846001600160801b0316116103b157600080fd5b816103c35761023085858560006104b3565b61018885858560005b6000811561043e5760006001600160a01b03841115610402576103fd84600160601b876001600160801b03166105b5565b610419565b6104196001600160801b038616606086901b6107f3565b9050610436610431826001600160a01b038916610815565b610698565b915050610172565b60006001600160a01b0384111561046c5761046784600160601b876001600160801b0316610658565b610489565b610489606085901b6001600160801b038716808204910615150190565b905080866001600160a01b0316116104a057600080fd5b610436816001600160a01b03881661079d565b6000826000036104c4575083610172565b7bffffffffffffffffffffffffffffffff000000000000000000000000606085901b168215610568576001600160a01b0386168481029085828161050a5761050a6107b6565b040361053a578181018281106105385761052e83896001600160a01b031683610658565b9350505050610172565b505b5061043681856105536001600160a01b038a16836107f3565b61055d9190610815565b808204910615150190565b6001600160a01b03861684810290858281610585576105856107b6565b0414801561059257508082115b61059b57600080fd5b80820361052e610431846001600160a01b038b1684610658565b600083830281600019858709828110838203039150508084116105d757600080fd5b806000036105ea57508290049050610651565b6000848688096000868103871696879004966002600389028118808a02820302808a02820302808a02820302808a02820302808a02820302808a02909103029181900381900460010186841190950394909402919094039290920491909117919091029150505b9392505050565b60006106658484846105b5565b905060008280610677576106776107b6565b848609111561065157600019811061068e57600080fd5b6001019392505050565b806001600160a01b03811681146106ae57600080fd5b919050565b80356001600160a01b03811681146106ae57600080fd5b80356001600160801b03811681146106ae57600080fd5b803580151581146106ae57600080fd5b6000806000806080858703121561070757600080fd5b610710856106b3565b935061071e602086016106ca565b925060408501359150610733606086016106e1565b905092959194509250565b6000806000806080858703121561075457600080fd5b61075d856106b3565b935061076b602086016106b3565b9250610779604086016106ca565b9150610733606086016106e1565b634e487b7160e01b600052601160045260246000fd5b818103818111156107b0576107b0610787565b92915050565b634e487b7160e01b600052601260045260246000fd5b6001600160a01b038281168282160390808211156107ec576107ec610787565b5092915050565b60008261081057634e487b7160e01b600052601260045260246000fd5b500490565b808201808211156107b0576107b061078756fea26469706673582212207811e49a7bfc975d00b98a5022419fb2ca68367c976f0230b2bdbff4a94c95ce64736f6c63430008160033",
    "linkReferences": {}
  },
  "methodIdentifiers": {
    "getAmount0Delta(uint160,uint160,uint128,bool)": "2c32d4b6",
    "getAmount1Delta(uint160,uint160,uint128,bool)": "48a0c5bd",
    "getGasCostOfGetAmount0Delta(uint160,uint160,uint128,bool)": "d7cdaf71",
    "getGasCostOfGetAmount1Delta(uint160,uint160,uint128,bool)": "af955e3b",
    "getGasCostOfGetNextSqrtPriceFromInput(uint160,uint128,uint256,bool)": "034d21e4",
    "getGasCostOfGetNextSqrtPriceFromOutput(uint160,uint128,uint256,bool)": "e20f7ac0",
    "getNextSqrtPriceFromInput(uint160,uint128,uint256,bool)": "aa58276a",
    "getNextSqrtPriceFromOutput(uint160,uint128,uint256,bool)": "fedf2b5f"
  },
  "id": 73
}