{
  "abi": [
    {
      "inputs": [
        {
          "internalType": "contract IPoolManager",
          "name": "_manager",
          "type": "address"
        }
      ],
      "stateMutability": "nonpayable",
      "type": "constructor"
    },
    {
      "inputs": [],
      "name": "ERC20TransferFailed",
      "type": "error"
    },
    {
      "inputs": [],
      "name": "NativeTransferFailed",
      "type": "error"
    },
    {
      "inputs": [
        {
          "internalType": "bytes",
          "name": "rawData",
          "type": "bytes"
        }
      ],
      "name": "lockAcquired",
      "outputs": [
        {
          "internalType": "bytes",
          "name": "",
          "type": "bytes"
        }
      ],
      "stateMutability": "nonpayable",
      "type": "function"
    },
    {
      "inputs": [],
      "name": "manager",
      "outputs": [
        {
          "internalType": "contract IPoolManager",
          "name": "",
          "type": "address"
        }
      ],
      "stateMutability": "view",
      "type": "function"
    },
    {
      "inputs": [
        {
          "components": [
            {
              "internalType": "Currency",
              "name": "currency0",
              "type": "address"
            },
            {
              "internalType": "Currency",
              "name": "currency1",
              "type": "address"
            },
            {
              "internalType": "uint24",
              "name": "fee",
              "type": "uint24"
            },
            {
              "internalType": "int24",
              "name": "tickSpacing",
              "type": "int24"
            },
            {
              "internalType": "contract IHooks",
              "name": "hooks",
              "type": "address"
            }
          ],
          "internalType": "struct PoolKey",
          "name": "key",
          "type": "tuple"
        },
        {
          "components": [
            {
              "internalType": "int24",
              "name": "tickLower",
              "type": "int24"
            },
            {
              "internalType": "int24",
              "name": "tickUpper",
              "type": "int24"
            },
            {
              "internalType": "int256",
              "name": "liquidityDelta",
              "type": "int256"
            }
          ],
          "internalType": "struct IPoolManager.ModifyPositionParams",
          "name": "params",
          "type": "tuple"
        },
        {
          "internalType": "bytes",
          "name": "hookData",
          "type": "bytes"
        }
      ],
      "name": "modifyPosition",
      "outputs": [
        {
          "internalType": "BalanceDelta",
          "name": "delta",
          "type": "int256"
        }
      ],
      "stateMutability": "payable",
      "type": "function"
    }
  ],
  "bytecode": {
    "object": "0x60a060405234801561001057600080fd5b506040516110c73803806110c783398101604081905261002f91610040565b6001600160a01b0316608052610070565b60006020828403121561005257600080fd5b81516001600160a01b038116811461006957600080fd5b9392505050565b608051610ff16100d660003960008181604b0152818160dc015281816101f201528181610230015281816102f9015281816103d1015281816104a10152818161055a015281816105f8015281816106c70152818161075f01526108220152610ff16000f3fe6080604052600436106100345760003560e01c8063481c6a751461003957806361ae449a1461008a578063ab6291fe146100ab575b600080fd5b34801561004557600080fd5b5061006d7f000000000000000000000000000000000000000000000000000000000000000081565b6040516001600160a01b0390911681526020015b60405180910390f35b61009d610098366004610b8e565b6100d8565b604051908152602001610081565b3480156100b757600080fd5b506100cb6100c6366004610bf0565b6101e5565b6040516100819190610cb2565b60007f00000000000000000000000000000000000000000000000000000000000000006001600160a01b031663815483196040518060800160405280336001600160a01b03168152602001878152602001868152602001858152506040516020016101439190610ccc565b6040516020818303038152906040526040518263ffffffff1660e01b815260040161016e9190610cb2565b6000604051808303816000875af115801561018d573d6000803e3d6000fd5b505050506040513d6000823e601f3d908101601f191682016040526101b59190810190610d80565b8060200190518101906101c89190610df7565b90504780156101dd576101dd600033836108f0565b509392505050565b6060336001600160a01b037f0000000000000000000000000000000000000000000000000000000000000000161461021c57600080fd5b600061022a83850185610e10565b905060007f00000000000000000000000000000000000000000000000000000000000000006001600160a01b03166361ae449a8360200151846040015185606001516040518463ffffffff1660e01b815260040161028a93929190610ecc565b6020604051808303816000875af11580156102a9573d6000803e3d6000fd5b505050506040513d601f19601f820116820180604052508101906102cd9190610df7565b905060006102db8260801c90565b600f0b1315610512576020820151516001600160a01b03166103b3577f00000000000000000000000000000000000000000000000000000000000000006001600160a01b0316636a256b296103308360801c90565b6020850151516040516001600160e01b031960e085901b1681526001600160a01b0390911660048201526001600160801b03919091169060240160206040518083038185885af1158015610388573d6000803e3d6000fd5b50505050506040513d601f19601f820116820180604052508101906103ad9190610df7565b50610512565b8160200151600001516001600160a01b03166323b872dd83600001517f00000000000000000000000000000000000000000000000000000000000000006103fa8560801c90565b6040516001600160e01b031960e086901b1681526001600160a01b0393841660048201529290911660248301526001600160801b031660448201526064016020604051808303816000875af1158015610457573d6000803e3d6000fd5b505050506040513d601f19601f8201168201806040525081019061047b9190610f5c565b50602082015151604051636a256b2960e01b81526001600160a01b0391821660048201527f000000000000000000000000000000000000000000000000000000000000000090911690636a256b29906024016020604051808303816000875af11580156104ec573d6000803e3d6000fd5b505050506040513d601f19601f820116820180604052508101906105109190610df7565b505b600081600f0b13156107385760208083015101516001600160a01b03166105da576020808301510151604051636a256b2960e01b81526001600160a01b0391821660048201527f000000000000000000000000000000000000000000000000000000000000000090911690636a256b29906001600160801b0384169060240160206040518083038185885af11580156105af573d6000803e3d6000fd5b50505050506040513d601f19601f820116820180604052508101906105d49190610df7565b50610738565b8160200151602001516001600160a01b03166323b872dd83600001517f000000000000000000000000000000000000000000000000000000000000000061061e8590565b6040516001600160e01b031960e086901b1681526001600160a01b0393841660048201529290911660248301526001600160801b031660448201526064016020604051808303816000875af115801561067b573d6000803e3d6000fd5b505050506040513d601f19601f8201168201806040525081019061069f9190610f5c565b506020828101510151604051636a256b2960e01b81526001600160a01b0391821660048201527f000000000000000000000000000000000000000000000000000000000000000090911690636a256b29906024016020604051808303816000875af1158015610712573d6000803e3d6000fd5b505050506040513d601f19601f820116820180604052508101906107369190610df7565b505b60006107448260801c90565b600f0b121561080a5760208201515182516001600160a01b037f00000000000000000000000000000000000000000000000000000000000000001691630b0d9c09916107908560801c90565b61079990610f7e565b6040516001600160e01b031960e086901b1681526001600160a01b0393841660048201529290911660248301526001600160801b03166044820152606401600060405180830381600087803b1580156107f157600080fd5b505af1158015610805573d6000803e3d6000fd5b505050505b600081600f0b12156108cb57602082810151015182517f00000000000000000000000000000000000000000000000000000000000000006001600160a01b031691630b0d9c099161085a85610f7e565b6040516001600160e01b031960e086901b1681526001600160a01b0393841660048201529290911660248301526001600160801b03166044820152606401600060405180830381600087803b1580156108b257600080fd5b505af11580156108c6573d6000803e3d6000fd5b505050505b6040805160208101839052016040516020818303038152906040529250505092915050565b60006001600160a01b03841661092f5760008060008085875af190508061092a57604051633d2cec6f60e21b815260040160405180910390fd5b61098a565b60405163a9059cbb60e01b6000528360045282602452602060006044600080895af13d15601f3d116001600051141617169150600060605280604052508061098a57604051633c9fd93960e21b815260040160405180910390fd5b50505050565b634e487b7160e01b600052604160045260246000fd5b604051601f8201601f1916810167ffffffffffffffff811182821017156109cf576109cf610990565b604052919050565b6001600160a01b03811681146109ec57600080fd5b50565b8035600281900b8114610a0157600080fd5b919050565b600060a08284031215610a1857600080fd5b60405160a0810181811067ffffffffffffffff82111715610a3b57610a3b610990565b6040529050808235610a4c816109d7565b81526020830135610a5c816109d7565b6020820152604083013562ffffff81168114610a7757600080fd5b6040820152610a88606084016109ef565b60608201526080830135610a9b816109d7565b6080919091015292915050565b600060608284031215610aba57600080fd5b6040516060810181811067ffffffffffffffff82111715610add57610add610990565b604052905080610aec836109ef565b8152610afa602084016109ef565b6020820152604083013560408201525092915050565b600067ffffffffffffffff821115610b2a57610b2a610990565b50601f01601f191660200190565b600082601f830112610b4957600080fd5b8135610b5c610b5782610b10565b6109a6565b818152846020838601011115610b7157600080fd5b816020850160208301376000918101602001919091529392505050565b60008060006101208486031215610ba457600080fd5b610bae8585610a06565b9250610bbd8560a08601610aa8565b915061010084013567ffffffffffffffff811115610bda57600080fd5b610be686828701610b38565b9150509250925092565b60008060208385031215610c0357600080fd5b823567ffffffffffffffff80821115610c1b57600080fd5b818501915085601f830112610c2f57600080fd5b813581811115610c3e57600080fd5b866020828501011115610c5057600080fd5b60209290920196919550909350505050565b60005b83811015610c7d578181015183820152602001610c65565b50506000910152565b60008151808452610c9e816020860160208601610c62565b601f01601f19169290920160200192915050565b602081526000610cc56020830184610c86565b9392505050565b602081526001600160a01b03825116602082015260006020830151610d3660408401826001600160a01b0380825116835280602083015116602084015262ffffff6040830151166040840152606082015160020b6060840152806080830151166080840152505050565b506040838101518051600290810b60e08601526020820151900b6101008501520151610120830152606083015161014080840152610d78610160840182610c86565b949350505050565b600060208284031215610d9257600080fd5b815167ffffffffffffffff811115610da957600080fd5b8201601f81018413610dba57600080fd5b8051610dc8610b5782610b10565b818152856020838501011115610ddd57600080fd5b610dee826020830160208601610c62565b95945050505050565b600060208284031215610e0957600080fd5b5051919050565b600060208284031215610e2257600080fd5b813567ffffffffffffffff80821115610e3a57600080fd5b908301906101408286031215610e4f57600080fd5b604051608081018181108382111715610e6a57610e6a610990565b6040528235610e78816109d7565b8152610e878660208501610a06565b6020820152610e998660c08501610aa8565b604082015261012083013582811115610eb157600080fd5b610ebd87828601610b38565b60608301525095945050505050565b6000610120610f1d83876001600160a01b0380825116835280602083015116602084015262ffffff6040830151166040840152606082015160020b6060840152806080830151166080840152505050565b8451600290810b60a08501526020860151900b60c0840152604085015160e084015280610100840152610f5281840185610c86565b9695505050505050565b600060208284031215610f6e57600080fd5b81518015158114610cc557600080fd5b600081600f0b6f7fffffffffffffffffffffffffffffff198103610fb257634e487b7160e01b600052601160045260246000fd5b6000039291505056fea2646970667358221220a3c651ee0703fb2745fdb64f0c55c5cf18e66697fc0eb757b172d57506e349ed64736f6c63430008160033",
    "linkReferences": {}
  },
  "methodIdentifiers": {
    "lockAcquired(bytes)": "ab6291fe",
    "manager()": "481c6a75",
    "modifyPosition((address,address,uint24,int24,address),(int24,int24,int256),bytes)": "61ae449a"
  },
  "id": 68
}