{
  "abi": [
    {
      "inputs": [],
      "name": "InvalidSqrtRatio",
      "type": "error"
    },
    {
      "inputs": [],
      "name": "InvalidTick",
      "type": "error"
    },
    {
      "inputs": [
        {
          "internalType": "int24",
          "name": "tick",
          "type": "int24"
        }
      ],
      "name": "checkGetSqrtRatioAtTickInvariants",
      "outputs": [],
      "stateMutability": "pure",
      "type": "function"
    },
    {
      "inputs": [
        {
          "internalType": "uint160",
          "name": "ratio",
          "type": "uint160"
        }
      ],
      "name": "checkGetTickAtSqrtRatioInvariants",
      "outputs": [],
      "stateMutability": "pure",
      "type": "function"
    }
  ],
  "bytecode": {
    "object": "0x608060405234801561001057600080fd5b5061093f806100206000396000f3fe608060405234801561001057600080fd5b50600436106100365760003560e01c806347d38f4d1461003b578063df01e52d14610050575b600080fd5b61004e610049366004610802565b610063565b005b61004e61005e36600461082c565b61011c565b600061006e826101b6565b90506001600160a01b03811661008d61008860018561086b565b6101b6565b6001600160a01b03161080156100c157506100ac610088836001610896565b6001600160a01b0316816001600160a01b0316105b6100cd576100cd6108bb565b6401000276a36001600160a01b03821610156100eb576100eb6108bb565b73fffd8963efd1fc6a506488495d951d5263988d266001600160a01b0382161115610118576101186108bb565b5050565b6000610127826104e6565b9050610132816101b6565b6001600160a01b0316826001600160a01b031610158015610171575061015c610088826001610896565b6001600160a01b0316826001600160a01b0316105b61017d5761017d6108bb565b620d89e719600282900b1215610195576101956108bb565b6101a2620d89e7196108d1565b60020b8160020b12610118576101186108bb565b60008060008360020b126101cd578260020b6101d5565b8260020b6000035b9050620d89e88111156101fb576040516333a3bdff60e21b815260040160405180910390fd5b60008160011660000361021f57700100000000000000000000000000000000610231565b6ffffcb933bd6fad37aa2d162d1a5940015b70ffffffffffffffffffffffffffffffffff1690506002821615610265576ffff97272373d413259a46990580e213a0260801c5b6004821615610284576ffff2e50f5f656932ef12357cf3c7fdcc0260801c5b60088216156102a3576fffe5caca7e10e4e61c3624eaa0941cd00260801c5b60108216156102c2576fffcb9843d60f6159c9db58835c9266440260801c5b60208216156102e1576fff973b41fa98c081472e6896dfb254c00260801c5b6040821615610300576fff2ea16466c96a3843ec78b326b528610260801c5b608082161561031f576ffe5dee046a99a2a811c461f1969c30530260801c5b61010082161561033f576ffcbe86c7900a88aedcffc83b479aa3a40260801c5b61020082161561035f576ff987a7253ac413176f2b074cf7815e540260801c5b61040082161561037f576ff3392b0822b70005940c7a398e4b70f30260801c5b61080082161561039f576fe7159475a2c29b7443b29c7fa6e889d90260801c5b6110008216156103bf576fd097f3bdfd2022b8845ad8f792aa58250260801c5b6120008216156103df576fa9f746462d870fdf8a65dc1f90e061e50260801c5b6140008216156103ff576f70d869a156d2a1b890bb3df62baf32f70260801c5b61800082161561041f576f31be135f97d08fd981231505542fcfa60260801c5b62010000821615610440576f09aa508b5b7a84e1c677de54f3e99bc90260801c5b62020000821615610460576e5d6af8dedb81196699c329225ee6040260801c5b6204000082161561047f576d2216e584f5fa1ea926041bedfe980260801c5b6208000082161561049c576b048a170391f7dc42444e8fa20260801c5b60008460020b13156104bd5780600019816104b9576104b96108f3565b0490505b6401000000008106156104d15760016104d4565b60005b60ff16602082901c0192505050919050565b60006401000276a36001600160a01b0383161080610521575073fffd8963efd1fc6a506488495d951d5263988d266001600160a01b03831610155b1561053f5760405163015680db60e11b815260040160405180910390fd5b77ffffffffffffffffffffffffffffffffffffffff00000000602083901b166fffffffffffffffffffffffffffffffff811160071b81811c67ffffffffffffffff811160061b90811c63ffffffff811160051b90811c61ffff811160041b90811c60ff8111600390811b91821c600f811160021b90811c918211600190811b92831c979088119617909417909217179091171717608081106105e957607f810383901c91506105f3565b80607f0383901b91505b908002607f81811c60ff83811c9190911c800280831c81831c1c800280841c81841c1c800280851c81851c1c800280861c81861c1c800280871c81871c1c800280881c81881c1c800280891c81891c1c8002808a1c818a1c1c8002808b1c818b1c1c8002808c1c818c1c1c8002808d1c818d1c1c8002808e1c9c81901c9c909c1c80029c8d901c9e9d607f198f0160401b60c09190911c678000000000000000161760c19b909b1c674000000000000000169a909a1760c29990991c672000000000000000169890981760c39790971c671000000000000000169690961760c49590951c670800000000000000169490941760c59390931c670400000000000000169290921760c69190911c670200000000000000161760c79190911c670100000000000000161760c89190911c6680000000000000161760c99190911c6640000000000000161760ca9190911c6620000000000000161760cb9190911c6610000000000000161760cc9190911c6608000000000000161760cd9190911c66040000000000001617693627a301d71055774c8581026f028f6481ab7f045a5af012a19d003aa9198101608090811d906fdb2df09e81959a81455e260799a0632f8301901d600281810b9083900b146107f357886001600160a01b03166107d8826101b6565b6001600160a01b031611156107ed57816107f5565b806107f5565b815b9998505050505050505050565b60006020828403121561081457600080fd5b81358060020b811461082557600080fd5b9392505050565b60006020828403121561083e57600080fd5b81356001600160a01b038116811461082557600080fd5b634e487b7160e01b600052601160045260246000fd5b600282810b9082900b03627fffff198112627fffff8213171561089057610890610855565b92915050565b600281810b9083900b01627fffff8113627fffff198212171561089057610890610855565b634e487b7160e01b600052600160045260246000fd5b60008160020b627fffff1981036108ea576108ea610855565b60000392915050565b634e487b7160e01b600052601260045260246000fdfea26469706673582212203ccb3fffcd87b93211438d17200f0f817a045a628082076a0081468249d3184f64736f6c63430008160033",
    "linkReferences": {}
  },
  "methodIdentifiers": {
    "checkGetSqrtRatioAtTickInvariants(int24)": "47d38f4d",
    "checkGetTickAtSqrtRatioInvariants(uint160)": "df01e52d"
  },
  "id": 76
}