{
  "abi": [
    {
      "inputs": [],
      "name": "SQRT_RATIO_121_100",
      "outputs": [
        {
          "internalType": "uint160",
          "name": "",
          "type": "uint160"
        }
      ],
      "stateMutability": "view",
      "type": "function"
    },
    {
      "inputs": [],
      "name": "SQRT_RATIO_1_1",
      "outputs": [
        {
          "internalType": "uint160",
          "name": "",
          "type": "uint160"
        }
      ],
      "stateMutability": "view",
      "type": "function"
    },
    {
      "inputs": [],
      "name": "SQRT_RATIO_1_2",
      "outputs": [
        {
          "internalType": "uint160",
          "name": "",
          "type": "uint160"
        }
      ],
      "stateMutability": "view",
      "type": "function"
    },
    {
      "inputs": [],
      "name": "SQRT_RATIO_1_4",
      "outputs": [
        {
          "internalType": "uint160",
          "name": "",
          "type": "uint160"
        }
      ],
      "stateMutability": "view",
      "type": "function"
    },
    {
      "inputs": [],
      "name": "SQRT_RATIO_2_1",
      "outputs": [
        {
          "internalType": "uint160",
          "name": "",
          "type": "uint160"
        }
      ],
      "stateMutability": "view",
      "type": "function"
    },
    {
      "inputs": [],
      "name": "SQRT_RATIO_4_1",
      "outputs": [
        {
          "internalType": "uint160",
          "name": "",
          "type": "uint160"
        }
      ],
      "stateMutability": "view",
      "type": "function"
    }
  ],
  "bytecode": {
    "object": "0x61015661003a600b82828239805160001a60731461002d57634e487b7160e01b600052600060045260246000fd5b30600052607381538281f3fe730000000000000000000000000000000000000000301460806040526004361061007c5760003560e01c8063d6d2a04b1161005a578063d6d2a04b146100e4578063dd431c4b146100f8578063e239ea421461010c57600080fd5b80630b84e81c1461008157806377267b1e146100bd578063d1b7d611146100d1575b600080fd5b6100946bb504f333f9de6484597d89b381565b60405173ffffffffffffffffffffffffffffffffffffffff909116815260200160405180910390f35b6100946c0100000000000000000000000081565b6100946b80000000000000000000000081565b6100946c016a09e667f3bcc908b2fb136681565b6100946c0200000000000000000000000081565b6100946c011999999999999999999999998156fea2646970667358221220664eef53e246df0720292c3288555384260af2fe492d20491900b5bc69bf563264736f6c63430008160033",
    "linkReferences": {}
  },
  "methodIdentifiers": {
    "SQRT_RATIO_121_100()": "e239ea42",
    "SQRT_RATIO_1_1()": "77267b1e",
    "SQRT_RATIO_1_2()": "0b84e81c",
    "SQRT_RATIO_1_4()": "d1b7d611",
    "SQRT_RATIO_2_1()": "d6d2a04b",
    "SQRT_RATIO_4_1()": "dd431c4b"
  },
  "id": 102
}