{
  "abi": [
    {
      "inputs": [
        {
          "internalType": "uint256",
          "name": "controllerGasLimit",
          "type": "uint256"
        }
      ],
      "stateMutability": "nonpayable",
      "type": "constructor"
    },
    {
      "inputs": [],
      "name": "CannotUpdateEmptyPosition",
      "type": "error"
    },
    {
      "inputs": [],
      "name": "CurrenciesInitializedOutOfOrder",
      "type": "error"
    },
    {
      "inputs": [],
      "name": "CurrencyNotSettled",
      "type": "error"
    },
    {
      "inputs": [],
      "name": "DelegateCallNotAllowed",
      "type": "error"
    },
    {
      "inputs": [],
      "name": "ERC20TransferFailed",
      "type": "error"
    },
    {
      "inputs": [],
      "name": "FeeNotDynamic",
      "type": "error"
    },
    {
      "inputs": [],
      "name": "FeeTooLarge",
      "type": "error"
    },
    {
      "inputs": [
        {
          "internalType": "address",
          "name": "hooks",
          "type": "address"
        }
      ],
      "name": "HookAddressNotValid",
      "type": "error"
    },
    {
      "inputs": [],
      "name": "InvalidCaller",
      "type": "error"
    },
    {
      "inputs": [],
      "name": "InvalidHookResponse",
      "type": "error"
    },
    {
      "inputs": [],
      "name": "InvalidSqrtRatio",
      "type": "error"
    },
    {
      "inputs": [],
      "name": "InvalidTick",
      "type": "error"
    },
    {
      "inputs": [
        {
          "internalType": "address",
          "name": "locker",
          "type": "address"
        }
      ],
      "name": "LockedBy",
      "type": "error"
    },
    {
      "inputs": [],
      "name": "MaxCurrenciesTouched",
      "type": "error"
    },
    {
      "inputs": [],
      "name": "NativeTransferFailed",
      "type": "error"
    },
    {
      "inputs": [],
      "name": "NoLiquidityToReceiveFees",
      "type": "error"
    },
    {
      "inputs": [],
      "name": "NotPoolManagerToken",
      "type": "error"
    },
    {
      "inputs": [],
      "name": "PoolAlreadyInitialized",
      "type": "error"
    },
    {
      "inputs": [],
      "name": "PoolNotInitialized",
      "type": "error"
    },
    {
      "inputs": [
        {
          "internalType": "uint160",
          "name": "sqrtPriceCurrentX96",
          "type": "uint160"
        },
        {
          "internalType": "uint160",
          "name": "sqrtPriceLimitX96",
          "type": "uint160"
        }
      ],
      "name": "PriceLimitAlreadyExceeded",
      "type": "error"
    },
    {
      "inputs": [
        {
          "internalType": "uint160",
          "name": "sqrtPriceLimitX96",
          "type": "uint160"
        }
      ],
      "name": "PriceLimitOutOfBounds",
      "type": "error"
    },
    {
      "inputs": [],
      "name": "ProtocolFeeCannotBeFetched",
      "type": "error"
    },
    {
      "inputs": [],
      "name": "SwapAmountCannotBeZero",
      "type": "error"
    },
    {
      "inputs": [
        {
          "internalType": "int24",
          "name": "tick",
          "type": "int24"
        }
      ],
      "name": "TickLiquidityOverflow",
      "type": "error"
    },
    {
      "inputs": [
        {
          "internalType": "int24",
          "name": "tickLower",
          "type": "int24"
        }
      ],
      "name": "TickLowerOutOfBounds",
      "type": "error"
    },
    {
      "inputs": [
        {
          "internalType": "int24",
          "name": "tick",
          "type": "int24"
        },
        {
          "internalType": "int24",
          "name": "tickSpacing",
          "type": "int24"
        }
      ],
      "name": "TickMisaligned",
      "type": "error"
    },
    {
      "inputs": [],
      "name": "TickSpacingTooLarge",
      "type": "error"
    },
    {
      "inputs": [],
      "name": "TickSpacingTooSmall",
      "type": "error"
    },
    {
      "inputs": [
        {
          "internalType": "int24",
          "name": "tickUpper",
          "type": "int24"
        }
      ],
      "name": "TickUpperOutOfBounds",
      "type": "error"
    },
    {
      "inputs": [
        {
          "internalType": "int24",
          "name": "tickLower",
          "type": "int24"
        },
        {
          "internalType": "int24",
          "name": "tickUpper",
          "type": "int24"
        }
      ],
      "name": "TicksMisordered",
      "type": "error"
    },
    {
      "anonymous": false,
      "inputs": [
        {
          "indexed": true,
          "internalType": "address",
          "name": "account",
          "type": "address"
        },
        {
          "indexed": true,
          "internalType": "address",
          "name": "operator",
          "type": "address"
        },
        {
          "indexed": false,
          "internalType": "bool",
          "name": "approved",
          "type": "bool"
        }
      ],
      "name": "ApprovalForAll",
      "type": "event"
    },
    {
      "anonymous": false,
      "inputs": [
        {
          "indexed": true,
          "internalType": "PoolId",
          "name": "id",
          "type": "bytes32"
        },
        {
          "indexed": false,
          "internalType": "uint24",
          "name": "dynamicSwapFee",
          "type": "uint24"
        }
      ],
      "name": "DynamicSwapFeeUpdated",
      "type": "event"
    },
    {
      "anonymous": false,
      "inputs": [
        {
          "indexed": true,
          "internalType": "PoolId",
          "name": "id",
          "type": "bytes32"
        },
        {
          "indexed": false,
          "internalType": "uint24",
          "name": "hookFees",
          "type": "uint24"
        }
      ],
      "name": "HookFeeUpdated",
      "type": "event"
    },
    {
      "anonymous": false,
      "inputs": [
        {
          "indexed": true,
          "internalType": "PoolId",
          "name": "id",
          "type": "bytes32"
        },
        {
          "indexed": true,
          "internalType": "Currency",
          "name": "currency0",
          "type": "address"
        },
        {
          "indexed": true,
          "internalType": "Currency",
          "name": "currency1",
          "type": "address"
        },
        {
          "indexed": false,
          "internalType": "uint24",
          "name": "fee",
          "type": "uint24"
        },
        {
          "indexed": false,
          "internalType": "int24",
          "name": "tickSpacing",
          "type": "int24"
        },
        {
          "indexed": false,
          "internalType": "contract IHooks",
          "name": "hooks",
          "type": "address"
        }
      ],
      "name": "Initialize",
      "type": "event"
    },
    {
      "anonymous": false,
      "inputs": [
        {
          "indexed": true,
          "internalType": "PoolId",
          "name": "id",
          "type": "bytes32"
        },
        {
          "indexed": true,
          "internalType": "address",
          "name": "sender",
          "type": "address"
        },
        {
          "indexed": false,
          "internalType": "int24",
          "name": "tickLower",
          "type": "int24"
        },
        {
          "indexed": false,
          "internalType": "int24",
          "name": "tickUpper",
          "type": "int24"
        },
        {
          "indexed": false,
          "internalType": "int256",
          "name": "liquidityDelta",
          "type": "int256"
        }
      ],
      "name": "ModifyPosition",
      "type": "event"
    },
    {
      "anonymous": false,
      "inputs": [
        {
          "indexed": true,
          "internalType": "address",
          "name": "oldOwner",
          "type": "address"
        },
        {
          "indexed": true,
          "internalType": "address",
          "name": "newOwner",
          "type": "address"
        }
      ],
      "name": "OwnerChanged",
      "type": "event"
    },
    {
      "anonymous": false,
      "inputs": [
        {
          "indexed": false,
          "internalType": "address",
          "name": "protocolFeeController",
          "type": "address"
        }
      ],
      "name": "ProtocolFeeControllerUpdated",
      "type": "event"
    },
    {
      "anonymous": false,
      "inputs": [
        {
          "indexed": true,
          "internalType": "PoolId",
          "name": "id",
          "type": "bytes32"
        },
        {
          "indexed": false,
          "internalType": "uint24",
          "name": "protocolFees",
          "type": "uint24"
        }
      ],
      "name": "ProtocolFeeUpdated",
      "type": "event"
    },
    {
      "anonymous": false,
      "inputs": [
        {
          "indexed": true,
          "internalType": "PoolId",
          "name": "id",
          "type": "bytes32"
        },
        {
          "indexed": true,
          "internalType": "address",
          "name": "sender",
          "type": "address"
        },
        {
          "indexed": false,
          "internalType": "int128",
          "name": "amount0",
          "type": "int128"
        },
        {
          "indexed": false,
          "internalType": "int128",
          "name": "amount1",
          "type": "int128"
        },
        {
          "indexed": false,
          "internalType": "uint160",
          "name": "sqrtPriceX96",
          "type": "uint160"
        },
        {
          "indexed": false,
          "internalType": "uint128",
          "name": "liquidity",
          "type": "uint128"
        },
        {
          "indexed": false,
          "internalType": "int24",
          "name": "tick",
          "type": "int24"
        },
        {
          "indexed": false,
          "internalType": "uint24",
          "name": "fee",
          "type": "uint24"
        }
      ],
      "name": "Swap",
      "type": "event"
    },
    {
      "anonymous": false,
      "inputs": [
        {
          "indexed": true,
          "internalType": "address",
          "name": "operator",
          "type": "address"
        },
        {
          "indexed": true,
          "internalType": "address",
          "name": "from",
          "type": "address"
        },
        {
          "indexed": true,
          "internalType": "address",
          "name": "to",
          "type": "address"
        },
        {
          "indexed": false,
          "internalType": "uint256[]",
          "name": "ids",
          "type": "uint256[]"
        },
        {
          "indexed": false,
          "internalType": "uint256[]",
          "name": "values",
          "type": "uint256[]"
        }
      ],
      "name": "TransferBatch",
      "type": "event"
    },
    {
      "anonymous": false,
      "inputs": [
        {
          "indexed": true,
          "internalType": "address",
          "name": "operator",
          "type": "address"
        },
        {
          "indexed": true,
          "internalType": "address",
          "name": "from",
          "type": "address"
        },
        {
          "indexed": true,
          "internalType": "address",
          "name": "to",
          "type": "address"
        },
        {
          "indexed": false,
          "internalType": "uint256",
          "name": "id",
          "type": "uint256"
        },
        {
          "indexed": false,
          "internalType": "uint256",
          "name": "value",
          "type": "uint256"
        }
      ],
      "name": "TransferSingle",
      "type": "event"
    },
    {
      "anonymous": false,
      "inputs": [
        {
          "indexed": false,
          "internalType": "string",
          "name": "value",
          "type": "string"
        },
        {
          "indexed": true,
          "internalType": "uint256",
          "name": "id",
          "type": "uint256"
        }
      ],
      "name": "URI",
      "type": "event"
    },
    {
      "inputs": [],
      "name": "MAX_SWAP_FEE",
      "outputs": [
        {
          "internalType": "uint24",
          "name": "",
          "type": "uint24"
        }
      ],
      "stateMutability": "view",
      "type": "function"
    },
    {
      "inputs": [],
      "name": "MAX_TICK_SPACING",
      "outputs": [
        {
          "internalType": "int24",
          "name": "",
          "type": "int24"
        }
      ],
      "stateMutability": "view",
      "type": "function"
    },
    {
      "inputs": [],
      "name": "MIN_PROTOCOL_FEE_DENOMINATOR",
      "outputs": [
        {
          "internalType": "uint8",
          "name": "",
          "type": "uint8"
        }
      ],
      "stateMutability": "view",
      "type": "function"
    },
    {
      "inputs": [],
      "name": "MIN_TICK_SPACING",
      "outputs": [
        {
          "internalType": "int24",
          "name": "",
          "type": "int24"
        }
      ],
      "stateMutability": "view",
      "type": "function"
    },
    {
      "inputs": [
        {
          "internalType": "address",
          "name": "account",
          "type": "address"
        },
        {
          "internalType": "uint256",
          "name": "id",
          "type": "uint256"
        }
      ],
      "name": "balanceOf",
      "outputs": [
        {
          "internalType": "uint256",
          "name": "",
          "type": "uint256"
        }
      ],
      "stateMutability": "view",
      "type": "function"
    },
    {
      "inputs": [
        {
          "internalType": "address[]",
          "name": "accounts",
          "type": "address[]"
        },
        {
          "internalType": "uint256[]",
          "name": "ids",
          "type": "uint256[]"
        }
      ],
      "name": "balanceOfBatch",
      "outputs": [
        {
          "internalType": "uint256[]",
          "name": "",
          "type": "uint256[]"
        }
      ],
      "stateMutability": "view",
      "type": "function"
    },
    {
      "inputs": [
        {
          "internalType": "address",
          "name": "recipient",
          "type": "address"
        },
        {
          "internalType": "Currency",
          "name": "currency",
          "type": "address"
        },
        {
          "internalType": "uint256",
          "name": "amount",
          "type": "uint256"
        }
      ],
      "name": "collectHookFees",
      "outputs": [
        {
          "internalType": "uint256",
          "name": "amountCollected",
          "type": "uint256"
        }
      ],
      "stateMutability": "nonpayable",
      "type": "function"
    },
    {
      "inputs": [
        {
          "internalType": "address",
          "name": "recipient",
          "type": "address"
        },
        {
          "internalType": "Currency",
          "name": "currency",
          "type": "address"
        },
        {
          "internalType": "uint256",
          "name": "amount",
          "type": "uint256"
        }
      ],
      "name": "collectProtocolFees",
      "outputs": [
        {
          "internalType": "uint256",
          "name": "amountCollected",
          "type": "uint256"
        }
      ],
      "stateMutability": "nonpayable",
      "type": "function"
    },
    {
      "inputs": [
        {
          "internalType": "address",
          "name": "locker",
          "type": "address"
        },
        {
          "internalType": "Currency",
          "name": "currency",
          "type": "address"
        }
      ],
      "name": "currencyDelta",
      "outputs": [
        {
          "internalType": "int256",
          "name": "currencyDelta",
          "type": "int256"
        }
      ],
      "stateMutability": "view",
      "type": "function"
    },
    {
      "inputs": [
        {
          "components": [
            {
              "internalType": "Currency",
              "name": "currency0",
              "type": "address"
            },
            {
              "internalType": "Currency",
              "name": "currency1",
              "type": "address"
            },
            {
              "internalType": "uint24",
              "name": "fee",
              "type": "uint24"
            },
            {
              "internalType": "int24",
              "name": "tickSpacing",
              "type": "int24"
            },
            {
              "internalType": "contract IHooks",
              "name": "hooks",
              "type": "address"
            }
          ],
          "internalType": "struct PoolKey",
          "name": "key",
          "type": "tuple"
        },
        {
          "internalType": "uint256",
          "name": "amount0",
          "type": "uint256"
        },
        {
          "internalType": "uint256",
          "name": "amount1",
          "type": "uint256"
        },
        {
          "internalType": "bytes",
          "name": "hookData",
          "type": "bytes"
        }
      ],
      "name": "donate",
      "outputs": [
        {
          "internalType": "BalanceDelta",
          "name": "delta",
          "type": "int256"
        }
      ],
      "stateMutability": "nonpayable",
      "type": "function"
    },
    {
      "inputs": [
        {
          "internalType": "bytes32",
          "name": "slot",
          "type": "bytes32"
        }
      ],
      "name": "extsload",
      "outputs": [
        {
          "internalType": "bytes32",
          "name": "value",
          "type": "bytes32"
        }
      ],
      "stateMutability": "view",
      "type": "function"
    },
    {
      "inputs": [
        {
          "internalType": "bytes32",
          "name": "startSlot",
          "type": "bytes32"
        },
        {
          "internalType": "uint256",
          "name": "nSlots",
          "type": "uint256"
        }
      ],
      "name": "extsload",
      "outputs": [
        {
          "internalType": "bytes",
          "name": "",
          "type": "bytes"
        }
      ],
      "stateMutability": "view",
      "type": "function"
    },
    {
      "inputs": [
        {
          "internalType": "PoolId",
          "name": "id",
          "type": "bytes32"
        },
        {
          "internalType": "address",
          "name": "_owner",
          "type": "address"
        },
        {
          "internalType": "int24",
          "name": "tickLower",
          "type": "int24"
        },
        {
          "internalType": "int24",
          "name": "tickUpper",
          "type": "int24"
        }
      ],
      "name": "getLiquidity",
      "outputs": [
        {
          "internalType": "uint128",
          "name": "liquidity",
          "type": "uint128"
        }
      ],
      "stateMutability": "view",
      "type": "function"
    },
    {
      "inputs": [
        {
          "internalType": "PoolId",
          "name": "id",
          "type": "bytes32"
        }
      ],
      "name": "getLiquidity",
      "outputs": [
        {
          "internalType": "uint128",
          "name": "liquidity",
          "type": "uint128"
        }
      ],
      "stateMutability": "view",
      "type": "function"
    },
    {
      "inputs": [
        {
          "internalType": "uint256",
          "name": "i",
          "type": "uint256"
        }
      ],
      "name": "getLock",
      "outputs": [
        {
          "internalType": "address",
          "name": "locker",
          "type": "address"
        }
      ],
      "stateMutability": "view",
      "type": "function"
    },
    {
      "inputs": [
        {
          "internalType": "PoolId",
          "name": "id",
          "type": "bytes32"
        },
        {
          "internalType": "address",
          "name": "owner",
          "type": "address"
        },
        {
          "internalType": "int24",
          "name": "tickLower",
          "type": "int24"
        },
        {
          "internalType": "int24",
          "name": "tickUpper",
          "type": "int24"
        }
      ],
      "name": "getPosition",
      "outputs": [
        {
          "components": [
            {
              "internalType": "uint128",
              "name": "liquidity",
              "type": "uint128"
            },
            {
              "internalType": "uint256",
              "name": "feeGrowthInside0LastX128",
              "type": "uint256"
            },
            {
              "internalType": "uint256",
              "name": "feeGrowthInside1LastX128",
              "type": "uint256"
            }
          ],
          "internalType": "struct Position.Info",
          "name": "position",
          "type": "tuple"
        }
      ],
      "stateMutability": "view",
      "type": "function"
    },
    {
      "inputs": [
        {
          "internalType": "PoolId",
          "name": "id",
          "type": "bytes32"
        }
      ],
      "name": "getSlot0",
      "outputs": [
        {
          "internalType": "uint160",
          "name": "sqrtPriceX96",
          "type": "uint160"
        },
        {
          "internalType": "int24",
          "name": "tick",
          "type": "int24"
        },
        {
          "internalType": "uint24",
          "name": "protocolFees",
          "type": "uint24"
        },
        {
          "internalType": "uint24",
          "name": "hookFees",
          "type": "uint24"
        }
      ],
      "stateMutability": "view",
      "type": "function"
    },
    {
      "inputs": [
        {
          "internalType": "address",
          "name": "hookAddress",
          "type": "address"
        },
        {
          "internalType": "Currency",
          "name": "currency",
          "type": "address"
        }
      ],
      "name": "hookFeesAccrued",
      "outputs": [
        {
          "internalType": "uint256",
          "name": "",
          "type": "uint256"
        }
      ],
      "stateMutability": "view",
      "type": "function"
    },
    {
      "inputs": [
        {
          "components": [
            {
              "internalType": "Currency",
              "name": "currency0",
              "type": "address"
            },
            {
              "internalType": "Currency",
              "name": "currency1",
              "type": "address"
            },
            {
              "internalType": "uint24",
              "name": "fee",
              "type": "uint24"
            },
            {
              "internalType": "int24",
              "name": "tickSpacing",
              "type": "int24"
            },
            {
              "internalType": "contract IHooks",
              "name": "hooks",
              "type": "address"
            }
          ],
          "internalType": "struct PoolKey",
          "name": "key",
          "type": "tuple"
        },
        {
          "internalType": "uint160",
          "name": "sqrtPriceX96",
          "type": "uint160"
        },
        {
          "internalType": "bytes",
          "name": "hookData",
          "type": "bytes"
        }
      ],
      "name": "initialize",
      "outputs": [
        {
          "internalType": "int24",
          "name": "tick",
          "type": "int24"
        }
      ],
      "stateMutability": "nonpayable",
      "type": "function"
    },
    {
      "inputs": [
        {
          "internalType": "address",
          "name": "account",
          "type": "address"
        },
        {
          "internalType": "address",
          "name": "operator",
          "type": "address"
        }
      ],
      "name": "isApprovedForAll",
      "outputs": [
        {
          "internalType": "bool",
          "name": "",
          "type": "bool"
        }
      ],
      "stateMutability": "view",
      "type": "function"
    },
    {
      "inputs": [
        {
          "internalType": "bytes",
          "name": "data",
          "type": "bytes"
        }
      ],
      "name": "lock",
      "outputs": [
        {
          "internalType": "bytes",
          "name": "result",
          "type": "bytes"
        }
      ],
      "stateMutability": "nonpayable",
      "type": "function"
    },
    {
      "inputs": [],
      "name": "lockData",
      "outputs": [
        {
          "internalType": "uint128",
          "name": "length",
          "type": "uint128"
        },
        {
          "internalType": "uint128",
          "name": "nonzeroDeltaCount",
          "type": "uint128"
        }
      ],
      "stateMutability": "view",
      "type": "function"
    },
    {
      "inputs": [
        {
          "internalType": "Currency",
          "name": "currency",
          "type": "address"
        },
        {
          "internalType": "address",
          "name": "to",
          "type": "address"
        },
        {
          "internalType": "uint256",
          "name": "amount",
          "type": "uint256"
        }
      ],
      "name": "mint",
      "outputs": [],
      "stateMutability": "nonpayable",
      "type": "function"
    },
    {
      "inputs": [
        {
          "components": [
            {
              "internalType": "Currency",
              "name": "currency0",
              "type": "address"
            },
            {
              "internalType": "Currency",
              "name": "currency1",
              "type": "address"
            },
            {
              "internalType": "uint24",
              "name": "fee",
              "type": "uint24"
            },
            {
              "internalType": "int24",
              "name": "tickSpacing",
              "type": "int24"
            },
            {
              "internalType": "contract IHooks",
              "name": "hooks",
              "type": "address"
            }
          ],
          "internalType": "struct PoolKey",
          "name": "key",
          "type": "tuple"
        },
        {
          "components": [
            {
              "internalType": "int24",
              "name": "tickLower",
              "type": "int24"
            },
            {
              "internalType": "int24",
              "name": "tickUpper",
              "type": "int24"
            },
            {
              "internalType": "int256",
              "name": "liquidityDelta",
              "type": "int256"
            }
          ],
          "internalType": "struct IPoolManager.ModifyPositionParams",
          "name": "params",
          "type": "tuple"
        },
        {
          "internalType": "bytes",
          "name": "hookData",
          "type": "bytes"
        }
      ],
      "name": "modifyPosition",
      "outputs": [
        {
          "internalType": "BalanceDelta",
          "name": "delta",
          "type": "int256"
        }
      ],
      "stateMutability": "nonpayable",
      "type": "function"
    },
    {
      "inputs": [
        {
          "internalType": "address",
          "name": "",
          "type": "address"
        },
        {
          "internalType": "address",
          "name": "",
          "type": "address"
        },
        {
          "internalType": "uint256[]",
          "name": "ids",
          "type": "uint256[]"
        },
        {
          "internalType": "uint256[]",
          "name": "values",
          "type": "uint256[]"
        },
        {
          "internalType": "bytes",
          "name": "",
          "type": "bytes"
        }
      ],
      "name": "onERC1155BatchReceived",
      "outputs": [
        {
          "internalType": "bytes4",
          "name": "",
          "type": "bytes4"
        }
      ],
      "stateMutability": "nonpayable",
      "type": "function"
    },
    {
      "inputs": [
        {
          "internalType": "address",
          "name": "",
          "type": "address"
        },
        {
          "internalType": "address",
          "name": "",
          "type": "address"
        },
        {
          "internalType": "uint256",
          "name": "id",
          "type": "uint256"
        },
        {
          "internalType": "uint256",
          "name": "value",
          "type": "uint256"
        },
        {
          "internalType": "bytes",
          "name": "",
          "type": "bytes"
        }
      ],
      "name": "onERC1155Received",
      "outputs": [
        {
          "internalType": "bytes4",
          "name": "",
          "type": "bytes4"
        }
      ],
      "stateMutability": "nonpayable",
      "type": "function"
    },
    {
      "inputs": [],
      "name": "owner",
      "outputs": [
        {
          "internalType": "address",
          "name": "",
          "type": "address"
        }
      ],
      "stateMutability": "view",
      "type": "function"
    },
    {
      "inputs": [
        {
          "internalType": "PoolId",
          "name": "id",
          "type": "bytes32"
        }
      ],
      "name": "pools",
      "outputs": [
        {
          "components": [
            {
              "internalType": "uint160",
              "name": "sqrtPriceX96",
              "type": "uint160"
            },
            {
              "internalType": "int24",
              "name": "tick",
              "type": "int24"
            },
            {
              "internalType": "uint24",
              "name": "protocolFees",
              "type": "uint24"
            },
            {
              "internalType": "uint24",
              "name": "hookFees",
              "type": "uint24"
            },
            {
              "internalType": "uint24",
              "name": "swapFee",
              "type": "uint24"
            }
          ],
          "internalType": "struct Pool.Slot0",
          "name": "slot0",
          "type": "tuple"
        },
        {
          "internalType": "uint256",
          "name": "feeGrowthGlobal0X128",
          "type": "uint256"
        },
        {
          "internalType": "uint256",
          "name": "feeGrowthGlobal1X128",
          "type": "uint256"
        },
        {
          "internalType": "uint128",
          "name": "liquidity",
          "type": "uint128"
        }
      ],
      "stateMutability": "view",
      "type": "function"
    },
    {
      "inputs": [],
      "name": "protocolFeeController",
      "outputs": [
        {
          "internalType": "contract IProtocolFeeController",
          "name": "",
          "type": "address"
        }
      ],
      "stateMutability": "view",
      "type": "function"
    },
    {
      "inputs": [
        {
          "internalType": "Currency",
          "name": "currency",
          "type": "address"
        }
      ],
      "name": "protocolFeesAccrued",
      "outputs": [
        {
          "internalType": "uint256",
          "name": "",
          "type": "uint256"
        }
      ],
      "stateMutability": "view",
      "type": "function"
    },
    {
      "inputs": [
        {
          "internalType": "Currency",
          "name": "currency",
          "type": "address"
        }
      ],
      "name": "reservesOf",
      "outputs": [
        {
          "internalType": "uint256",
          "name": "",
          "type": "uint256"
        }
      ],
      "stateMutability": "view",
      "type": "function"
    },
    {
      "inputs": [
        {
          "internalType": "address",
          "name": "from",
          "type": "address"
        },
        {
          "internalType": "address",
          "name": "to",
          "type": "address"
        },
        {
          "internalType": "uint256[]",
          "name": "ids",
          "type": "uint256[]"
        },
        {
          "internalType": "uint256[]",
          "name": "amounts",
          "type": "uint256[]"
        },
        {
          "internalType": "bytes",
          "name": "data",
          "type": "bytes"
        }
      ],
      "name": "safeBatchTransferFrom",
      "outputs": [],
      "stateMutability": "nonpayable",
      "type": "function"
    },
    {
      "inputs": [
        {
          "internalType": "address",
          "name": "from",
          "type": "address"
        },
        {
          "internalType": "address",
          "name": "to",
          "type": "address"
        },
        {
          "internalType": "uint256",
          "name": "id",
          "type": "uint256"
        },
        {
          "internalType": "uint256",
          "name": "amount",
          "type": "uint256"
        },
        {
          "internalType": "bytes",
          "name": "data",
          "type": "bytes"
        }
      ],
      "name": "safeTransferFrom",
      "outputs": [],
      "stateMutability": "nonpayable",
      "type": "function"
    },
    {
      "inputs": [
        {
          "internalType": "address",
          "name": "operator",
          "type": "address"
        },
        {
          "internalType": "bool",
          "name": "approved",
          "type": "bool"
        }
      ],
      "name": "setApprovalForAll",
      "outputs": [],
      "stateMutability": "nonpayable",
      "type": "function"
    },
    {
      "inputs": [
        {
          "components": [
            {
              "internalType": "Currency",
              "name": "currency0",
              "type": "address"
            },
            {
              "internalType": "Currency",
              "name": "currency1",
              "type": "address"
            },
            {
              "internalType": "uint24",
              "name": "fee",
              "type": "uint24"
            },
            {
              "internalType": "int24",
              "name": "tickSpacing",
              "type": "int24"
            },
            {
              "internalType": "contract IHooks",
              "name": "hooks",
              "type": "address"
            }
          ],
          "internalType": "struct PoolKey",
          "name": "key",
          "type": "tuple"
        }
      ],
      "name": "setHookFees",
      "outputs": [],
      "stateMutability": "nonpayable",
      "type": "function"
    },
    {
      "inputs": [
        {
          "internalType": "address",
          "name": "_owner",
          "type": "address"
        }
      ],
      "name": "setOwner",
      "outputs": [],
      "stateMutability": "nonpayable",
      "type": "function"
    },
    {
      "inputs": [
        {
          "internalType": "contract IProtocolFeeController",
          "name": "controller",
          "type": "address"
        }
      ],
      "name": "setProtocolFeeController",
      "outputs": [],
      "stateMutability": "nonpayable",
      "type": "function"
    },
    {
      "inputs": [
        {
          "components": [
            {
              "internalType": "Currency",
              "name": "currency0",
              "type": "address"
            },
            {
              "internalType": "Currency",
              "name": "currency1",
              "type": "address"
            },
            {
              "internalType": "uint24",
              "name": "fee",
              "type": "uint24"
            },
            {
              "internalType": "int24",
              "name": "tickSpacing",
              "type": "int24"
            },
            {
              "internalType": "contract IHooks",
              "name": "hooks",
              "type": "address"
            }
          ],
          "internalType": "struct PoolKey",
          "name": "key",
          "type": "tuple"
        }
      ],
      "name": "setProtocolFees",
      "outputs": [],
      "stateMutability": "nonpayable",
      "type": "function"
    },
    {
      "inputs": [
        {
          "internalType": "Currency",
          "name": "currency",
          "type": "address"
        }
      ],
      "name": "settle",
      "outputs": [
        {
          "internalType": "uint256",
          "name": "paid",
          "type": "uint256"
        }
      ],
      "stateMutability": "payable",
      "type": "function"
    },
    {
      "inputs": [
        {
          "internalType": "bytes4",
          "name": "interfaceId",
          "type": "bytes4"
        }
      ],
      "name": "supportsInterface",
      "outputs": [
        {
          "internalType": "bool",
          "name": "",
          "type": "bool"
        }
      ],
      "stateMutability": "view",
      "type": "function"
    },
    {
      "inputs": [
        {
          "components": [
            {
              "internalType": "Currency",
              "name": "currency0",
              "type": "address"
            },
            {
              "internalType": "Currency",
              "name": "currency1",
              "type": "address"
            },
            {
              "internalType": "uint24",
              "name": "fee",
              "type": "uint24"
            },
            {
              "internalType": "int24",
              "name": "tickSpacing",
              "type": "int24"
            },
            {
              "internalType": "contract IHooks",
              "name": "hooks",
              "type": "address"
            }
          ],
          "internalType": "struct PoolKey",
          "name": "key",
          "type": "tuple"
        },
        {
          "components": [
            {
              "internalType": "bool",
              "name": "zeroForOne",
              "type": "bool"
            },
            {
              "internalType": "int256",
              "name": "amountSpecified",
              "type": "int256"
            },
            {
              "internalType": "uint160",
              "name": "sqrtPriceLimitX96",
              "type": "uint160"
            }
          ],
          "internalType": "struct IPoolManager.SwapParams",
          "name": "params",
          "type": "tuple"
        },
        {
          "internalType": "bytes",
          "name": "hookData",
          "type": "bytes"
        }
      ],
      "name": "swap",
      "outputs": [
        {
          "internalType": "BalanceDelta",
          "name": "delta",
          "type": "int256"
        }
      ],
      "stateMutability": "nonpayable",
      "type": "function"
    },
    {
      "inputs": [
        {
          "internalType": "Currency",
          "name": "currency",
          "type": "address"
        },
        {
          "internalType": "address",
          "name": "to",
          "type": "address"
        },
        {
          "internalType": "uint256",
          "name": "amount",
          "type": "uint256"
        }
      ],
      "name": "take",
      "outputs": [],
      "stateMutability": "nonpayable",
      "type": "function"
    },
    {
      "inputs": [
        {
          "components": [
            {
              "internalType": "Currency",
              "name": "currency0",
              "type": "address"
            },
            {
              "internalType": "Currency",
              "name": "currency1",
              "type": "address"
            },
            {
              "internalType": "uint24",
              "name": "fee",
              "type": "uint24"
            },
            {
              "internalType": "int24",
              "name": "tickSpacing",
              "type": "int24"
            },
            {
              "internalType": "contract IHooks",
              "name": "hooks",
              "type": "address"
            }
          ],
          "internalType": "struct PoolKey",
          "name": "key",
          "type": "tuple"
        }
      ],
      "name": "updateDynamicSwapFee",
      "outputs": [],
      "stateMutability": "nonpayable",
      "type": "function"
    },
    {
      "inputs": [
        {
          "internalType": "uint256",
          "name": "",
          "type": "uint256"
        }
      ],
      "name": "uri",
      "outputs": [
        {
          "internalType": "string",
          "name": "",
          "type": "string"
        }
      ],
      "stateMutability": "view",
      "type": "function"
    },
    {
      "stateMutability": "payable",
      "type": "receive"
    }
  ],
  "bytecode": {
    "object": "0x60c06040523480156200001157600080fd5b5060405162007706380380620077068339810160408190526200003491620000af565b60408051602081018252600080825280546001600160a01b0319163390811782559251919284929091907fb532073b38c83145e3e5135377a08bf9aab55bc0fd7c1179cd4fb995d2a5159c908290a36080523060a05262000095816200009d565b50506200023c565b6006620000ab828262000170565b5050565b600060208284031215620000c257600080fd5b5051919050565b634e487b7160e01b600052604160045260246000fd5b600181811c90821680620000f457607f821691505b6020821081036200011557634e487b7160e01b600052602260045260246000fd5b50919050565b601f8211156200016b576000816000526020600020601f850160051c81016020861015620001465750805b601f850160051c820191505b81811015620001675782815560010162000152565b5050505b505050565b81516001600160401b038111156200018c576200018c620000c9565b620001a4816200019d8454620000df565b846200011b565b602080601f831160018114620001dc5760008415620001c35750858301515b600019600386901b1c1916600185901b17855562000167565b600085815260208120601f198616915b828110156200020d57888601518255948401946001909101908401620001ec565b50858210156200022c5787850151600019600388901b60f8161c191681555b5050505050600190811b01905550565b60805160a05161749d6200026960003960006126c3015260008181612a140152612a77015261749d6000f3fe6080604052600436106102ea5760003560e01c806384e41c5e11610184578063c6c3bbe6116100d6578063f02de3b21161008a578063f3cd914c11610064578063f3cd914c14610b43578063f8fcd15614610b63578063fa6793d514610bae57600080fd5b8063f02de3b214610ae3578063f23a6e6114610b03578063f242432a14610b2357600080fd5b8063d68f4dd1116100bb578063d68f4dd114610a5a578063e985e9c514610a7a578063effd18c014610ac357600080fd5b8063c6c3bbe614610972578063c815641c1461099257600080fd5b8063a54b283111610138578063b4c4193911610112578063b4c41939146107ef578063b5217bb414610827578063bc197c811461093957600080fd5b8063a54b28311461076c578063ab3d8544146107a4578063af440f82146107cf57600080fd5b806393c85a211161016957806393c85a21146106f257806397e8cd4e1461071f578063a22cb4651461074c57600080fd5b806384e41c5e146106935780638da5cb5b146106ba57600080fd5b80632eb2c2d61161023d57806360460f06116101f15780636a256b29116101cb5780636a256b291461064057806381548319146106535780638161b8741461067357600080fd5b806360460f06146105ea57806361ae449a14610600578063695c5bf51461062057600080fd5b806335fd631a1161022257806335fd631a1461057d57806348a767031461059d5780634e1273f4146105bd57600080fd5b80632eb2c2d6146104ba57806333aa955b146104da57600080fd5b80630e89341c1161029f578063234266d711610279578063234266d71461045a578063282076cc1461047a5780632d7713891461049a57600080fd5b80630e89341c146103ee57806313af40351461041b5780631e2eaeaf1461043b57600080fd5b8063048d9c70116102d0578063048d9c701461035957806307eff0dd146103a45780630b0d9c09146103cc57600080fd5b8062fdd58e146102f657806301ffc9a71461032957600080fd5b366102f157005b600080fd5b34801561030257600080fd5b50610316610311366004616042565b610be7565b6040519081526020015b60405180910390f35b34801561033557600080fd5b50610349610344366004616084565b610c95565b6040519015158152602001610320565b34801561036557600080fd5b506103796103743660046160b3565b610ce5565b6040805182516001600160801b03168152602080840151908201529181015190820152606001610320565b3480156103b057600080fd5b506103b9600181565b60405160029190910b8152602001610320565b3480156103d857600080fd5b506103ec6103e7366004616102565b610da6565b005b3480156103fa57600080fd5b5061040e610409366004616143565b610e4a565b60405161032091906161ac565b34801561042757600080fd5b506103ec6104363660046161bf565b610ede565b34801561044757600080fd5b50610316610456366004616143565b5490565b34801561046657600080fd5b50610316610475366004616339565b610f71565b34801561048657600080fd5b506103ec6104953660046163a3565b611166565b3480156104a657600080fd5b506103ec6104b53660046161bf565b6111d9565b3480156104c657600080fd5b506103ec6104d53660046164dd565b611265565b3480156104e657600080fd5b506105656104f53660046160b3565b6000938452600a60209081526040808620815160609690961b6bffffffffffffffffffffffff19168684015260e894851b60348701529290931b60378501528251601a818603018152603a909401835283519381019390932084526006019091529020546001600160801b031690565b6040516001600160801b039091168152602001610320565b34801561058957600080fd5b5061040e61059836600461658b565b611307565b3480156105a957600080fd5b506103ec6105b83660046163a3565b611387565b3480156105c957600080fd5b506105dd6105d83660046165ad565b61141c565b60405161032091906166b6565b3480156105f657600080fd5b506103b9617fff81565b34801561060c57600080fd5b5061031661061b3660046166c9565b61154a565b34801561062c57600080fd5b506103b961063b36600461676a565b611927565b61031661064e3660046161bf565b611cbc565b34801561065f57600080fd5b5061040e61066e3660046167b6565b611d70565b34801561067f57600080fd5b5061031661068e366004616102565b611ebb565b34801561069f57600080fd5b506106a8600481565b60405160ff9091168152602001610320565b3480156106c657600080fd5b506000546106da906001600160a01b031681565b6040516001600160a01b039091168152602001610320565b3480156106fe57600080fd5b5061031661070d3660046161bf565b60096020526000908152604090205481565b34801561072b57600080fd5b5061031661073a3660046161bf565b60016020526000908152604090205481565b34801561075857600080fd5b506103ec610767366004616808565b611f74565b34801561077857600080fd5b5061031661078736600461683d565b600860209081526000928352604080842090915290825290205481565b3480156107b057600080fd5b506107bb620f424081565b60405162ffffff9091168152602001610320565b3480156107db57600080fd5b506103ec6107ea3660046163a3565b611f83565b3480156107fb57600080fd5b5061031661080a36600461683d565b600260209081526000928352604080842090915290825290205481565b34801561083357600080fd5b506108c9610842366004616143565b600a60209081526000918252604091829020825160a08101845281546001600160a01b0381168252600160a01b8104600290810b9483019490945262ffffff600160b81b8204811695830195909552600160d01b810485166060830152600160e81b900490931660808401526001810154918101546003909101546001600160801b031684565b6040805185516001600160a01b0316815260208087015160020b908201528582015162ffffff908116928201929092526060808701518316908201526080958601519091169481019490945260a084019290925260c08301526001600160801b031660e082015261010001610320565b34801561094557600080fd5b506109596109543660046168bb565b611fed565b6040516001600160e01b03199091168152602001610320565b34801561097e57600080fd5b506103ec61098d366004616102565b612078565b34801561099e57600080fd5b50610a226109ad366004616143565b6000908152600a6020908152604091829020825160a08101845290546001600160a01b038116808352600160a01b820460020b93830184905262ffffff600160b81b83048116958401869052600160d01b8304811660608501819052600160e81b909304166080909301929092529093919291565b604080516001600160a01b03909516855260029390930b602085015262ffffff91821692840192909252166060820152608001610320565b348015610a6657600080fd5b506106da610a75366004616143565b6120f3565b348015610a8657600080fd5b50610349610a9536600461683d565b6001600160a01b03918216600090815260056020908152604080832093909416825291909152205460ff1690565b348015610acf57600080fd5b50610316610ade366004616102565b61211f565b348015610aef57600080fd5b506003546106da906001600160a01b031681565b348015610b0f57600080fd5b50610959610b1e36600461697a565b6121c4565b348015610b2f57600080fd5b506103ec610b3e3660046169f6565b612203565b348015610b4f57600080fd5b50610316610b5e366004616a5f565b61229e565b348015610b6f57600080fd5b50600754610b8e906001600160801b0380821691600160801b90041682565b604080516001600160801b03938416815292909116602083015201610320565b348015610bba57600080fd5b50610565610bc9366004616143565b6000908152600a60205260409020600301546001600160801b031690565b60006001600160a01b038316610c6a5760405162461bcd60e51b815260206004820152602b60248201527f455243313135353a2062616c616e636520717565727920666f7220746865207a60448201527f65726f206164647265737300000000000000000000000000000000000000000060648201526084015b60405180910390fd5b5060008181526004602090815260408083206001600160a01b03861684529091529020545b92915050565b60006001600160e01b03198216636cdb3d1360e11b1480610cc657506001600160e01b031982166303a24d0760e21b145b80610c8f57506301ffc9a760e01b6001600160e01b0319831614610c8f565b610d12604051806060016040528060006001600160801b0316815260200160008152602001600081525090565b6000858152600a6020908152604080832081516bffffffffffffffffffffffff1960608a901b168185015260e888811b603483015287901b60378201528251808203601a018152603a9091018352805190840120845260060190915290206040805160608101825282546001600160801b03168152600183015460208201526002909201549082015290505b949350505050565b610dae6126b8565b6000610dba6007612703565b9050336001600160a01b03821614610df0576040516313d2c13360e21b81526001600160a01b0382166004820152602401610c61565b610e0284610dfd84612750565b612773565b6001600160a01b03841660009081526009602052604081208054849290610e2a908490616b00565b90915550610e4490506001600160a01b038516848461285b565b50505050565b606060068054610e5990616b13565b80601f0160208091040260200160405190810160405280929190818152602001828054610e8590616b13565b8015610ed25780601f10610ea757610100808354040283529160200191610ed2565b820191906000526020600020905b815481529060010190602001808311610eb557829003601f168201915b50505050509050919050565b6000546001600160a01b03163314610f09576040516348f5c3ed60e01b815260040160405180910390fd5b600080546040516001600160a01b03808516939216917fb532073b38c83145e3e5135377a08bf9aab55bc0fd7c1179cd4fb995d2a5159c91a36000805473ffffffffffffffffffffffffffffffffffffffff19166001600160a01b0392909216919091179055565b6000610f7b6126b8565b6000610f876007612703565b9050336001600160a01b03821614610fbd576040516313d2c13360e21b81526001600160a01b0382166004820152602401610c61565b60808701517302000000000000000000000000000000000000001615611084576080870151604051635b54587d60e11b808252916001600160a01b03169063b6a8b0fa906110199033908c908c908c908c908c90600401616b76565b6020604051808303816000875af1158015611038573d6000803e3d6000fd5b505050506040513d601f19601f8201168201806040525081019061105c9190616bf6565b6001600160e01b0319161461108457604051631e048e1d60e01b815260040160405180910390fd5b61109986866110928a6128f5565b9190612919565b91506110a587836129db565b6080870151600160981b161561115c57608087015160405163e1b4af6960e01b808252916001600160a01b03169063e1b4af69906110f19033908c908c908c908c908c90600401616b76565b6020604051808303816000875af1158015611110573d6000803e3d6000fd5b505050506040513d601f19601f820116820180604052508101906111349190616bf6565b6001600160e01b0319161461115c57604051631e048e1d60e01b815260040160405180910390fd5b5095945050505050565b6000611171826129fa565b9050600061117e83612b08565b6000818152600a602052604090209091506111999083612b38565b60405162ffffff8316815281907fe9c42593e71f84403b84352cd168d693e2c9fcd1fdbcc3feb21d92b43e6696f9906020015b60405180910390a2505050565b6000546001600160a01b03163314611204576040516348f5c3ed60e01b815260040160405180910390fd5b6003805473ffffffffffffffffffffffffffffffffffffffff19166001600160a01b0383169081179091556040519081527fb4bd8ef53df690b9943d3318996006dbb82a25f54719d8c8035b516a2a5b8acc9060200160405180910390a150565b6001600160a01b03851633148061128157506112818533610a95565b6112f35760405162461bcd60e51b815260206004820152603260248201527f455243313135353a207472616e736665722063616c6c6572206973206e6f742060448201527f6f776e6572206e6f7220617070726f76656400000000000000000000000000006064820152608401610c61565b6113008585858585612b9b565b5050505050565b60606000611316836020616c13565b67ffffffffffffffff81111561132e5761132e6161dc565b6040519080825280601f01601f191660200182016040528015611358576020820181803683370190505b50905060005b8381101561137f57808501546020600183010283015260018101905061135e565b509392505050565b60408101516280000016156114005760006113a182612e0a565b905060006113ae83612b08565b6000818152600a602052604090209091506113c99083612eaf565b60405162ffffff8316815281907fdda45bdfb4c4d89a045919c537cb189db3745c4b1977d65f1d7cf60b585e7b72906020016111cc565b604051636807896960e11b815260040160405180910390fd5b50565b606081518351146114955760405162461bcd60e51b815260206004820152602960248201527f455243313135353a206163636f756e747320616e6420696473206c656e67746860448201527f206d69736d6174636800000000000000000000000000000000000000000000006064820152608401610c61565b6000835167ffffffffffffffff8111156114b1576114b16161dc565b6040519080825280602002602001820160405280156114da578160200160208202803683370190505b50905060005b845181101561137f576115258582815181106114fe576114fe616c2a565b602002602001015185838151811061151857611518616c2a565b6020026020010151610be7565b82828151811061153757611537616c2a565b60209081029190910101526001016114e0565b60006115546126b8565b60006115606007612703565b9050336001600160a01b03821614611596576040516313d2c13360e21b81526001600160a01b0382166004820152602401610c61565b6080860151732000000000000000000000000000000000000000161561165b57608086015160405163fe9a6f4560e01b808252916001600160a01b03169063fe9a6f45906115f09033908b908b908b908b90600401616c40565b6020604051808303816000875af115801561160f573d6000803e3d6000fd5b505050506040513d601f19601f820116820180604052508101906116339190616bf6565b6001600160e01b0319161461165b57604051631e048e1d60e01b815260040160405180910390fd5b600061166687612b08565b90506116936040518060800160405280600081526020016000815260200160008152602001600081525090565b6116fe6040518060a00160405280336001600160a01b03168152602001896000015160020b8152602001896020015160020b81526020016116d78a60400151612f0f565b600f0b815260608b015160020b6020918201526000858152600a9091526040902090612f20565b909450905061170d88856129db565b80511561173757805188516001600160a01b03166000908152600160205260409020805490910190555b60208101511561176b57602080820151898201516001600160a01b0316600090815260019092526040909120805490910190555b6040810151156117b15760408082015160808a01516001600160a01b039081166000908152600260209081528482208d5190931682529190915291909120805490910190555b6060810151156117f657606081015160808901516001600160a01b039081166000908152600260209081526040808320828e0151909416835292905220805490910190555b608088015173100000000000000000000000000000000000000016156118bd5760808801516040516330b7cdef60e01b808252916001600160a01b0316906330b7cdef906118529033908d908d908b908e908e90600401616ce4565b6020604051808303816000875af1158015611871573d6000803e3d6000fd5b505050506040513d601f19601f820116820180604052508101906118959190616bf6565b6001600160e01b031916146118bd57604051631e048e1d60e01b815260040160405180910390fd5b865160208801516040808a01519051339386937fc54f65a0367b92850ef8e90f7e302da8b0a137ab343132a9b8d0e63e684bf53c9361191493600293840b81529190920b6020820152604081019190915260600190565b60405180910390a3505050949350505050565b6040840151600090620f4240620fffff9091161061195857604051637e2df70960e11b815260040160405180910390fd5b6060850151617fff60029190910b131561198557604051635815aee160e11b815260040160405180910390fd5b600160020b856060015160020b12156119b157604051630b7f3b4b60e11b815260040160405180910390fd5b845160208601516001600160a01b039081169116106119e3576040516305a25e7160e11b815260040160405180910390fd5b611a07856040015186608001516001600160a01b031661347390919063ffffffff16565b611a35576080850151604051630732d7b560e51b81526001600160a01b039091166004820152602401610c61565b60808501517380000000000000000000000000000000000000001615611afa5760808501516040516301a206c160e51b808252916001600160a01b031690633440d82090611a8f9033908a908a908a908a90600401616d83565b6020604051808303816000875af1158015611aae573d6000803e3d6000fd5b505050506040513d601f19601f82011682018060405250810190611ad29190616bf6565b6001600160e01b03191614611afa57604051631e048e1d60e01b815260040160405180910390fd5b6000611b0586612b08565b60408701519091506000906280000016611b28576040870151620fffff16611b31565b611b3187612e0a565b9050611b6086611b40896129fa565b611b498a6134f4565b6000868152600a60205260409020929190856135c7565b60808801519093507340000000000000000000000000000000000000001615611c2a57608087015160405163a910f80f60e01b808252916001600160a01b03169063a910f80f90611bbf9033908c908c908a908d908d90600401616dff565b6020604051808303816000875af1158015611bde573d6000803e3d6000fd5b505050506040513d601f19601f82011682018060405250810190611c029190616bf6565b6001600160e01b03191614611c2a57604051631e048e1d60e01b815260040160405180910390fd5b86602001516001600160a01b031687600001516001600160a01b0316837f3fd553db44f207b1f41348cfc4d251860814af9eadc470e8e7895e4d120511f48a604001518b606001518c60800151604051611caa9392919062ffffff93909316835260029190910b60208301526001600160a01b0316604082015260600190565b60405180910390a45050949350505050565b6000611cc66126b8565b6000611cd26007612703565b9050336001600160a01b03821614611d08576040516313d2c13360e21b81526001600160a01b0382166004820152602401610c61565b6001600160a01b03831660008181526009602052604090205490611d2b906136e2565b6001600160a01b0385166000908152600960205260409020819055611d51908290616b00565b9250611d6984611d6085612750565b610dfd90616e86565b5050919050565b6060611dcc60073381546001600160801b039081167f760a9a962ae3d184e99c0483cf5684fb3170f47116ca4f445c50209da4f4f90681019290925582546fffffffffffffffffffffffffffffffff1916600190920116179055565b6040516355b148ff60e11b8152339063ab6291fe90611df19086908690600401616eb5565b6000604051808303816000875af1158015611e10573d6000803e3d6000fd5b505050506040513d6000823e601f3d908101601f19168201604052611e389190810190616ec9565b6007549091506001600160801b0316600103611e8957600754600160801b90046001600160801b031615611e7f57604051635212cba160e01b815260040160405180910390fd5b6000600755610c8f565b600780546fffffffffffffffffffffffffffffffff1981166001600160801b0391821660001901909116179055610c8f565b600080546001600160a01b03163314801590611ee257506003546001600160a01b03163314155b15611f00576040516348f5c3ed60e01b815260040160405180910390fd5b8115611f0c5781611f26565b6001600160a01b0383166000908152600160205260409020545b6001600160a01b038416600090815260016020526040812080549293508392909190611f53908490616b00565b90915550611f6d90506001600160a01b038416858361285b565b9392505050565b611f7f338383613761565b5050565b6000611f8e826134f4565b90506000611f9b83612b08565b6000818152600a60205260409020909150611fb69083613855565b60405162ffffff8316815281907fc939c5b4f4e3398eb275de825cd913cca3ade8d1f42daa0ffe1d88accd407158906020016111cc565b600033301461200f576040516314fe96b960e21b815260040160405180910390fd5b60005b868110156120625761205a61203c89898481811061203257612032616c2a565b9050602002013590565b87878481811061204e5761204e616c2a565b9050602002013561389f565b600101612012565b5063bc197c8160e01b9998505050505050505050565b6120806126b8565b600061208c6007612703565b9050336001600160a01b038216146120c2576040516313d2c13360e21b81526001600160a01b0382166004820152602401610c61565b6120cf84610dfd84612750565b610e44836001600160a01b03861684604051806020016040528060008152506138c0565b6000610c8f827f760a9a962ae3d184e99c0483cf5684fb3170f47116ca4f445c50209da4f4f906015490565b600033821561212e5782612155565b6001600160a01b038082166000908152600260209081526040808320938816835292905220545b91506001600160a01b0385161561216c578461216e565b805b6001600160a01b0380831660009081526002602090815260408083209389168352929052908120805492975084929091906121aa908490616b00565b9091555061137f90506001600160a01b038516868461285b565b60003330146121e6576040516314fe96b960e21b815260040160405180910390fd5b6121f0858561389f565b5063f23a6e6160e01b9695505050505050565b6001600160a01b03851633148061221f575061221f8533610a95565b6122915760405162461bcd60e51b815260206004820152602960248201527f455243313135353a2063616c6c6572206973206e6f74206f776e6572206e6f7260448201527f20617070726f76656400000000000000000000000000000000000000000000006064820152608401610c61565b61130085858585856139cc565b60006122a86126b8565b60006122b46007612703565b9050336001600160a01b038216146122ea576040516313d2c13360e21b81526001600160a01b0382166004820152602401610c61565b608086015173080000000000000000000000000000000000000016156123af5760808601516040516315d7892d60e21b808252916001600160a01b03169063575e24b4906123449033908b908b908b908b90600401616f4b565b6020604051808303816000875af1158015612363573d6000803e3d6000fd5b505050506040513d601f19601f820116820180604052508101906123879190616bf6565b6001600160e01b031916146123af57604051631e048e1d60e01b815260040160405180910390fd5b60006123ba87612b08565b9050600080600061240f6040518060c00160405280600081526020016000815260200160006001600160a01b03168152602001600060020b81526020016000815260200160006001600160801b031681525090565b61247260405180608001604052808d6060015160020b81526020018c60000151151581526020018c6020015181526020018c604001516001600160a01b0316815250600a6000888152602001908152602001600020613b6e90919063ffffffff16565b939a509196509450925090506124888b886129db565b83156124ca5783600160008c600001516124a6578d602001516124a9565b8d515b6001600160a01b031681526020810191909152604001600020805490910190555b82156125235760808b01516001600160a01b031660009081526002602052604081208b518592906124ff578d60200151612502565b8d515b6001600160a01b031681526020810191909152604001600020805490910190555b60808b0151730400000000000000000000000000000000000000161561260f5763b47b2fb160e01b7bffffffffffffffffffffffffffffffffffffffffffffffffffffffff19168b608001516001600160a01b031663b47b2fb1338e8e8c8f8f6040518763ffffffff1660e01b81526004016125a496959493929190616fd7565b6020604051808303816000875af11580156125c3573d6000803e3d6000fd5b505050506040513d601f19601f820116820180604052508101906125e79190616bf6565b6001600160e01b0319161461260f57604051631e048e1d60e01b815260040160405180910390fd5b33857f40e9cecb9f5f1f1c5b9c97dec2917b7ee92e57ba5563708daca94dd84ad7112f61263c8a60801c90565b8a60408087015160a0880151606089015192516126a2959493908b90600f96870b81529490950b60208501526001600160a01b039290921660408401526001600160801b0316606083015260020b608082015262ffffff9190911660a082015260c00190565b60405180910390a3505050505050949350505050565b306001600160a01b037f00000000000000000000000000000000000000000000000000000000000000001614612701576040516306c4a1c760e11b815260040160405180910390fd5b565b8054600090610c8f90612721906001906001600160801b0316617063565b6001600160801b03167f760a9a962ae3d184e99c0483cf5684fb3170f47116ca4f445c50209da4f4f906015490565b60006f7fffffffffffffffffffffffffffffff82111561276f57600080fd5b5090565b80600f0b600003612782575050565b600061278e6007612703565b6001600160a01b0380821660009081526008602090815260408083209388168352929052908120549192506127c7600f85900b8361708a565b9050806000036127fd57600780546000196001600160801b03600160801b8084048216929092018116909102911617905561282c565b8160000361282c576007805460016001600160801b03600160801b808404821692909201811690910291161790555b6001600160a01b0392831660009081526008602090815260408083209790951682529590955291909320555050565b60006001600160a01b03841661289a5760008060008085875af190508061289557604051633d2cec6f60e21b815260040160405180910390fd5b610e44565b60405163a9059cbb60e01b6000528360045282602452602060006044600080895af13d15601f3d1160016000511416171691506000606052806040525080610e4457604051633c9fd93960e21b815260040160405180910390fd5b6000600a600061290484612b08565b81526020019081526020016000209050919050565b60038301546000906001600160801b031681036129495760405163a74f97ab60e01b815260040160405180910390fd5b61297161295584612750565b61295e84612750565b6001600160801b031660809190911b1790565b905082156129a4576003840154612998908490600160801b906001600160801b031661446f565b60018501805490910190555b8115611f6d5760038401546129c9908390600160801b906001600160801b031661446f565b60028501805490910190559392505050565b81516129eb90610dfd8360801c90565b611f7f8260200151610dfd8390565b600354600090819081906001600160a01b031615611d69577f00000000000000000000000000000000000000000000000000000000000000005a1015612a5357604051630f724b8160e11b815260040160405180910390fd5b60035460405163d6ec458560e01b81526001600160a01b039091169063d6ec4585907f000000000000000000000000000000000000000000000000000000000000000090612aa59088906004016170b2565b6020604051808303818786fa93505050508015612adf575060408051601f3d908101601f19168201909252612adc91810190617102565b60015b15612af657925050610fff600c83901c8116915082165b612aff82614511565b611d6981614511565b600081604051602001612b1b91906170b2565b604051602081830303815290604052805190602001209050919050565b81546001600160a01b0316600003612b635760405163486aa30760e01b815260040160405180910390fd5b815462ffffff909116600160b81b027fffffffffffff000000ffffffffffffffffffffffffffffffffffffffffffffff909116179055565b8151835114612c125760405162461bcd60e51b815260206004820152602860248201527f455243313135353a2069647320616e6420616d6f756e7473206c656e6774682060448201527f6d69736d617463680000000000000000000000000000000000000000000000006064820152608401610c61565b6001600160a01b038416612c765760405162461bcd60e51b815260206004820152602560248201527f455243313135353a207472616e7366657220746f20746865207a65726f206164604482015264647265737360d81b6064820152608401610c61565b3360005b8451811015612d9c576000858281518110612c9757612c97616c2a565b602002602001015190506000858381518110612cb557612cb5616c2a565b60209081029190910181015160008481526004835260408082206001600160a01b038e168352909352919091205490915081811015612d495760405162461bcd60e51b815260206004820152602a60248201527f455243313135353a20696e73756666696369656e742062616c616e636520666f60448201526939103a3930b739b332b960b11b6064820152608401610c61565b60008381526004602090815260408083206001600160a01b038e8116855292528083208585039055908b16825281208054849290612d8890849061711f565b909155505060019093019250612c7a915050565b50846001600160a01b0316866001600160a01b0316826001600160a01b03167f4a39dc06d4c0dbc64b70af90fd698a233a518aa5d07e595d983b8c0526c8f7fb8787604051612dec929190617132565b60405180910390a4612e0281878787878761458a565b505050505050565b6080810151604051630a43ce8960e01b81526000916001600160a01b031690630a43ce8990612e3f9033908690600401617157565b602060405180830381865afa158015612e5c573d6000803e3d6000fd5b505050506040513d601f19601f82011682018060405250810190612e809190617102565b9050620f424062ffffff821610612eaa57604051637e2df70960e11b815260040160405180910390fd5b919050565b81546001600160a01b0316600003612eda5760405163486aa30760e01b815260040160405180910390fd5b815462ffffff909116600160e81b027cffffffffffffffffffffffffffffffffffffffffffffffffffffffffff909116179055565b80600f81900b8114612eaa57600080fd5b6000612f4d6040518060800160405280600081526020016000815260200160008152602001600081525090565b83546001600160a01b0316600003612f785760405163486aa30760e01b815260040160405180910390fd5b612f8a8360200151846040015161472f565b6040805160c081018252600080825260208201819052918101829052606081018290526080810182905260a0810182905281906060860151600f0b1561310d57612fdf878760200151886060015160006147cb565b6001600160801b03166020830152151581526040860151606087015161300891899160016147cb565b6001600160801b031660608084019190915290151560408301528601516000600f9190910b13156130cc57600061304287608001516148a5565b9050806001600160801b031682602001516001600160801b0316111561308757602087015160405163b8e3c38560e01b815260029190910b6004820152602401610c61565b806001600160801b031682606001516001600160801b031611156130ca57604080880151905163b8e3c38560e01b815260029190910b6004820152602401610c61565b505b8051156130eb57602086015160808701516130eb9160058a01916148d3565b80604001511561310d576040860151608087015161310d9160058a01916148d3565b6131208787602001518860400151614972565b60a0830181905260808301829052606088810151895160208b8101516040808e015181519490961b6bffffffffffffffffffffffff19168484015260e891821b603485015294901b60378301528351601a818403018152603a9092018452815191810191909120600090815260068d01909152919091206131a2939092614a29565b809350819450505060008660600151600f0b121561321f578051156131ee576131ee878760200151600290810b6000908152600490920160205260408220828155600181018390550155565b80604001511561321f57604080870151600290810b600090815260048a016020529182208281556001810183905501555b506060850151600f0b156133c55760208501518654600291820b600160a01b90910490910b12156132925761328b8461328661328061327b6132648a60200151614b5b565b6132718b60400151614b5b565b8b60600151614e7e565b612f0f565b60801b90565b614ebd565b93506133c5565b60408501518654600291820b600160a01b90910490910b121561338f5785546040860151613306918691613286916132db9161327b916001600160a01b03169061327190614b5b565b61295e61327b6132ee8b60200151614b5b565b8c5460608d01516001600160a01b0390911690614ee7565b935060008560600151600f0b12613339576060850151600387015461333491906001600160801b03166171b6565b61335f565b846060015161334790616e86565b600387015461335f91906001600160801b0316617063565b6003870180546fffffffffffffffffffffffffffffffff19166001600160801b03929092169190911790556133c5565b6133c284613286600061295e61327b6133ab8b60200151614b5b565b6133b88c60400151614b5b565b8c60600151614ee7565b93505b60008560600151600f0b1280156133e757508554600160d01b9004610fff1615155b1561344a576133f68685614f16565b92506134478461328661340c8660000151612750565b6134198760400151612750565b61342391906171d6565b6134308760200151612750565b61343d8860600151612750565b61295e91906171d6565b93505b6134688461346361345a85612750565b61295e85612750565b615114565b935050509250929050565b60006001600160a01b038316156134cb57600160981b836001600160a01b03161015806134a4575062800000821615155b806134b3575062400000821615155b806134c657506220000082161515611f6d565b611f6d565b6280000082161580156134e15750624000008216155b8015611f6d575050622000001615919050565b60808101516000906001600160a01b031615612eaa5781608001516001600160a01b0316635ae4ce58836040518263ffffffff1660e01b815260040161353a91906170b2565b602060405180830381865afa925050508015613573575060408051601f3d908101601f1916820190925261357091810190617102565b60015b15612eaa5760408301516000906240000016613590576000613595565b62fff0005b604085015190915060009062200000166135b05760006135b4565b610fff5b61ffff1691909117919091169392505050565b84546000906001600160a01b0316156135f357604051637983c05160e01b815260040160405180910390fd5b6135fc85615141565b6040805160a0810182526001600160a01b0397909716808852600283900b602089015262ffffff968716918801829052948616606088018190529386166080909701879052875476ffffffffffffffffffffffffffffffffffffffffffffff1916909417600160a01b95821695909502949094177fffffff000000000000ffffffffffffffffffffffffffffffffffffffffffffff16600160b81b90930262ffffff60d01b191692909217600160d01b909102177cffffffffffffffffffffffffffffffffffffffffffffffffffffffffff16600160e81b909302929092179092555090565b60006001600160a01b0382166136f9575047919050565b6040516370a0823160e01b81523060048201526001600160a01b038316906370a0823190602401602060405180830381865afa15801561373d573d6000803e3d6000fd5b505050506040513d601f19601f82011682018060405250810190610c8f9190617215565b816001600160a01b0316836001600160a01b0316036137e85760405162461bcd60e51b815260206004820152602960248201527f455243313135353a2073657474696e6720617070726f76616c2073746174757360448201527f20666f722073656c6600000000000000000000000000000000000000000000006064820152608401610c61565b6001600160a01b03838116600081815260056020908152604080832094871680845294825291829020805460ff191686151590811790915591519182527f17307eab39ab6107e8899845ad3d59bd9653f200f220920489ca2b5937696c31910160405180910390a3505050565b81546001600160a01b03166000036138805760405163486aa30760e01b815260040160405180910390fd5b815462ffffff909116600160d01b0262ffffff60d01b19909116179055565b6138b3306001600160a01b03841683615454565b611f7f82611d6083612750565b6001600160a01b0384166139205760405162461bcd60e51b815260206004820152602160248201527f455243313135353a206d696e7420746f20746865207a65726f206164647265736044820152607360f81b6064820152608401610c61565b3361393a81600087613931886155d2565b611300886155d2565b60008481526004602090815260408083206001600160a01b03891684529091528120805485929061396c90849061711f565b909155505060408051858152602081018590526001600160a01b0380881692600092918516917fc3d58168c5ae7397731d063d5bbf3d657854427343f4c083240f7aacaa2d0f62910160405180910390a46113008160008787878761561d565b6001600160a01b038416613a305760405162461bcd60e51b815260206004820152602560248201527f455243313135353a207472616e7366657220746f20746865207a65726f206164604482015264647265737360d81b6064820152608401610c61565b33613a40818787613931886155d2565b60008481526004602090815260408083206001600160a01b038a16845290915290205483811015613ac65760405162461bcd60e51b815260206004820152602a60248201527f455243313135353a20696e73756666696369656e742062616c616e636520666f60448201526939103a3930b739b332b960b11b6064820152608401610c61565b60008581526004602090815260408083206001600160a01b038b8116855292528083208785039055908816825281208054869290613b0590849061711f565b909155505060408051868152602081018690526001600160a01b03808916928a821692918616917fc3d58168c5ae7397731d063d5bbf3d657854427343f4c083240f7aacaa2d0f62910160405180910390a4613b6582888888888861561d565b50505050505050565b600080600080613bc26040518060c00160405280600081526020016000815260200160006001600160a01b03168152602001600060020b81526020016000815260200160006001600160801b031681525090565b8560400151600003613be75760405163be8b850760e01b815260040160405180910390fd5b6040805160a08101825288546001600160a01b038116808352600160a01b820460020b602084015262ffffff600160b81b8304811694840194909452600160d01b820484166060840152600160e81b90910490921660808201819052935090600003613c665760405163486aa30760e01b815260040160405180910390fd5b866020015115613d155780600001516001600160a01b031687606001516001600160a01b031610613cc45780516060880151604051637c9c6e8f60e01b81526001600160a01b03928316600482015291166024820152604401610c61565b6401000276a36001600160a01b031687606001516001600160a01b031611613d10576060870151604051639e4d7cc760e01b81526001600160a01b039091166004820152602401610c61565b613dc4565b80600001516001600160a01b031687606001516001600160a01b031611613d695780516060880151604051637c9c6e8f60e01b81526001600160a01b03928316600482015291166024820152604401610c61565b73fffd8963efd1fc6a506488495d951d5263988d266001600160a01b031687606001516001600160a01b031610613dc4576060870151604051639e4d7cc760e01b81526001600160a01b039091166004820152602401610c61565b604080516060810190915260038901546001600160801b0316815260208881015160009291820190613e0057604084015160121c603f16613e17565b604084810151600c1c610fff16613e179190617244565b61ffff1681526020018960200151613e3957606084015160121c603f16613e52565b6060840151604090600c1c610fff16613e529190617244565b61ffff16815250905060008089604001511390506040518060c001604052808a6040015181526020016000815260200184600001516001600160a01b03168152602001846020015160020b81526020018a60200151613eb5578b60020154613ebb565b8b600101545b815283516001600160801b03166020918201526040805160e0810182526000808252928101839052908101829052606081018290526080810182905260a0810182905260c08101919091529094505b845115801590613f34575089606001516001600160a01b031685604001516001600160a01b031614155b156143395760408501516001600160a01b0316815260608501518a5160208c0151613f659260058f01929091615719565b1515604083015260020b60208201819052620d89e7191315613f9057620d89e7196020820152613fc4565b613f9d620d89e719617265565b60020b816020015160020b1315613fc457613fbb620d89e719617265565b60020b60208201525b613fd18160200151614b5b565b6001600160a01b03166060820152604085015160208b01516140539190614014578b606001516001600160a01b031683606001516001600160a01b031611614032565b8b606001516001600160a01b031683606001516001600160a01b0316105b614040578260600151614046565b8b606001515b60a088015188518a61585b565b60c085015260a084015260808301526001600160a01b0316604086015281156140b5576140898160c00151826080015101615a4d565b855103855260a081015161409c90615a4d565b85602001516140ab919061727e565b60208601526140f8565b6140c28160a00151615a4d565b855101855260c081015160808201516140e3916140de9161711f565b615a4d565b85602001516140f2919061708a565b60208601525b602083015161ffff1615614132576000836020015161ffff168260c00151614120919061729e565b60c08301805182900390529890980197505b604083015161ffff161561416c576000836040015161ffff168260c0015161415a919061729e565b60c08301805182900390529790970196505b60a08501516001600160801b0316156141ab5761419f8160c00151600160801b8760a001516001600160801b031661446f565b60808601805190910190525b80606001516001600160a01b031685604001516001600160a01b031603614306578060400151156142dd5760006142858c83602001518d602001516141f4578e600101546141fa565b88608001515b8e60200151614244578960800151600292830b600090815260049094016020526040909320600181018054909203909155908101805490920390915554600160801b9004600f0b90565b8f60020154600292830b600090815260049094016020526040909320600181018054909203909155908101805490920390915554600160801b9004600f0b90565b90508a6020015115614295576000035b600081600f0b126142b557808660a001516142b091906171b6565b6142cd565b6142be81616e86565b8660a001516142cd9190617063565b6001600160801b031660a0870152505b89602001516142f05780602001516142f9565b60018160200151035b60020b6060860152613f0a565b80600001516001600160a01b031685604001516001600160a01b031614614334576142f98560400151615141565b613f0a565b604085015160608601518c5476ffffffffffffffffffffffffffffffffffffffffffffff1916600160a01b62ffffff9092169190910273ffffffffffffffffffffffffffffffffffffffff1916176001600160a01b03909116178b5560a085015183516001600160801b039182169116146143de5760a085015160038c0180546fffffffffffffffffffffffffffffffff19166001600160801b039092169190911790555b8960200151156143f757608085015160018c0155614402565b608085015160028c01555b8115158a6020015115150361443b5761443461442786600001518c6040015103612f0f565b61295e8760200151612f0f565b9850614461565b61445e61444b8660200151612f0f565b61295e87600001518d6040015103612f0f565b98505b505050509295509295909350565b6000838302816000198587098281108382030391505080841161449157600080fd5b806000036144a457508290049050611f6d565b6000848688096000868103871696879004966002600389028118808a02820302808a02820302808a02820302808a02820302808a02820302808a02909103029181900381900460010186841190950394909402919094039290920491909117919091029150509392505050565b61ffff811615611419576000614528604083617244565b90506103ff600683901c1661ffff82161580159061454a5750600461ffff8316105b80614567575061ffff8116158015906145675750600461ffff8216105b1561458557604051637e2df70960e11b815260040160405180910390fd5b505050565b6001600160a01b0384163b15612e025760405163bc197c8160e01b81526001600160a01b0385169063bc197c81906145ce90899089908890889088906004016172b2565b6020604051808303816000875af1925050508015614609575060408051601f3d908101601f1916820190925261460691810190616bf6565b60015b6146be57614615617304565b806308c379a00361464e5750614629617320565b806146345750614650565b8060405162461bcd60e51b8152600401610c6191906161ac565b505b60405162461bcd60e51b815260206004820152603460248201527f455243313135353a207472616e7366657220746f206e6f6e204552433131353560448201527f526563656976657220696d706c656d656e7465720000000000000000000000006064820152608401610c61565b6001600160e01b0319811663bc197c8160e01b14613b655760405162461bcd60e51b815260206004820152602860248201527f455243313135353a204552433131353552656365697665722072656a656374656044820152676420746f6b656e7360c01b6064820152608401610c61565b8060020b8260020b126147635760405163c4433ed560e01b8152600283810b600483015282900b6024820152604401610c61565b620d89e719600283900b12156147925760405163d5e2f7ab60e01b8152600283900b6004820152602401610c61565b61479f620d89e719617265565b60020b8160020b1315611f7f5760405163035aeeff60e31b8152600282900b6004820152602401610c61565b600283900b6000908152600485016020526040812080548291906001600160801b0381169060801c600f87900b841361480d5761480887836171b6565b614820565b61481687616e86565b6148209083617063565b6001600160801b038082161590841680159190911415965090945060000361486e578854600160a01b9004600290810b9089900b1361486e576001808a0154908401556002808a0154908401555b6000866148845761487f88836171d6565b61488e565b61488e88836173aa565b90508060801b851784555050505094509492505050565b6000621b13d08201600290810b9083900b6001600160801b0302816148cc576148cc61722e565b0492915050565b8060020b8260020b816148e8576148e861722e565b0760020b1561491857604051636a6c79f360e11b8152600283810b600483015282900b6024820152604401610c61565b6000806149468360020b8560020b816149335761493361722e565b0560020b600881901d9161010090910790565b600191820b60009081526020979097526040909620805460ff9097169190911b90951890945550505050565b600282810b600081815260048601602052604080822085850b835290822087549294859492939192600160a01b909204900b908112156149cb578160010154836001015403945081600201548360020154039350614a1e565b8560020b8160020b126149f7578260010154826001015403945082600201548260020154039350614a1e565b81600101548360010154896001015403039450816002015483600201548960020154030393505b505050935093915050565b6040805160608101825285546001600160801b0316815260018601546020820152600286015491810191909152600090819081600f87900b8103614a9a5781516001600160801b0316600003614a9257604051632bbfae4960e21b815260040160405180910390fd5b508051614acf565b600087600f0b12614ab7578151614ab29088906171b6565b614acc565b614ac087616e86565b8251614acc9190617063565b90505b614af18260200151870383600001516001600160801b0316600160801b61446f565b9350614b158260400151860383600001516001600160801b0316600160801b61446f565b925086600f0b600014614b455787546fffffffffffffffffffffffffffffffff19166001600160801b0382161788555b5050600186019390935560029094015591929050565b60008060008360020b12614b72578260020b614b7a565b8260020b6000035b9050620d89e8811115614ba0576040516333a3bdff60e21b815260040160405180910390fd5b600081600116600003614bb757600160801b614bc9565b6ffffcb933bd6fad37aa2d162d1a5940015b70ffffffffffffffffffffffffffffffffff1690506002821615614bfd576ffff97272373d413259a46990580e213a0260801c5b6004821615614c1c576ffff2e50f5f656932ef12357cf3c7fdcc0260801c5b6008821615614c3b576fffe5caca7e10e4e61c3624eaa0941cd00260801c5b6010821615614c5a576fffcb9843d60f6159c9db58835c9266440260801c5b6020821615614c79576fff973b41fa98c081472e6896dfb254c00260801c5b6040821615614c98576fff2ea16466c96a3843ec78b326b528610260801c5b6080821615614cb7576ffe5dee046a99a2a811c461f1969c30530260801c5b610100821615614cd7576ffcbe86c7900a88aedcffc83b479aa3a40260801c5b610200821615614cf7576ff987a7253ac413176f2b074cf7815e540260801c5b610400821615614d17576ff3392b0822b70005940c7a398e4b70f30260801c5b610800821615614d37576fe7159475a2c29b7443b29c7fa6e889d90260801c5b611000821615614d57576fd097f3bdfd2022b8845ad8f792aa58250260801c5b612000821615614d77576fa9f746462d870fdf8a65dc1f90e061e50260801c5b614000821615614d97576f70d869a156d2a1b890bb3df62baf32f70260801c5b618000821615614db7576f31be135f97d08fd981231505542fcfa60260801c5b62010000821615614dd8576f09aa508b5b7a84e1c677de54f3e99bc90260801c5b62020000821615614df8576e5d6af8dedb81196699c329225ee6040260801c5b62040000821615614e17576d2216e584f5fa1ea926041bedfe980260801c5b62080000821615614e34576b048a170391f7dc42444e8fa20260801c5b60008460020b1315614e55578060001981614e5157614e5161722e565b0490505b640100000000810615614e69576001614e6c565b60005b60ff16602082901c0192505050919050565b60008082600f0b12614e9f57614e9a6140de8585856001615a7c565b610d9e565b614eb26140de8585856000036000615a7c565b600003949350505050565b6000611f6d614ecc8360801c90565b614ed68560801c90565b614ee091906171d6565b838561343d565b60008082600f0b12614f0357614e9a6140de8585856001615b45565b614eb26140de8585856000036000615b45565b614f416040518060800160405280600081526020016000815260200160008152602001600081525090565b6000614f4d8360801c90565b6040805160a08101825286546001600160a01b0381168252600160a01b810460020b602083015262ffffff600160b81b82048116838501819052600160d01b830480831660608601819052600160e81b909404909216608085015294955087949293919291600091610fff16614fc39190617244565b9050603f600684901c166000614fde6040610fff8616617244565b9050603f600685901c166000600f8a900b128015615000575060008461ffff16115b1561502c5761ffff84166150138a616e86565b61501d91906173e9565b6001600160801b031660408b01525b600088600f0b128015615043575060008361ffff16115b1561506f5761ffff831661505689616e86565b61506091906173e9565b6001600160801b031660608b01525b60008261ffff16118015615087575060008a60400151115b156150b8578161ffff168a604001516150a0919061729e565b808b5260408b0180516150b4908390616b00565b9052505b60008161ffff161180156150d0575060008a60600151115b15615105578061ffff168a606001516150e9919061729e565b60208b0181905260608b018051615101908390616b00565b9052505b50505050505050505092915050565b6000611f6d6151238360801c90565b61512d8560801c90565b61513791906173aa565b61295e84866173aa565b60006401000276a36001600160a01b038316108061517c575073fffd8963efd1fc6a506488495d951d5263988d266001600160a01b03831610155b1561519a5760405163015680db60e11b815260040160405180910390fd5b77ffffffffffffffffffffffffffffffffffffffff00000000602083901b166001600160801b03811160071b81811c67ffffffffffffffff811160061b90811c63ffffffff811160051b90811c61ffff811160041b90811c60ff8111600390811b91821c600f811160021b90811c918211600190811b92831c9790881196179094179092171790911717176080811061523b57607f810383901c9150615245565b80607f0383901b91505b908002607f81811c60ff83811c9190911c800280831c81831c1c800280841c81841c1c800280851c81851c1c800280861c81861c1c800280871c81871c1c800280881c81881c1c800280891c81891c1c8002808a1c818a1c1c8002808b1c818b1c1c8002808c1c818c1c1c8002808d1c818d1c1c8002808e1c9c81901c9c909c1c80029c8d901c9e9d607f198f0160401b60c09190911c678000000000000000161760c19b909b1c674000000000000000169a909a1760c29990991c672000000000000000169890981760c39790971c671000000000000000169690961760c49590951c670800000000000000169490941760c59390931c670400000000000000169290921760c69190911c670200000000000000161760c79190911c670100000000000000161760c89190911c6680000000000000161760c99190911c6640000000000000161760ca9190911c6620000000000000161760cb9190911c6610000000000000161760cc9190911c6608000000000000161760cd9190911c66040000000000001617693627a301d71055774c8581026f028f6481ab7f045a5af012a19d003aa9198101608090811d906fdb2df09e81959a81455e260799a0632f8301901d600281810b9083900b1461544557886001600160a01b031661542a82614b5b565b6001600160a01b0316111561543f5781615447565b80615447565b815b9998505050505050505050565b6001600160a01b0383166154b65760405162461bcd60e51b815260206004820152602360248201527f455243313135353a206275726e2066726f6d20746865207a65726f206164647260448201526265737360e81b6064820152608401610c61565b336154e6818560006154c7876155d2565b6154d0876155d2565b5050604080516020810190915260009052505050565b60008381526004602090815260408083206001600160a01b0388168452909152902054828110156155655760405162461bcd60e51b8152602060048201526024808201527f455243313135353a206275726e20616d6f756e7420657863656564732062616c604482015263616e636560e01b6064820152608401610c61565b60008481526004602090815260408083206001600160a01b03898116808652918452828520888703905582518981529384018890529092908616917fc3d58168c5ae7397731d063d5bbf3d657854427343f4c083240f7aacaa2d0f62910160405180910390a45050505050565b6040805160018082528183019092526060916000919060208083019080368337019050509050828160008151811061560c5761560c616c2a565b602090810291909101015292915050565b6001600160a01b0384163b15612e025760405163f23a6e6160e01b81526001600160a01b0385169063f23a6e6190615661908990899088908890889060040161740f565b6020604051808303816000875af192505050801561569c575060408051601f3d908101601f1916820190925261569991810190616bf6565b60015b6156a857614615617304565b6001600160e01b0319811663f23a6e6160e01b14613b655760405162461bcd60e51b815260206004820152602860248201527f455243313135353a204552433131353552656365697665722072656a656374656044820152676420746f6b656e7360c01b6064820152608401610c61565b60008060008460020b8660020b816157335761573361722e565b05905060008660020b12801561576057508460020b8660020b816157595761575961722e565b0760020b15155b1561576a57600019015b83156157de57600281900b600881901d600181810b600090815260208b9052604090205461010090930760ff81169190911b800160001901928316801515955091929091856157c057888360ff168603026157d3565b886157ca82615bcc565b840360ff168603025b965050505050615851565b600181810160020b600881901d80830b600090815260208b9052604090205461010090920760ff81169390931b60001901199182168015159550909291908561583457888360ff0360ff1686600101010261584a565b888361583f83615c6c565b0360ff168660010101025b9650505050505b5094509492505050565b60008080806001600160a01b03808916908a1610158187128015906158e05760006158948989620f42400362ffffff16620f424061446f565b9050826158ad576158a88c8c8c6001615b45565b6158ba565b6158ba8b8d8c6001615a7c565b95508581106158cb578a96506158da565b6158d78c8b8386615d56565b96505b5061592a565b816158f7576158f28b8b8b6000615a7c565b615904565b6159048a8c8b6000615b45565b93508388600003106159185789955061592a565b6159278b8a8a60000385615da2565b95505b6001600160a01b038a811690871614821561598d578080156159495750815b61595f5761595a878d8c6001615a7c565b615961565b855b955080801561596e575081155b6159845761597f878d8c6000615b45565b615986565b845b94506159d7565b8080156159975750815b6159ad576159a88c888c6001615b45565b6159af565b855b95508080156159bc575081155b6159d2576159cd8c888c6000615a7c565b6159d4565b845b94505b811580156159e757508860000385115b156159f3578860000394505b818015615a1257508a6001600160a01b0316876001600160a01b031614155b15615a21578589039350615a3e565b615a3b868962ffffff168a620f42400362ffffff16615dee565b93505b50505095509550955095915050565b60007f7fffffffffffffffffffffffffffffffffffffffffffffffffffffffffffffff82111561276f57600080fd5b6000836001600160a01b0316856001600160a01b03161115615a9c579293925b7bffffffffffffffffffffffffffffffff000000000000000000000000606084901b166001600160a01b038686038116908716615ad857600080fd5b83615b0e57866001600160a01b0316615afb8383896001600160a01b031661446f565b81615b0857615b0861722e565b04615b3a565b615b3a615b258383896001600160a01b0316615dee565b886001600160a01b0316808204910615150190565b979650505050505050565b6000836001600160a01b0316856001600160a01b03161115615b65579293925b81615b9957615b946001600160801b038416615b818787617447565b6001600160a01b0316600160601b61446f565b615bc3565b615bc36001600160801b038416615bb08787617447565b6001600160a01b0316600160601b615dee565b95945050505050565b6000808211615bda57600080fd5b600160801b8210615bed57608091821c91015b680100000000000000008210615c0557604091821c91015b6401000000008210615c1957602091821c91015b620100008210615c2b57601091821c91015b6101008210615c3c57600891821c91015b60108210615c4c57600491821c91015b60048210615c5c57600291821c91015b60028210612eaa57600101919050565b6000808211615c7a57600080fd5b5060ff6001600160801b03821615615c9557607f1901615c9d565b608082901c91505b67ffffffffffffffff821615615cb657603f1901615cbe565b604082901c91505b63ffffffff821615615cd357601f1901615cdb565b602082901c91505b61ffff821615615cee57600f1901615cf6565b601082901c91505b60ff821615615d085760071901615d10565b600882901c91505b600f821615615d225760031901615d2a565b600482901c91505b6003821615615d3c5760011901615d44565b600282901c91505b6001821615612eaa5760001901919050565b600080856001600160a01b031611615d6d57600080fd5b6000846001600160801b031611615d8357600080fd5b81615d9557615b948585856001615e2e565b615bc38585856001615f15565b600080856001600160a01b031611615db957600080fd5b6000846001600160801b031611615dcf57600080fd5b81615de157615b948585856000615f15565b615bc38585856000615e2e565b6000615dfb84848461446f565b905060008280615e0d57615e0d61722e565b8486091115611f6d576000198110615e2457600080fd5b6001019392505050565b60008115615ea05760006001600160a01b03841115615e6457615e5f84600160601b876001600160801b031661446f565b615e7b565b615e7b6001600160801b038616606086901b61729e565b9050615e98615e93826001600160a01b03891661711f565b616017565b915050610d9e565b60006001600160a01b03841115615ece57615ec984600160601b876001600160801b0316615dee565b615eeb565b615eeb606085901b6001600160801b038716808204910615150190565b905080866001600160a01b031611615f0257600080fd5b615e98816001600160a01b038816616b00565b600082600003615f26575083610d9e565b7bffffffffffffffffffffffffffffffff000000000000000000000000606085901b168215615fca576001600160a01b03861684810290858281615f6c57615f6c61722e565b0403615f9c57818101828110615f9a57615f9083896001600160a01b031683615dee565b9350505050610d9e565b505b50615e988185615fb56001600160a01b038a168361729e565b615fbf919061711f565b808204910615150190565b6001600160a01b03861684810290858281615fe757615fe761722e565b04148015615ff457508082115b615ffd57600080fd5b808203615f90615e93846001600160a01b038b1684615dee565b806001600160a01b0381168114612eaa57600080fd5b6001600160a01b038116811461141957600080fd5b6000806040838503121561605557600080fd5b82356160608161602d565b946020939093013593505050565b6001600160e01b03198116811461141957600080fd5b60006020828403121561609657600080fd5b8135611f6d8161606e565b8035600281900b8114612eaa57600080fd5b600080600080608085870312156160c957600080fd5b8435935060208501356160db8161602d565b92506160e9604086016160a1565b91506160f7606086016160a1565b905092959194509250565b60008060006060848603121561611757600080fd5b83356161228161602d565b925060208401356161328161602d565b929592945050506040919091013590565b60006020828403121561615557600080fd5b5035919050565b60005b8381101561617757818101518382015260200161615f565b50506000910152565b6000815180845261619881602086016020860161615c565b601f01601f19169290920160200192915050565b602081526000611f6d6020830184616180565b6000602082840312156161d157600080fd5b8135611f6d8161602d565b634e487b7160e01b600052604160045260246000fd5b6060810181811067ffffffffffffffff82111715616212576162126161dc565b60405250565b601f8201601f1916810167ffffffffffffffff8111828210171561623e5761623e6161dc565b6040525050565b62ffffff8116811461141957600080fd5b600060a0828403121561626857600080fd5b60405160a0810181811067ffffffffffffffff8211171561628b5761628b6161dc565b604052905080823561629c8161602d565b815260208301356162ac8161602d565b602082015260408301356162bf81616245565b60408201526162d0606084016160a1565b606082015260808301356162e38161602d565b6080919091015292915050565b60008083601f84011261630257600080fd5b50813567ffffffffffffffff81111561631a57600080fd5b60208301915083602082850101111561633257600080fd5b9250929050565b6000806000806000610100868803121561635257600080fd5b61635c8787616256565b945060a0860135935060c0860135925060e086013567ffffffffffffffff81111561638657600080fd5b616392888289016162f0565b969995985093965092949392505050565b600060a082840312156163b557600080fd5b611f6d8383616256565b600067ffffffffffffffff8211156163d9576163d96161dc565b5060051b60200190565b600082601f8301126163f457600080fd5b81356020616401826163bf565b60405161640e8282616218565b80915083815260208101915060208460051b87010193508684111561643257600080fd5b602086015b8481101561644e5780358352918301918301616437565b509695505050505050565b600067ffffffffffffffff821115616473576164736161dc565b50601f01601f191660200190565b600082601f83011261649257600080fd5b813561649d81616459565b6040516164aa8282616218565b8281528560208487010111156164bf57600080fd5b82602086016020830137600092810160200192909252509392505050565b600080600080600060a086880312156164f557600080fd5b85356165008161602d565b945060208601356165108161602d565b9350604086013567ffffffffffffffff8082111561652d57600080fd5b61653989838a016163e3565b9450606088013591508082111561654f57600080fd5b61655b89838a016163e3565b9350608088013591508082111561657157600080fd5b5061657e88828901616481565b9150509295509295909350565b6000806040838503121561659e57600080fd5b50508035926020909101359150565b600080604083850312156165c057600080fd5b823567ffffffffffffffff808211156165d857600080fd5b818501915085601f8301126165ec57600080fd5b813560206165f9826163bf565b6040516166068282616218565b83815260059390931b850182019282810191508984111561662657600080fd5b948201945b8386101561664d57853561663e8161602d565b8252948201949082019061662b565b9650508601359250508082111561666357600080fd5b50616670858286016163e3565b9150509250929050565b60008151808452602080850194506020840160005b838110156166ab5781518752958201959082019060010161668f565b509495945050505050565b602081526000611f6d602083018461667a565b6000806000808486036101208112156166e157600080fd5b6166eb8787616256565b94506060609f19820112156166ff57600080fd5b5060405161670c816161f2565b61671860a087016160a1565b815261672660c087016160a1565b602082015260e08601356040820152925061010085013567ffffffffffffffff81111561675257600080fd5b61675e878288016162f0565b95989497509550505050565b60008060008060e0858703121561678057600080fd5b61678a8686616256565b935060a085013561679a8161602d565b925060c085013567ffffffffffffffff81111561675257600080fd5b600080602083850312156167c957600080fd5b823567ffffffffffffffff8111156167e057600080fd5b6167ec858286016162f0565b90969095509350505050565b80358015158114612eaa57600080fd5b6000806040838503121561681b57600080fd5b82356168268161602d565b9150616834602084016167f8565b90509250929050565b6000806040838503121561685057600080fd5b823561685b8161602d565b9150602083013561686b8161602d565b809150509250929050565b60008083601f84011261688857600080fd5b50813567ffffffffffffffff8111156168a057600080fd5b6020830191508360208260051b850101111561633257600080fd5b60008060008060008060008060a0898b0312156168d757600080fd5b88356168e28161602d565b975060208901356168f28161602d565b9650604089013567ffffffffffffffff8082111561690f57600080fd5b61691b8c838d01616876565b909850965060608b013591508082111561693457600080fd5b6169408c838d01616876565b909650945060808b013591508082111561695957600080fd5b506169668b828c016162f0565b999c989b5096995094979396929594505050565b60008060008060008060a0878903121561699357600080fd5b863561699e8161602d565b955060208701356169ae8161602d565b94506040870135935060608701359250608087013567ffffffffffffffff8111156169d857600080fd5b6169e489828a016162f0565b979a9699509497509295939492505050565b600080600080600060a08688031215616a0e57600080fd5b8535616a198161602d565b94506020860135616a298161602d565b93506040860135925060608601359150608086013567ffffffffffffffff811115616a5357600080fd5b61657e88828901616481565b600080600080848603610120811215616a7757600080fd5b616a818787616256565b94506060609f1982011215616a9557600080fd5b50604051616aa2816161f2565b616aae60a087016167f8565b815260c0860135602082015260e0860135616ac88161602d565b6040820152925061010085013567ffffffffffffffff81111561675257600080fd5b634e487b7160e01b600052601160045260246000fd5b81810381811115610c8f57610c8f616aea565b600181811c90821680616b2757607f821691505b602082108103616b4757634e487b7160e01b600052602260045260246000fd5b50919050565b81835281816020850137506000828201602090810191909152601f909101601f19169091010190565b60006101206001600160a01b0389168352616bd660208401896001600160a01b0380825116835280602083015116602084015262ffffff6040830151166040840152606082015160020b6060840152806080830151166080840152505050565b8660c08401528560e0840152806101008401526154478184018587616b4d565b600060208284031215616c0857600080fd5b8151611f6d8161606e565b8082028115828204841417610c8f57610c8f616aea565b634e487b7160e01b600052603260045260246000fd5b60006101406001600160a01b0388168352616ca060208401886001600160a01b0380825116835280602083015116602084015262ffffff6040830151166040840152606082015160020b6060840152806080830151166080840152505050565b8551600290810b60c08501526020870151900b60e084015260408601516101008401525b80610120840152616cd88184018587616b4d565b98975050505050505050565b60006101606001600160a01b0389168352616d4460208401896001600160a01b0380825116835280602083015116602084015262ffffff6040830151166040840152606082015160020b6060840152806080830151166080840152505050565b8651600290810b60c08501526020880151900b60e084015260408701516101008401525b85610120840152806101408401526154478184018587616b4d565b60006101006001600160a01b038089168452616de460208501896001600160a01b0380825116835280602083015116602084015262ffffff6040830151166040840152606082015160020b6060840152806080830151166080840152505050565b861660c084015260e08301819052616cd88184018587616b4d565b60006101206001600160a01b03808a168452616e60602085018a6001600160a01b0380825116835280602083015116602084015262ffffff6040830151166040840152606082015160020b6060840152806080830151166080840152505050565b80881660c0850152508560020b60e0840152806101008401526154478184018587616b4d565b600081600f0b6f7fffffffffffffffffffffffffffffff198103616eac57616eac616aea565b60000392915050565b602081526000610d9e602083018486616b4d565b600060208284031215616edb57600080fd5b815167ffffffffffffffff811115616ef257600080fd5b8201601f81018413616f0357600080fd5b8051616f0e81616459565b604051616f1b8282616218565b828152866020848601011115616f3057600080fd5b616f4183602083016020870161615c565b9695505050505050565b60006101406001600160a01b0388168352616fab60208401886001600160a01b0380825116835280602083015116602084015262ffffff6040830151166040840152606082015160020b6060840152806080830151166080840152505050565b8551151560c0840152602086015160e084015260408601516001600160a01b0316610100840152616cc4565b60006101606001600160a01b038916835261703760208401896001600160a01b0380825116835280602083015116602084015262ffffff6040830151166040840152606082015160020b6060840152806080830151166080840152505050565b8651151560c0840152602087015160e084015260408701516001600160a01b0316610100840152616d68565b6001600160801b0382811682821603908082111561708357617083616aea565b5092915050565b80820182811260008312801582168215821617156170aa576170aa616aea565b505092915050565b60a08101610c8f82846001600160a01b0380825116835280602083015116602084015262ffffff6040830151166040840152606082015160020b6060840152806080830151166080840152505050565b60006020828403121561711457600080fd5b8151611f6d81616245565b80820180821115610c8f57610c8f616aea565b604081526000617145604083018561667a565b8281036020840152615bc3818561667a565b6001600160a01b038316815260c08101611f6d60208301846001600160a01b0380825116835280602083015116602084015262ffffff6040830151166040840152606082015160020b6060840152806080830151166080840152505050565b6001600160801b0381811683821601908082111561708357617083616aea565b600f81810b9083900b016f7fffffffffffffffffffffffffffffff81136f7fffffffffffffffffffffffffffffff1982121715610c8f57610c8f616aea565b60006020828403121561722757600080fd5b5051919050565b634e487b7160e01b600052601260045260246000fd5b600061ffff808416806172595761725961722e565b92169190910692915050565b60008160020b627fffff198103616eac57616eac616aea565b818103600083128015838313168383128216171561708357617083616aea565b6000826172ad576172ad61722e565b500490565b60006001600160a01b03808816835280871660208401525060a060408301526172de60a083018661667a565b82810360608401526172f0818661667a565b90508281036080840152616cd88185616180565b600060033d111561731d5760046000803e5060005160e01c5b90565b600060443d101561732e5790565b6040516003193d81016004833e81513d67ffffffffffffffff816024840111818411171561735e57505050505090565b82850191508151818111156173765750505050505090565b843d87010160208285010111156173905750505050505090565b61739f60208286010187616218565b509095945050505050565b600f82810b9082900b036f7fffffffffffffffffffffffffffffff1981126f7fffffffffffffffffffffffffffffff82131715610c8f57610c8f616aea565b60006001600160801b03808416806174035761740361722e565b92169190910492915050565b60006001600160a01b03808816835280871660208401525084604083015283606083015260a06080830152615b3a60a0830184616180565b6001600160a01b0382811682821603908082111561708357617083616aea56fea26469706673582212208add9640e45c6e6fb0d1a2649e1383959a5c7df8abc563f35cb686b19057e91564736f6c63430008160033",
    "linkReferences": {}
  },
  "methodIdentifiers": {
    "MAX_SWAP_FEE()": "ab3d8544",
    "MAX_TICK_SPACING()": "60460f06",
    "MIN_PROTOCOL_FEE_DENOMINATOR()": "84e41c5e",
    "MIN_TICK_SPACING()": "07eff0dd",
    "balanceOf(address,uint256)": "00fdd58e",
    "balanceOfBatch(address[],uint256[])": "4e1273f4",
    "collectHookFees(address,address,uint256)": "effd18c0",
    "collectProtocolFees(address,address,uint256)": "8161b874",
    "currencyDelta(address,address)": "a54b2831",
    "donate((address,address,uint24,int24,address),uint256,uint256,bytes)": "234266d7",
    "extsload(bytes32)": "1e2eaeaf",
    "extsload(bytes32,uint256)": "35fd631a",
    "getLiquidity(bytes32)": "fa6793d5",
    "getLiquidity(bytes32,address,int24,int24)": "33aa955b",
    "getLock(uint256)": "d68f4dd1",
    "getPosition(bytes32,address,int24,int24)": "048d9c70",
    "getSlot0(bytes32)": "c815641c",
    "hookFeesAccrued(address,address)": "b4c41939",
    "initialize((address,address,uint24,int24,address),uint160,bytes)": "695c5bf5",
    "isApprovedForAll(address,address)": "e985e9c5",
    "lock(bytes)": "81548319",
    "lockData()": "f8fcd156",
    "mint(address,address,uint256)": "c6c3bbe6",
    "modifyPosition((address,address,uint24,int24,address),(int24,int24,int256),bytes)": "61ae449a",
    "onERC1155BatchReceived(address,address,uint256[],uint256[],bytes)": "bc197c81",
    "onERC1155Received(address,address,uint256,uint256,bytes)": "f23a6e61",
    "owner()": "8da5cb5b",
    "pools(bytes32)": "b5217bb4",
    "protocolFeeController()": "f02de3b2",
    "protocolFeesAccrued(address)": "97e8cd4e",
    "reservesOf(address)": "93c85a21",
    "safeBatchTransferFrom(address,address,uint256[],uint256[],bytes)": "2eb2c2d6",
    "safeTransferFrom(address,address,uint256,uint256,bytes)": "f242432a",
    "setApprovalForAll(address,bool)": "a22cb465",
    "setHookFees((address,address,uint24,int24,address))": "af440f82",
    "setOwner(address)": "13af4035",
    "setProtocolFeeController(address)": "2d771389",
    "setProtocolFees((address,address,uint24,int24,address))": "282076cc",
    "settle(address)": "6a256b29",
    "supportsInterface(bytes4)": "01ffc9a7",
    "swap((address,address,uint24,int24,address),(bool,int256,uint160),bytes)": "f3cd914c",
    "take(address,address,uint256)": "0b0d9c09",
    "updateDynamicSwapFee((address,address,uint24,int24,address))": "48a76703",
    "uri(uint256)": "0e89341c"
  },
  "id": 34
}