{
  "abi": [
    {
      "inputs": [
        {
          "components": [
            {
              "internalType": "Currency",
              "name": "currency0",
              "type": "address"
            },
            {
              "internalType": "Currency",
              "name": "currency1",
              "type": "address"
            },
            {
              "internalType": "uint24",
              "name": "fee",
              "type": "uint24"
            },
            {
              "internalType": "int24",
              "name": "tickSpacing",
              "type": "int24"
            },
            {
              "internalType": "contract IHooks",
              "name": "hooks",
              "type": "address"
            }
          ],
          "internalType": "struct PoolKey",
          "name": "key",
          "type": "tuple"
        }
      ],
      "name": "protocolFeesForPool",
      "outputs": [
        {
          "internalType": "uint24",
          "name": "",
          "type": "uint24"
        }
      ],
      "stateMutability": "view",
      "type": "function"
    },
    {
      "inputs": [
        {
          "internalType": "PoolId",
          "name": "id",
          "type": "bytes32"
        },
        {
          "internalType": "uint16",
          "name": "fee",
          "type": "uint16"
        }
      ],
      "name": "setSwapFeeForPool",
      "outputs": [],
      "stateMutability": "nonpayable",
      "type": "function"
    },
    {
      "inputs": [
        {
          "internalType": "PoolId",
          "name": "id",
          "type": "bytes32"
        },
        {
          "internalType": "uint16",
          "name": "fee",
          "type": "uint16"
        }
      ],
      "name": "setWithdrawFeeForPool",
      "outputs": [],
      "stateMutability": "nonpayable",
      "type": "function"
    },
    {
      "inputs": [
        {
          "internalType": "PoolId",
          "name": "",
          "type": "bytes32"
        }
      ],
      "name": "swapFeeForPool",
      "outputs": [
        {
          "internalType": "uint16",
          "name": "",
          "type": "uint16"
        }
      ],
      "stateMutability": "view",
      "type": "function"
    },
    {
      "inputs": [
        {
          "internalType": "PoolId",
          "name": "",
          "type": "bytes32"
        }
      ],
      "name": "withdrawFeeForPool",
      "outputs": [
        {
          "internalType": "uint16",
          "name": "",
          "type": "uint16"
        }
      ],
      "stateMutability": "view",
      "type": "function"
    }
  ],
  "bytecode": {
    "object": "0x608060405234801561001057600080fd5b506103ae806100206000396000f3fe608060405234801561001057600080fd5b50600436106100675760003560e01c80639d246761116100505780639d246761146100dc578063b5aefc081461010e578063d6ec45851461013257600080fd5b806308b3dfd61461006c5780634619806b146100a8575b600080fd5b61009061007a36600461022e565b60006020819052908152604090205461ffff1681565b60405161ffff90911681526020015b60405180910390f35b6100da6100b6366004610247565b600091825260016020526040909120805461ffff191661ffff909216919091179055565b005b6100da6100ea366004610247565b600091825260208290526040909120805461ffff191661ffff909216919091179055565b61009061011c36600461022e565b60016020526000908152604090205461ffff1681565b6101456101403660046102d8565b610159565b60405162ffffff909116815260200161009f565b600060016000610168846101ab565b8152602081019190915260400160009081205461ffff1690600c908061018d866101ab565b815260208101919091526040016000205461ffff16901b1792915050565b6000816040516020016102119190815173ffffffffffffffffffffffffffffffffffffffff908116825260208084015182169083015260408084015162ffffff169083015260608084015160020b90830152608092830151169181019190915260a00190565b604051602081830303815290604052805190602001209050919050565b60006020828403121561024057600080fd5b5035919050565b6000806040838503121561025a57600080fd5b82359150602083013561ffff8116811461027357600080fd5b809150509250929050565b73ffffffffffffffffffffffffffffffffffffffff811681146102a057600080fd5b50565b80356102ae8161027e565b919050565b803562ffffff811681146102ae57600080fd5b8035600281900b81146102ae57600080fd5b600060a082840312156102ea57600080fd5b60405160a0810181811067ffffffffffffffff8211171561031b57634e487b7160e01b600052604160045260246000fd5b60405282356103298161027e565b815260208301356103398161027e565b602082015261034a604084016102b3565b604082015261035b606084016102c6565b606082015261036c608084016102a3565b6080820152939250505056fea26469706673582212202877d230cf51b39b896c8fa5914aed02fa854047eec3df67f64ba293cd0d348a64736f6c63430008160033",
    "linkReferences": {}
  },
  "methodIdentifiers": {
    "protocolFeesForPool((address,address,uint24,int24,address))": "d6ec4585",
    "setSwapFeeForPool(bytes32,uint16)": "9d246761",
    "setWithdrawFeeForPool(bytes32,uint16)": "4619806b",
    "swapFeeForPool(bytes32)": "08b3dfd6",
    "withdrawFeeForPool(bytes32)": "b5aefc08"
  },
  "id": 71
}